{
	"ExampleMappingStruct.sol": {
		"MappingStructExample": {
			"abi": [
				{
					"inputs": [
						{
							"internalType": "address",
							"name": "",
							"type": "address"
						}
					],
					"name": "balances",
					"outputs": [
						{
							"internalType": "uint256",
							"name": "totalBalance",
							"type": "uint256"
						},
						{
							"internalType": "uint256",
							"name": "numDeposits",
							"type": "uint256"
						},
						{
							"internalType": "uint256",
							"name": "numWithdrawals",
							"type": "uint256"
						}
					],
					"stateMutability": "view",
					"type": "function"
				},
				{
					"inputs": [],
					"name": "depositMoney",
					"outputs": [],
					"stateMutability": "payable",
					"type": "function"
				},
				{
					"inputs": [
						{
							"internalType": "address",
							"name": "_from",
							"type": "address"
						},
						{
							"internalType": "uint256",
							"name": "_numDeposit",
							"type": "uint256"
						}
					],
					"name": "getDepositNum",
					"outputs": [
						{
							"components": [
								{
									"internalType": "uint256",
									"name": "amount",
									"type": "uint256"
								},
								{
									"internalType": "uint256",
									"name": "timestamp",
									"type": "uint256"
								}
							],
							"internalType": "struct MappingStructExample.Transaction",
							"name": "",
							"type": "tuple"
						}
					],
					"stateMutability": "view",
					"type": "function"
				},
				{
					"inputs": [
						{
							"internalType": "address payable",
							"name": "_to",
							"type": "address"
						},
						{
							"internalType": "uint256",
							"name": "_amount",
							"type": "uint256"
						}
					],
					"name": "withdrawMoney",
					"outputs": [],
					"stateMutability": "nonpayable",
					"type": "function"
				}
			],
			"devdoc": {
				"kind": "dev",
				"methods": {},
				"version": 1
			},
			"evm": {
				"assembly": "    /* \"ExampleMappingStruct.sol\":58:1352  contract MappingStructExample {... */\n  mstore(0x40, 0x80)\n  callvalue\n  dup1\n  iszero\n  tag_1\n  jumpi\n  0x00\n  dup1\n  revert\ntag_1:\n  pop\n  dataSize(sub_0)\n  dup1\n  dataOffset(sub_0)\n  0x00\n  codecopy\n  0x00\n  return\nstop\n\nsub_0: assembly {\n        /* \"ExampleMappingStruct.sol\":58:1352  contract MappingStructExample {... */\n      mstore(0x40, 0x80)\n      jumpi(tag_1, lt(calldatasize, 0x04))\n      shr(0xe0, calldataload(0x00))\n      dup1\n      0x16c05aa2\n      eq\n      tag_2\n      jumpi\n      dup1\n      0x27e235e3\n      eq\n      tag_3\n      jumpi\n      dup1\n      0x55e14fe6\n      eq\n      tag_4\n      jumpi\n      dup1\n      0xf274c897\n      eq\n      tag_5\n      jumpi\n    tag_1:\n      0x00\n      dup1\n      revert\n        /* \"ExampleMappingStruct.sol\":612:942  function depositMoney() public payable {... */\n    tag_2:\n      tag_6\n      tag_7\n      jump\t// in\n    tag_6:\n      stop\n        /* \"ExampleMappingStruct.sol\":399:442  mapping(address => Balance) public balances */\n    tag_3:\n      callvalue\n      dup1\n      iszero\n      tag_8\n      jumpi\n      0x00\n      dup1\n      revert\n    tag_8:\n      pop\n      tag_9\n      0x04\n      dup1\n      calldatasize\n      sub\n      dup2\n      add\n      swap1\n      tag_10\n      swap2\n      swap1\n      tag_11\n      jump\t// in\n    tag_10:\n      tag_12\n      jump\t// in\n    tag_9:\n      mload(0x40)\n      tag_13\n      swap4\n      swap3\n      swap2\n      swap1\n      tag_14\n      jump\t// in\n    tag_13:\n      mload(0x40)\n      dup1\n      swap2\n      sub\n      swap1\n      return\n        /* \"ExampleMappingStruct.sol\":449:606  function getDepositNum(address _from, uint _numDeposit) public view returns(Transaction memory) {... */\n    tag_4:\n      callvalue\n      dup1\n      iszero\n      tag_15\n      jumpi\n      0x00\n      dup1\n      revert\n    tag_15:\n      pop\n      tag_16\n      0x04\n      dup1\n      calldatasize\n      sub\n      dup2\n      add\n      swap1\n      tag_17\n      swap2\n      swap1\n      tag_18\n      jump\t// in\n    tag_17:\n      tag_19\n      jump\t// in\n    tag_16:\n      mload(0x40)\n      tag_20\n      swap2\n      swap1\n      tag_21\n      jump\t// in\n    tag_20:\n      mload(0x40)\n      dup1\n      swap2\n      sub\n      swap1\n      return\n        /* \"ExampleMappingStruct.sol\":948:1350  function withdrawMoney(address payable _to, uint256 _amount) public {... */\n    tag_5:\n      callvalue\n      dup1\n      iszero\n      tag_22\n      jumpi\n      0x00\n      dup1\n      revert\n    tag_22:\n      pop\n      tag_23\n      0x04\n      dup1\n      calldatasize\n      sub\n      dup2\n      add\n      swap1\n      tag_24\n      swap2\n      swap1\n      tag_25\n      jump\t// in\n    tag_24:\n      tag_26\n      jump\t// in\n    tag_23:\n      stop\n        /* \"ExampleMappingStruct.sol\":612:942  function depositMoney() public payable {... */\n    tag_7:\n        /* \"ExampleMappingStruct.sol\":698:707  msg.value */\n      callvalue\n        /* \"ExampleMappingStruct.sol\":661:669  balances */\n      0x00\n        /* \"ExampleMappingStruct.sol\":661:681  balances[msg.sender] */\n      dup1\n        /* \"ExampleMappingStruct.sol\":670:680  msg.sender */\n      caller\n        /* \"ExampleMappingStruct.sol\":661:681  balances[msg.sender] */\n      0xffffffffffffffffffffffffffffffffffffffff\n      and\n      0xffffffffffffffffffffffffffffffffffffffff\n      and\n      dup2\n      mstore\n      0x20\n      add\n      swap1\n      dup2\n      mstore\n      0x20\n      add\n      0x00\n      keccak256\n        /* \"ExampleMappingStruct.sol\":661:694  balances[msg.sender].totalBalance */\n      0x00\n      add\n      0x00\n        /* \"ExampleMappingStruct.sol\":661:707  balances[msg.sender].totalBalance += msg.value */\n      dup3\n      dup3\n      sload\n      tag_28\n      swap2\n      swap1\n      tag_29\n      jump\t// in\n    tag_28:\n      swap3\n      pop\n      pop\n      dup2\n      swap1\n      sstore\n      pop\n        /* \"ExampleMappingStruct.sol\":718:744  Transaction memory deposit */\n      0x00\n        /* \"ExampleMappingStruct.sol\":747:786  Transaction(msg.value, block.timestamp) */\n      mload(0x40)\n      dup1\n      0x40\n      add\n      0x40\n      mstore\n      dup1\n        /* \"ExampleMappingStruct.sol\":759:768  msg.value */\n      callvalue\n        /* \"ExampleMappingStruct.sol\":747:786  Transaction(msg.value, block.timestamp) */\n      dup2\n      mstore\n      0x20\n      add\n        /* \"ExampleMappingStruct.sol\":770:785  block.timestamp */\n      timestamp\n        /* \"ExampleMappingStruct.sol\":747:786  Transaction(msg.value, block.timestamp) */\n      dup2\n      mstore\n      pop\n        /* \"ExampleMappingStruct.sol\":718:786  Transaction memory deposit = Transaction(msg.value, block.timestamp) */\n      swap1\n      pop\n        /* \"ExampleMappingStruct.sol\":884:891  deposit */\n      dup1\n        /* \"ExampleMappingStruct.sol\":796:804  balances */\n      0x00\n        /* \"ExampleMappingStruct.sol\":796:816  balances[msg.sender] */\n      dup1\n        /* \"ExampleMappingStruct.sol\":805:815  msg.sender */\n      caller\n        /* \"ExampleMappingStruct.sol\":796:816  balances[msg.sender] */\n      0xffffffffffffffffffffffffffffffffffffffff\n      and\n      0xffffffffffffffffffffffffffffffffffffffff\n      and\n      dup2\n      mstore\n      0x20\n      add\n      swap1\n      dup2\n      mstore\n      0x20\n      add\n      0x00\n      keccak256\n        /* \"ExampleMappingStruct.sol\":796:825  balances[msg.sender].deposits */\n      0x02\n      add\n        /* \"ExampleMappingStruct.sol\":796:881  balances[msg.sender].deposits[... */\n      0x00\n        /* \"ExampleMappingStruct.sol\":839:847  balances */\n      dup1\n        /* \"ExampleMappingStruct.sol\":839:859  balances[msg.sender] */\n      0x00\n        /* \"ExampleMappingStruct.sol\":848:858  msg.sender */\n      caller\n        /* \"ExampleMappingStruct.sol\":839:859  balances[msg.sender] */\n      0xffffffffffffffffffffffffffffffffffffffff\n      and\n      0xffffffffffffffffffffffffffffffffffffffff\n      and\n      dup2\n      mstore\n      0x20\n      add\n      swap1\n      dup2\n      mstore\n      0x20\n      add\n      0x00\n      keccak256\n        /* \"ExampleMappingStruct.sol\":839:871  balances[msg.sender].numDeposits */\n      0x01\n      add\n      sload\n        /* \"ExampleMappingStruct.sol\":796:881  balances[msg.sender].deposits[... */\n      dup2\n      mstore\n      0x20\n      add\n      swap1\n      dup2\n      mstore\n      0x20\n      add\n      0x00\n      keccak256\n        /* \"ExampleMappingStruct.sol\":796:891  balances[msg.sender].deposits[... */\n      0x00\n      dup3\n      add\n      mload\n      dup2\n      0x00\n      add\n      sstore\n      0x20\n      dup3\n      add\n      mload\n      dup2\n      0x01\n      add\n      sstore\n      swap1\n      pop\n      pop\n        /* \"ExampleMappingStruct.sol\":901:909  balances */\n      0x00\n        /* \"ExampleMappingStruct.sol\":901:921  balances[msg.sender] */\n      dup1\n        /* \"ExampleMappingStruct.sol\":910:920  msg.sender */\n      caller\n        /* \"ExampleMappingStruct.sol\":901:921  balances[msg.sender] */\n      0xffffffffffffffffffffffffffffffffffffffff\n      and\n      0xffffffffffffffffffffffffffffffffffffffff\n      and\n      dup2\n      mstore\n      0x20\n      add\n      swap1\n      dup2\n      mstore\n      0x20\n      add\n      0x00\n      keccak256\n        /* \"ExampleMappingStruct.sol\":901:933  balances[msg.sender].numDeposits */\n      0x01\n      add\n      0x00\n        /* \"ExampleMappingStruct.sol\":901:935  balances[msg.sender].numDeposits++ */\n      dup2\n      sload\n      dup1\n      swap3\n      swap2\n      swap1\n      tag_30\n      swap1\n      tag_31\n      jump\t// in\n    tag_30:\n      swap2\n      swap1\n      pop\n      sstore\n      pop\n        /* \"ExampleMappingStruct.sol\":651:942  {... */\n      pop\n        /* \"ExampleMappingStruct.sol\":612:942  function depositMoney() public payable {... */\n      jump\t// out\n        /* \"ExampleMappingStruct.sol\":399:442  mapping(address => Balance) public balances */\n    tag_12:\n      mstore(0x20, 0x00)\n      dup1\n      0x00\n      mstore\n      keccak256(0x00, 0x40)\n      0x00\n      swap2\n      pop\n      swap1\n      pop\n      dup1\n      0x00\n      add\n      sload\n      swap1\n      dup1\n      0x01\n      add\n      sload\n      swap1\n      dup1\n      0x03\n      add\n      sload\n      swap1\n      pop\n      dup4\n      jump\t// out\n        /* \"ExampleMappingStruct.sol\":449:606  function getDepositNum(address _from, uint _numDeposit) public view returns(Transaction memory) {... */\n    tag_19:\n        /* \"ExampleMappingStruct.sol\":525:543  Transaction memory */\n      tag_32\n      tag_33\n      jump\t// in\n    tag_32:\n        /* \"ExampleMappingStruct.sol\":562:570  balances */\n      0x00\n        /* \"ExampleMappingStruct.sol\":562:577  balances[_from] */\n      dup1\n        /* \"ExampleMappingStruct.sol\":571:576  _from */\n      dup5\n        /* \"ExampleMappingStruct.sol\":562:577  balances[_from] */\n      0xffffffffffffffffffffffffffffffffffffffff\n      and\n      0xffffffffffffffffffffffffffffffffffffffff\n      and\n      dup2\n      mstore\n      0x20\n      add\n      swap1\n      dup2\n      mstore\n      0x20\n      add\n      0x00\n      keccak256\n        /* \"ExampleMappingStruct.sol\":562:586  balances[_from].deposits */\n      0x02\n      add\n        /* \"ExampleMappingStruct.sol\":562:599  balances[_from].deposits[_numDeposit] */\n      0x00\n        /* \"ExampleMappingStruct.sol\":587:598  _numDeposit */\n      dup4\n        /* \"ExampleMappingStruct.sol\":562:599  balances[_from].deposits[_numDeposit] */\n      dup2\n      mstore\n      0x20\n      add\n      swap1\n      dup2\n      mstore\n      0x20\n      add\n      0x00\n      keccak256\n        /* \"ExampleMappingStruct.sol\":555:599  return balances[_from].deposits[_numDeposit] */\n      mload(0x40)\n      dup1\n      0x40\n      add\n      0x40\n      mstore\n      swap1\n      dup2\n      0x00\n      dup3\n      add\n      sload\n      dup2\n      mstore\n      0x20\n      add\n      0x01\n      dup3\n      add\n      sload\n      dup2\n      mstore\n      pop\n      pop\n      swap1\n      pop\n        /* \"ExampleMappingStruct.sol\":449:606  function getDepositNum(address _from, uint _numDeposit) public view returns(Transaction memory) {... */\n      swap3\n      swap2\n      pop\n      pop\n      jump\t// out\n        /* \"ExampleMappingStruct.sol\":948:1350  function withdrawMoney(address payable _to, uint256 _amount) public {... */\n    tag_26:\n        /* \"ExampleMappingStruct.sol\":1063:1070  _amount */\n      dup1\n        /* \"ExampleMappingStruct.sol\":1026:1034  balances */\n      0x00\n        /* \"ExampleMappingStruct.sol\":1026:1046  balances[msg.sender] */\n      dup1\n        /* \"ExampleMappingStruct.sol\":1035:1045  msg.sender */\n      caller\n        /* \"ExampleMappingStruct.sol\":1026:1046  balances[msg.sender] */\n      0xffffffffffffffffffffffffffffffffffffffff\n      and\n      0xffffffffffffffffffffffffffffffffffffffff\n      and\n      dup2\n      mstore\n      0x20\n      add\n      swap1\n      dup2\n      mstore\n      0x20\n      add\n      0x00\n      keccak256\n        /* \"ExampleMappingStruct.sol\":1026:1059  balances[msg.sender].totalBalance */\n      0x00\n      add\n      0x00\n        /* \"ExampleMappingStruct.sol\":1026:1070  balances[msg.sender].totalBalance -= _amount */\n      dup3\n      dup3\n      sload\n      tag_36\n      swap2\n      swap1\n      tag_37\n      jump\t// in\n    tag_36:\n      swap3\n      pop\n      pop\n      dup2\n      swap1\n      sstore\n      pop\n        /* \"ExampleMappingStruct.sol\":1081:1110  Transaction memory withdrawal */\n      0x00\n        /* \"ExampleMappingStruct.sol\":1113:1150  Transaction(_amount, block.timestamp) */\n      mload(0x40)\n      dup1\n      0x40\n      add\n      0x40\n      mstore\n      dup1\n        /* \"ExampleMappingStruct.sol\":1125:1132  _amount */\n      dup4\n        /* \"ExampleMappingStruct.sol\":1113:1150  Transaction(_amount, block.timestamp) */\n      dup2\n      mstore\n      0x20\n      add\n        /* \"ExampleMappingStruct.sol\":1134:1149  block.timestamp */\n      timestamp\n        /* \"ExampleMappingStruct.sol\":1113:1150  Transaction(_amount, block.timestamp) */\n      dup2\n      mstore\n      pop\n        /* \"ExampleMappingStruct.sol\":1081:1150  Transaction memory withdrawal = Transaction(_amount, block.timestamp) */\n      swap1\n      pop\n        /* \"ExampleMappingStruct.sol\":1254:1264  withdrawal */\n      dup1\n        /* \"ExampleMappingStruct.sol\":1160:1168  balances */\n      0x00\n        /* \"ExampleMappingStruct.sol\":1160:1180  balances[msg.sender] */\n      dup1\n        /* \"ExampleMappingStruct.sol\":1169:1179  msg.sender */\n      caller\n        /* \"ExampleMappingStruct.sol\":1160:1180  balances[msg.sender] */\n      0xffffffffffffffffffffffffffffffffffffffff\n      and\n      0xffffffffffffffffffffffffffffffffffffffff\n      and\n      dup2\n      mstore\n      0x20\n      add\n      swap1\n      dup2\n      mstore\n      0x20\n      add\n      0x00\n      keccak256\n        /* \"ExampleMappingStruct.sol\":1160:1192  balances[msg.sender].withdrawals */\n      0x04\n      add\n        /* \"ExampleMappingStruct.sol\":1160:1251  balances[msg.sender].withdrawals[... */\n      0x00\n        /* \"ExampleMappingStruct.sol\":1206:1214  balances */\n      dup1\n        /* \"ExampleMappingStruct.sol\":1206:1226  balances[msg.sender] */\n      0x00\n        /* \"ExampleMappingStruct.sol\":1215:1225  msg.sender */\n      caller\n        /* \"ExampleMappingStruct.sol\":1206:1226  balances[msg.sender] */\n      0xffffffffffffffffffffffffffffffffffffffff\n      and\n      0xffffffffffffffffffffffffffffffffffffffff\n      and\n      dup2\n      mstore\n      0x20\n      add\n      swap1\n      dup2\n      mstore\n      0x20\n      add\n      0x00\n      keccak256\n        /* \"ExampleMappingStruct.sol\":1206:1241  balances[msg.sender].numWithdrawals */\n      0x03\n      add\n      sload\n        /* \"ExampleMappingStruct.sol\":1160:1251  balances[msg.sender].withdrawals[... */\n      dup2\n      mstore\n      0x20\n      add\n      swap1\n      dup2\n      mstore\n      0x20\n      add\n      0x00\n      keccak256\n        /* \"ExampleMappingStruct.sol\":1160:1264  balances[msg.sender].withdrawals[... */\n      0x00\n      dup3\n      add\n      mload\n      dup2\n      0x00\n      add\n      sstore\n      0x20\n      dup3\n      add\n      mload\n      dup2\n      0x01\n      add\n      sstore\n      swap1\n      pop\n      pop\n        /* \"ExampleMappingStruct.sol\":1274:1282  balances */\n      0x00\n        /* \"ExampleMappingStruct.sol\":1274:1294  balances[msg.sender] */\n      dup1\n        /* \"ExampleMappingStruct.sol\":1283:1293  msg.sender */\n      caller\n        /* \"ExampleMappingStruct.sol\":1274:1294  balances[msg.sender] */\n      0xffffffffffffffffffffffffffffffffffffffff\n      and\n      0xffffffffffffffffffffffffffffffffffffffff\n      and\n      dup2\n      mstore\n      0x20\n      add\n      swap1\n      dup2\n      mstore\n      0x20\n      add\n      0x00\n      keccak256\n        /* \"ExampleMappingStruct.sol\":1274:1309  balances[msg.sender].numWithdrawals */\n      0x03\n      add\n      0x00\n        /* \"ExampleMappingStruct.sol\":1274:1311  balances[msg.sender].numWithdrawals++ */\n      dup2\n      sload\n      dup1\n      swap3\n      swap2\n      swap1\n      tag_38\n      swap1\n      tag_31\n      jump\t// in\n    tag_38:\n      swap2\n      swap1\n      pop\n      sstore\n      pop\n        /* \"ExampleMappingStruct.sol\":1322:1325  _to */\n      dup3\n        /* \"ExampleMappingStruct.sol\":1322:1334  _to.transfer */\n      0xffffffffffffffffffffffffffffffffffffffff\n      and\n        /* \"ExampleMappingStruct.sol\":1322:1343  _to.transfer(_amount) */\n      0x08fc\n        /* \"ExampleMappingStruct.sol\":1335:1342  _amount */\n      dup4\n        /* \"ExampleMappingStruct.sol\":1322:1343  _to.transfer(_amount) */\n      swap1\n      dup2\n      iszero\n      mul\n      swap1\n      mload(0x40)\n      0x00\n      mload(0x40)\n      dup1\n      dup4\n      sub\n      dup2\n      dup6\n      dup9\n      dup9\n      call\n      swap4\n      pop\n      pop\n      pop\n      pop\n      iszero\n      dup1\n      iszero\n      tag_40\n      jumpi\n      returndatasize\n      0x00\n      dup1\n      returndatacopy\n      revert(0x00, returndatasize)\n    tag_40:\n      pop\n        /* \"ExampleMappingStruct.sol\":1016:1350  {... */\n      pop\n        /* \"ExampleMappingStruct.sol\":948:1350  function withdrawMoney(address payable _to, uint256 _amount) public {... */\n      pop\n      pop\n      jump\t// out\n    tag_33:\n      mload(0x40)\n      dup1\n      0x40\n      add\n      0x40\n      mstore\n      dup1\n      0x00\n      dup2\n      mstore\n      0x20\n      add\n      0x00\n      dup2\n      mstore\n      pop\n      swap1\n      jump\t// out\n        /* \"#utility.yul\":88:205   */\n    tag_42:\n        /* \"#utility.yul\":197:198   */\n      0x00\n        /* \"#utility.yul\":194:195   */\n      dup1\n        /* \"#utility.yul\":187:199   */\n      revert\n        /* \"#utility.yul\":334:460   */\n    tag_44:\n        /* \"#utility.yul\":371:378   */\n      0x00\n        /* \"#utility.yul\":411:453   */\n      0xffffffffffffffffffffffffffffffffffffffff\n        /* \"#utility.yul\":404:409   */\n      dup3\n        /* \"#utility.yul\":400:454   */\n      and\n        /* \"#utility.yul\":389:454   */\n      swap1\n      pop\n        /* \"#utility.yul\":334:460   */\n      swap2\n      swap1\n      pop\n      jump\t// out\n        /* \"#utility.yul\":466:562   */\n    tag_45:\n        /* \"#utility.yul\":503:510   */\n      0x00\n        /* \"#utility.yul\":532:556   */\n      tag_64\n        /* \"#utility.yul\":550:555   */\n      dup3\n        /* \"#utility.yul\":532:556   */\n      tag_44\n      jump\t// in\n    tag_64:\n        /* \"#utility.yul\":521:556   */\n      swap1\n      pop\n        /* \"#utility.yul\":466:562   */\n      swap2\n      swap1\n      pop\n      jump\t// out\n        /* \"#utility.yul\":568:690   */\n    tag_46:\n        /* \"#utility.yul\":641:665   */\n      tag_66\n        /* \"#utility.yul\":659:664   */\n      dup2\n        /* \"#utility.yul\":641:665   */\n      tag_45\n      jump\t// in\n    tag_66:\n        /* \"#utility.yul\":634:639   */\n      dup2\n        /* \"#utility.yul\":631:666   */\n      eq\n        /* \"#utility.yul\":621:684   */\n      tag_67\n      jumpi\n        /* \"#utility.yul\":680:681   */\n      0x00\n        /* \"#utility.yul\":677:678   */\n      dup1\n        /* \"#utility.yul\":670:682   */\n      revert\n        /* \"#utility.yul\":621:684   */\n    tag_67:\n        /* \"#utility.yul\":568:690   */\n      pop\n      jump\t// out\n        /* \"#utility.yul\":696:835   */\n    tag_47:\n        /* \"#utility.yul\":742:747   */\n      0x00\n        /* \"#utility.yul\":780:786   */\n      dup2\n        /* \"#utility.yul\":767:787   */\n      calldataload\n        /* \"#utility.yul\":758:787   */\n      swap1\n      pop\n        /* \"#utility.yul\":796:829   */\n      tag_69\n        /* \"#utility.yul\":823:828   */\n      dup2\n        /* \"#utility.yul\":796:829   */\n      tag_46\n      jump\t// in\n    tag_69:\n        /* \"#utility.yul\":696:835   */\n      swap3\n      swap2\n      pop\n      pop\n      jump\t// out\n        /* \"#utility.yul\":841:1170   */\n    tag_11:\n        /* \"#utility.yul\":900:906   */\n      0x00\n        /* \"#utility.yul\":949:951   */\n      0x20\n        /* \"#utility.yul\":937:946   */\n      dup3\n        /* \"#utility.yul\":928:935   */\n      dup5\n        /* \"#utility.yul\":924:947   */\n      sub\n        /* \"#utility.yul\":920:952   */\n      slt\n        /* \"#utility.yul\":917:1036   */\n      iszero\n      tag_71\n      jumpi\n        /* \"#utility.yul\":955:1034   */\n      tag_72\n      tag_42\n      jump\t// in\n    tag_72:\n        /* \"#utility.yul\":917:1036   */\n    tag_71:\n        /* \"#utility.yul\":1075:1076   */\n      0x00\n        /* \"#utility.yul\":1100:1153   */\n      tag_73\n        /* \"#utility.yul\":1145:1152   */\n      dup5\n        /* \"#utility.yul\":1136:1142   */\n      dup3\n        /* \"#utility.yul\":1125:1134   */\n      dup6\n        /* \"#utility.yul\":1121:1143   */\n      add\n        /* \"#utility.yul\":1100:1153   */\n      tag_47\n      jump\t// in\n    tag_73:\n        /* \"#utility.yul\":1090:1153   */\n      swap2\n      pop\n        /* \"#utility.yul\":1046:1163   */\n      pop\n        /* \"#utility.yul\":841:1170   */\n      swap3\n      swap2\n      pop\n      pop\n      jump\t// out\n        /* \"#utility.yul\":1176:1253   */\n    tag_48:\n        /* \"#utility.yul\":1213:1220   */\n      0x00\n        /* \"#utility.yul\":1242:1247   */\n      dup2\n        /* \"#utility.yul\":1231:1247   */\n      swap1\n      pop\n        /* \"#utility.yul\":1176:1253   */\n      swap2\n      swap1\n      pop\n      jump\t// out\n        /* \"#utility.yul\":1259:1377   */\n    tag_49:\n        /* \"#utility.yul\":1346:1370   */\n      tag_76\n        /* \"#utility.yul\":1364:1369   */\n      dup2\n        /* \"#utility.yul\":1346:1370   */\n      tag_48\n      jump\t// in\n    tag_76:\n        /* \"#utility.yul\":1341:1344   */\n      dup3\n        /* \"#utility.yul\":1334:1371   */\n      mstore\n        /* \"#utility.yul\":1259:1377   */\n      pop\n      pop\n      jump\t// out\n        /* \"#utility.yul\":1383:1825   */\n    tag_14:\n        /* \"#utility.yul\":1532:1536   */\n      0x00\n        /* \"#utility.yul\":1570:1572   */\n      0x60\n        /* \"#utility.yul\":1559:1568   */\n      dup3\n        /* \"#utility.yul\":1555:1573   */\n      add\n        /* \"#utility.yul\":1547:1573   */\n      swap1\n      pop\n        /* \"#utility.yul\":1583:1654   */\n      tag_78\n        /* \"#utility.yul\":1651:1652   */\n      0x00\n        /* \"#utility.yul\":1640:1649   */\n      dup4\n        /* \"#utility.yul\":1636:1653   */\n      add\n        /* \"#utility.yul\":1627:1633   */\n      dup7\n        /* \"#utility.yul\":1583:1654   */\n      tag_49\n      jump\t// in\n    tag_78:\n        /* \"#utility.yul\":1664:1736   */\n      tag_79\n        /* \"#utility.yul\":1732:1734   */\n      0x20\n        /* \"#utility.yul\":1721:1730   */\n      dup4\n        /* \"#utility.yul\":1717:1735   */\n      add\n        /* \"#utility.yul\":1708:1714   */\n      dup6\n        /* \"#utility.yul\":1664:1736   */\n      tag_49\n      jump\t// in\n    tag_79:\n        /* \"#utility.yul\":1746:1818   */\n      tag_80\n        /* \"#utility.yul\":1814:1816   */\n      0x40\n        /* \"#utility.yul\":1803:1812   */\n      dup4\n        /* \"#utility.yul\":1799:1817   */\n      add\n        /* \"#utility.yul\":1790:1796   */\n      dup5\n        /* \"#utility.yul\":1746:1818   */\n      tag_49\n      jump\t// in\n    tag_80:\n        /* \"#utility.yul\":1383:1825   */\n      swap5\n      swap4\n      pop\n      pop\n      pop\n      pop\n      jump\t// out\n        /* \"#utility.yul\":1831:1953   */\n    tag_50:\n        /* \"#utility.yul\":1904:1928   */\n      tag_82\n        /* \"#utility.yul\":1922:1927   */\n      dup2\n        /* \"#utility.yul\":1904:1928   */\n      tag_48\n      jump\t// in\n    tag_82:\n        /* \"#utility.yul\":1897:1902   */\n      dup2\n        /* \"#utility.yul\":1894:1929   */\n      eq\n        /* \"#utility.yul\":1884:1947   */\n      tag_83\n      jumpi\n        /* \"#utility.yul\":1943:1944   */\n      0x00\n        /* \"#utility.yul\":1940:1941   */\n      dup1\n        /* \"#utility.yul\":1933:1945   */\n      revert\n        /* \"#utility.yul\":1884:1947   */\n    tag_83:\n        /* \"#utility.yul\":1831:1953   */\n      pop\n      jump\t// out\n        /* \"#utility.yul\":1959:2098   */\n    tag_51:\n        /* \"#utility.yul\":2005:2010   */\n      0x00\n        /* \"#utility.yul\":2043:2049   */\n      dup2\n        /* \"#utility.yul\":2030:2050   */\n      calldataload\n        /* \"#utility.yul\":2021:2050   */\n      swap1\n      pop\n        /* \"#utility.yul\":2059:2092   */\n      tag_85\n        /* \"#utility.yul\":2086:2091   */\n      dup2\n        /* \"#utility.yul\":2059:2092   */\n      tag_50\n      jump\t// in\n    tag_85:\n        /* \"#utility.yul\":1959:2098   */\n      swap3\n      swap2\n      pop\n      pop\n      jump\t// out\n        /* \"#utility.yul\":2104:2578   */\n    tag_18:\n        /* \"#utility.yul\":2172:2178   */\n      0x00\n        /* \"#utility.yul\":2180:2186   */\n      dup1\n        /* \"#utility.yul\":2229:2231   */\n      0x40\n        /* \"#utility.yul\":2217:2226   */\n      dup4\n        /* \"#utility.yul\":2208:2215   */\n      dup6\n        /* \"#utility.yul\":2204:2227   */\n      sub\n        /* \"#utility.yul\":2200:2232   */\n      slt\n        /* \"#utility.yul\":2197:2316   */\n      iszero\n      tag_87\n      jumpi\n        /* \"#utility.yul\":2235:2314   */\n      tag_88\n      tag_42\n      jump\t// in\n    tag_88:\n        /* \"#utility.yul\":2197:2316   */\n    tag_87:\n        /* \"#utility.yul\":2355:2356   */\n      0x00\n        /* \"#utility.yul\":2380:2433   */\n      tag_89\n        /* \"#utility.yul\":2425:2432   */\n      dup6\n        /* \"#utility.yul\":2416:2422   */\n      dup3\n        /* \"#utility.yul\":2405:2414   */\n      dup7\n        /* \"#utility.yul\":2401:2423   */\n      add\n        /* \"#utility.yul\":2380:2433   */\n      tag_47\n      jump\t// in\n    tag_89:\n        /* \"#utility.yul\":2370:2433   */\n      swap3\n      pop\n        /* \"#utility.yul\":2326:2443   */\n      pop\n        /* \"#utility.yul\":2482:2484   */\n      0x20\n        /* \"#utility.yul\":2508:2561   */\n      tag_90\n        /* \"#utility.yul\":2553:2560   */\n      dup6\n        /* \"#utility.yul\":2544:2550   */\n      dup3\n        /* \"#utility.yul\":2533:2542   */\n      dup7\n        /* \"#utility.yul\":2529:2551   */\n      add\n        /* \"#utility.yul\":2508:2561   */\n      tag_51\n      jump\t// in\n    tag_90:\n        /* \"#utility.yul\":2498:2561   */\n      swap2\n      pop\n        /* \"#utility.yul\":2453:2571   */\n      pop\n        /* \"#utility.yul\":2104:2578   */\n      swap3\n      pop\n      swap3\n      swap1\n      pop\n      jump\t// out\n        /* \"#utility.yul\":2584:2692   */\n    tag_52:\n        /* \"#utility.yul\":2661:2685   */\n      tag_92\n        /* \"#utility.yul\":2679:2684   */\n      dup2\n        /* \"#utility.yul\":2661:2685   */\n      tag_48\n      jump\t// in\n    tag_92:\n        /* \"#utility.yul\":2656:2659   */\n      dup3\n        /* \"#utility.yul\":2649:2686   */\n      mstore\n        /* \"#utility.yul\":2584:2692   */\n      pop\n      pop\n      jump\t// out\n        /* \"#utility.yul\":2788:3304   */\n    tag_53:\n        /* \"#utility.yul\":2937:2941   */\n      0x40\n        /* \"#utility.yul\":2932:2935   */\n      dup3\n        /* \"#utility.yul\":2928:2942   */\n      add\n        /* \"#utility.yul\":3026:3030   */\n      0x00\n        /* \"#utility.yul\":3019:3024   */\n      dup3\n        /* \"#utility.yul\":3015:3031   */\n      add\n        /* \"#utility.yul\":3009:3032   */\n      mload\n        /* \"#utility.yul\":3045:3108   */\n      tag_94\n        /* \"#utility.yul\":3102:3106   */\n      0x00\n        /* \"#utility.yul\":3097:3100   */\n      dup6\n        /* \"#utility.yul\":3093:3107   */\n      add\n        /* \"#utility.yul\":3079:3091   */\n      dup3\n        /* \"#utility.yul\":3045:3108   */\n      tag_52\n      jump\t// in\n    tag_94:\n        /* \"#utility.yul\":2952:3118   */\n      pop\n        /* \"#utility.yul\":3205:3209   */\n      0x20\n        /* \"#utility.yul\":3198:3203   */\n      dup3\n        /* \"#utility.yul\":3194:3210   */\n      add\n        /* \"#utility.yul\":3188:3211   */\n      mload\n        /* \"#utility.yul\":3224:3287   */\n      tag_95\n        /* \"#utility.yul\":3281:3285   */\n      0x20\n        /* \"#utility.yul\":3276:3279   */\n      dup6\n        /* \"#utility.yul\":3272:3286   */\n      add\n        /* \"#utility.yul\":3258:3270   */\n      dup3\n        /* \"#utility.yul\":3224:3287   */\n      tag_52\n      jump\t// in\n    tag_95:\n        /* \"#utility.yul\":3128:3297   */\n      pop\n        /* \"#utility.yul\":2906:3304   */\n      pop\n        /* \"#utility.yul\":2788:3304   */\n      pop\n      pop\n      jump\t// out\n        /* \"#utility.yul\":3310:3636   */\n    tag_21:\n        /* \"#utility.yul\":3455:3459   */\n      0x00\n        /* \"#utility.yul\":3493:3495   */\n      0x40\n        /* \"#utility.yul\":3482:3491   */\n      dup3\n        /* \"#utility.yul\":3478:3496   */\n      add\n        /* \"#utility.yul\":3470:3496   */\n      swap1\n      pop\n        /* \"#utility.yul\":3506:3629   */\n      tag_97\n        /* \"#utility.yul\":3626:3627   */\n      0x00\n        /* \"#utility.yul\":3615:3624   */\n      dup4\n        /* \"#utility.yul\":3611:3628   */\n      add\n        /* \"#utility.yul\":3602:3608   */\n      dup5\n        /* \"#utility.yul\":3506:3629   */\n      tag_53\n      jump\t// in\n    tag_97:\n        /* \"#utility.yul\":3310:3636   */\n      swap3\n      swap2\n      pop\n      pop\n      jump\t// out\n        /* \"#utility.yul\":3642:3746   */\n    tag_54:\n        /* \"#utility.yul\":3687:3694   */\n      0x00\n        /* \"#utility.yul\":3716:3740   */\n      tag_99\n        /* \"#utility.yul\":3734:3739   */\n      dup3\n        /* \"#utility.yul\":3716:3740   */\n      tag_44\n      jump\t// in\n    tag_99:\n        /* \"#utility.yul\":3705:3740   */\n      swap1\n      pop\n        /* \"#utility.yul\":3642:3746   */\n      swap2\n      swap1\n      pop\n      jump\t// out\n        /* \"#utility.yul\":3752:3890   */\n    tag_55:\n        /* \"#utility.yul\":3833:3865   */\n      tag_101\n        /* \"#utility.yul\":3859:3864   */\n      dup2\n        /* \"#utility.yul\":3833:3865   */\n      tag_54\n      jump\t// in\n    tag_101:\n        /* \"#utility.yul\":3826:3831   */\n      dup2\n        /* \"#utility.yul\":3823:3866   */\n      eq\n        /* \"#utility.yul\":3813:3884   */\n      tag_102\n      jumpi\n        /* \"#utility.yul\":3880:3881   */\n      0x00\n        /* \"#utility.yul\":3877:3878   */\n      dup1\n        /* \"#utility.yul\":3870:3882   */\n      revert\n        /* \"#utility.yul\":3813:3884   */\n    tag_102:\n        /* \"#utility.yul\":3752:3890   */\n      pop\n      jump\t// out\n        /* \"#utility.yul\":3896:4051   */\n    tag_56:\n        /* \"#utility.yul\":3950:3955   */\n      0x00\n        /* \"#utility.yul\":3988:3994   */\n      dup2\n        /* \"#utility.yul\":3975:3995   */\n      calldataload\n        /* \"#utility.yul\":3966:3995   */\n      swap1\n      pop\n        /* \"#utility.yul\":4004:4045   */\n      tag_104\n        /* \"#utility.yul\":4039:4044   */\n      dup2\n        /* \"#utility.yul\":4004:4045   */\n      tag_55\n      jump\t// in\n    tag_104:\n        /* \"#utility.yul\":3896:4051   */\n      swap3\n      swap2\n      pop\n      pop\n      jump\t// out\n        /* \"#utility.yul\":4057:4547   */\n    tag_25:\n        /* \"#utility.yul\":4133:4139   */\n      0x00\n        /* \"#utility.yul\":4141:4147   */\n      dup1\n        /* \"#utility.yul\":4190:4192   */\n      0x40\n        /* \"#utility.yul\":4178:4187   */\n      dup4\n        /* \"#utility.yul\":4169:4176   */\n      dup6\n        /* \"#utility.yul\":4165:4188   */\n      sub\n        /* \"#utility.yul\":4161:4193   */\n      slt\n        /* \"#utility.yul\":4158:4277   */\n      iszero\n      tag_106\n      jumpi\n        /* \"#utility.yul\":4196:4275   */\n      tag_107\n      tag_42\n      jump\t// in\n    tag_107:\n        /* \"#utility.yul\":4158:4277   */\n    tag_106:\n        /* \"#utility.yul\":4316:4317   */\n      0x00\n        /* \"#utility.yul\":4341:4402   */\n      tag_108\n        /* \"#utility.yul\":4394:4401   */\n      dup6\n        /* \"#utility.yul\":4385:4391   */\n      dup3\n        /* \"#utility.yul\":4374:4383   */\n      dup7\n        /* \"#utility.yul\":4370:4392   */\n      add\n        /* \"#utility.yul\":4341:4402   */\n      tag_56\n      jump\t// in\n    tag_108:\n        /* \"#utility.yul\":4331:4402   */\n      swap3\n      pop\n        /* \"#utility.yul\":4287:4412   */\n      pop\n        /* \"#utility.yul\":4451:4453   */\n      0x20\n        /* \"#utility.yul\":4477:4530   */\n      tag_109\n        /* \"#utility.yul\":4522:4529   */\n      dup6\n        /* \"#utility.yul\":4513:4519   */\n      dup3\n        /* \"#utility.yul\":4502:4511   */\n      dup7\n        /* \"#utility.yul\":4498:4520   */\n      add\n        /* \"#utility.yul\":4477:4530   */\n      tag_51\n      jump\t// in\n    tag_109:\n        /* \"#utility.yul\":4467:4530   */\n      swap2\n      pop\n        /* \"#utility.yul\":4422:4540   */\n      pop\n        /* \"#utility.yul\":4057:4547   */\n      swap3\n      pop\n      swap3\n      swap1\n      pop\n      jump\t// out\n        /* \"#utility.yul\":4553:4733   */\n    tag_57:\n        /* \"#utility.yul\":4601:4678   */\n      0x4e487b7100000000000000000000000000000000000000000000000000000000\n        /* \"#utility.yul\":4598:4599   */\n      0x00\n        /* \"#utility.yul\":4591:4679   */\n      mstore\n        /* \"#utility.yul\":4698:4702   */\n      0x11\n        /* \"#utility.yul\":4695:4696   */\n      0x04\n        /* \"#utility.yul\":4688:4703   */\n      mstore\n        /* \"#utility.yul\":4722:4726   */\n      0x24\n        /* \"#utility.yul\":4719:4720   */\n      0x00\n        /* \"#utility.yul\":4712:4727   */\n      revert\n        /* \"#utility.yul\":4739:4930   */\n    tag_29:\n        /* \"#utility.yul\":4779:4782   */\n      0x00\n        /* \"#utility.yul\":4798:4818   */\n      tag_112\n        /* \"#utility.yul\":4816:4817   */\n      dup3\n        /* \"#utility.yul\":4798:4818   */\n      tag_48\n      jump\t// in\n    tag_112:\n        /* \"#utility.yul\":4793:4818   */\n      swap2\n      pop\n        /* \"#utility.yul\":4832:4852   */\n      tag_113\n        /* \"#utility.yul\":4850:4851   */\n      dup4\n        /* \"#utility.yul\":4832:4852   */\n      tag_48\n      jump\t// in\n    tag_113:\n        /* \"#utility.yul\":4827:4852   */\n      swap3\n      pop\n        /* \"#utility.yul\":4875:4876   */\n      dup3\n        /* \"#utility.yul\":4872:4873   */\n      dup3\n        /* \"#utility.yul\":4868:4877   */\n      add\n        /* \"#utility.yul\":4861:4877   */\n      swap1\n      pop\n        /* \"#utility.yul\":4896:4899   */\n      dup1\n        /* \"#utility.yul\":4893:4894   */\n      dup3\n        /* \"#utility.yul\":4890:4900   */\n      gt\n        /* \"#utility.yul\":4887:4923   */\n      iszero\n      tag_114\n      jumpi\n        /* \"#utility.yul\":4903:4921   */\n      tag_115\n      tag_57\n      jump\t// in\n    tag_115:\n        /* \"#utility.yul\":4887:4923   */\n    tag_114:\n        /* \"#utility.yul\":4739:4930   */\n      swap3\n      swap2\n      pop\n      pop\n      jump\t// out\n        /* \"#utility.yul\":4936:5169   */\n    tag_31:\n        /* \"#utility.yul\":4975:4978   */\n      0x00\n        /* \"#utility.yul\":4998:5022   */\n      tag_117\n        /* \"#utility.yul\":5016:5021   */\n      dup3\n        /* \"#utility.yul\":4998:5022   */\n      tag_48\n      jump\t// in\n    tag_117:\n        /* \"#utility.yul\":4989:5022   */\n      swap2\n      pop\n        /* \"#utility.yul\":5044:5110   */\n      0xffffffffffffffffffffffffffffffffffffffffffffffffffffffffffffffff\n        /* \"#utility.yul\":5037:5042   */\n      dup3\n        /* \"#utility.yul\":5034:5111   */\n      sub\n        /* \"#utility.yul\":5031:5134   */\n      tag_118\n      jumpi\n        /* \"#utility.yul\":5114:5132   */\n      tag_119\n      tag_57\n      jump\t// in\n    tag_119:\n        /* \"#utility.yul\":5031:5134   */\n    tag_118:\n        /* \"#utility.yul\":5161:5162   */\n      0x01\n        /* \"#utility.yul\":5154:5159   */\n      dup3\n        /* \"#utility.yul\":5150:5163   */\n      add\n        /* \"#utility.yul\":5143:5163   */\n      swap1\n      pop\n        /* \"#utility.yul\":4936:5169   */\n      swap2\n      swap1\n      pop\n      jump\t// out\n        /* \"#utility.yul\":5175:5369   */\n    tag_37:\n        /* \"#utility.yul\":5215:5219   */\n      0x00\n        /* \"#utility.yul\":5235:5255   */\n      tag_121\n        /* \"#utility.yul\":5253:5254   */\n      dup3\n        /* \"#utility.yul\":5235:5255   */\n      tag_48\n      jump\t// in\n    tag_121:\n        /* \"#utility.yul\":5230:5255   */\n      swap2\n      pop\n        /* \"#utility.yul\":5269:5289   */\n      tag_122\n        /* \"#utility.yul\":5287:5288   */\n      dup4\n        /* \"#utility.yul\":5269:5289   */\n      tag_48\n      jump\t// in\n    tag_122:\n        /* \"#utility.yul\":5264:5289   */\n      swap3\n      pop\n        /* \"#utility.yul\":5313:5314   */\n      dup3\n        /* \"#utility.yul\":5310:5311   */\n      dup3\n        /* \"#utility.yul\":5306:5315   */\n      sub\n        /* \"#utility.yul\":5298:5315   */\n      swap1\n      pop\n        /* \"#utility.yul\":5337:5338   */\n      dup2\n        /* \"#utility.yul\":5331:5335   */\n      dup2\n        /* \"#utility.yul\":5328:5339   */\n      gt\n        /* \"#utility.yul\":5325:5362   */\n      iszero\n      tag_123\n      jumpi\n        /* \"#utility.yul\":5342:5360   */\n      tag_124\n      tag_57\n      jump\t// in\n    tag_124:\n        /* \"#utility.yul\":5325:5362   */\n    tag_123:\n        /* \"#utility.yul\":5175:5369   */\n      swap3\n      swap2\n      pop\n      pop\n      jump\t// out\n\n    auxdata: 0xa2646970667358221220bbc2f75e91a8e11676371194b540da2ef78657f4a8158a2f63a8b3c2f3fde8b064736f6c63430008110033\n}\n",
				"bytecode": {
					"linkReferences": {},
					"object": "608060405234801561001057600080fd5b50610825806100206000396000f3fe60806040526004361061003f5760003560e01c806316c05aa21461004457806327e235e31461004e57806355e14fe61461008d578063f274c897146100ca575b600080fd5b61004c6100f3565b005b34801561005a57600080fd5b5061007560048036038101906100709190610550565b610269565b60405161008493929190610596565b60405180910390f35b34801561009957600080fd5b506100b460048036038101906100af91906105f9565b610293565b6040516100c19190610677565b60405180910390f35b3480156100d657600080fd5b506100f160048036038101906100ec91906106d0565b610314565b005b346000803373ffffffffffffffffffffffffffffffffffffffff1673ffffffffffffffffffffffffffffffffffffffff1681526020019081526020016000206000016000828254610144919061073f565b9250508190555060006040518060400160405280348152602001428152509050806000803373ffffffffffffffffffffffffffffffffffffffff1673ffffffffffffffffffffffffffffffffffffffff16815260200190815260200160002060020160008060003373ffffffffffffffffffffffffffffffffffffffff1673ffffffffffffffffffffffffffffffffffffffff16815260200190815260200160002060010154815260200190815260200160002060008201518160000155602082015181600101559050506000803373ffffffffffffffffffffffffffffffffffffffff1673ffffffffffffffffffffffffffffffffffffffff168152602001908152602001600020600101600081548092919061026190610773565b919050555050565b60006020528060005260406000206000915090508060000154908060010154908060030154905083565b61029b6104d3565b6000808473ffffffffffffffffffffffffffffffffffffffff1673ffffffffffffffffffffffffffffffffffffffff168152602001908152602001600020600201600083815260200190815260200160002060405180604001604052908160008201548152602001600182015481525050905092915050565b806000803373ffffffffffffffffffffffffffffffffffffffff1673ffffffffffffffffffffffffffffffffffffffff168152602001908152602001600020600001600082825461036591906107bb565b9250508190555060006040518060400160405280838152602001428152509050806000803373ffffffffffffffffffffffffffffffffffffffff1673ffffffffffffffffffffffffffffffffffffffff16815260200190815260200160002060040160008060003373ffffffffffffffffffffffffffffffffffffffff1673ffffffffffffffffffffffffffffffffffffffff16815260200190815260200160002060030154815260200190815260200160002060008201518160000155602082015181600101559050506000803373ffffffffffffffffffffffffffffffffffffffff1673ffffffffffffffffffffffffffffffffffffffff168152602001908152602001600020600301600081548092919061048290610773565b91905055508273ffffffffffffffffffffffffffffffffffffffff166108fc839081150290604051600060405180830381858888f193505050501580156104cd573d6000803e3d6000fd5b50505050565b604051806040016040528060008152602001600081525090565b600080fd5b600073ffffffffffffffffffffffffffffffffffffffff82169050919050565b600061051d826104f2565b9050919050565b61052d81610512565b811461053857600080fd5b50565b60008135905061054a81610524565b92915050565b600060208284031215610566576105656104ed565b5b60006105748482850161053b565b91505092915050565b6000819050919050565b6105908161057d565b82525050565b60006060820190506105ab6000830186610587565b6105b86020830185610587565b6105c56040830184610587565b949350505050565b6105d68161057d565b81146105e157600080fd5b50565b6000813590506105f3816105cd565b92915050565b600080604083850312156106105761060f6104ed565b5b600061061e8582860161053b565b925050602061062f858286016105e4565b9150509250929050565b6106428161057d565b82525050565b60408201600082015161065e6000850182610639565b5060208201516106716020850182610639565b50505050565b600060408201905061068c6000830184610648565b92915050565b600061069d826104f2565b9050919050565b6106ad81610692565b81146106b857600080fd5b50565b6000813590506106ca816106a4565b92915050565b600080604083850312156106e7576106e66104ed565b5b60006106f5858286016106bb565b9250506020610706858286016105e4565b9150509250929050565b7f4e487b7100000000000000000000000000000000000000000000000000000000600052601160045260246000fd5b600061074a8261057d565b91506107558361057d565b925082820190508082111561076d5761076c610710565b5b92915050565b600061077e8261057d565b91507fffffffffffffffffffffffffffffffffffffffffffffffffffffffffffffffff82036107b0576107af610710565b5b600182019050919050565b60006107c68261057d565b91506107d18361057d565b92508282039050818111156107e9576107e8610710565b5b9291505056fea2646970667358221220bbc2f75e91a8e11676371194b540da2ef78657f4a8158a2f63a8b3c2f3fde8b064736f6c63430008110033",
					"opcodes": "PUSH1 0x80 PUSH1 0x40 MSTORE CALLVALUE DUP1 ISZERO PUSH2 0x10 JUMPI PUSH1 0x0 DUP1 REVERT JUMPDEST POP PUSH2 0x825 DUP1 PUSH2 0x20 PUSH1 0x0 CODECOPY PUSH1 0x0 RETURN INVALID PUSH1 0x80 PUSH1 0x40 MSTORE PUSH1 0x4 CALLDATASIZE LT PUSH2 0x3F JUMPI PUSH1 0x0 CALLDATALOAD PUSH1 0xE0 SHR DUP1 PUSH4 0x16C05AA2 EQ PUSH2 0x44 JUMPI DUP1 PUSH4 0x27E235E3 EQ PUSH2 0x4E JUMPI DUP1 PUSH4 0x55E14FE6 EQ PUSH2 0x8D JUMPI DUP1 PUSH4 0xF274C897 EQ PUSH2 0xCA JUMPI JUMPDEST PUSH1 0x0 DUP1 REVERT JUMPDEST PUSH2 0x4C PUSH2 0xF3 JUMP JUMPDEST STOP JUMPDEST CALLVALUE DUP1 ISZERO PUSH2 0x5A JUMPI PUSH1 0x0 DUP1 REVERT JUMPDEST POP PUSH2 0x75 PUSH1 0x4 DUP1 CALLDATASIZE SUB DUP2 ADD SWAP1 PUSH2 0x70 SWAP2 SWAP1 PUSH2 0x550 JUMP JUMPDEST PUSH2 0x269 JUMP JUMPDEST PUSH1 0x40 MLOAD PUSH2 0x84 SWAP4 SWAP3 SWAP2 SWAP1 PUSH2 0x596 JUMP JUMPDEST PUSH1 0x40 MLOAD DUP1 SWAP2 SUB SWAP1 RETURN JUMPDEST CALLVALUE DUP1 ISZERO PUSH2 0x99 JUMPI PUSH1 0x0 DUP1 REVERT JUMPDEST POP PUSH2 0xB4 PUSH1 0x4 DUP1 CALLDATASIZE SUB DUP2 ADD SWAP1 PUSH2 0xAF SWAP2 SWAP1 PUSH2 0x5F9 JUMP JUMPDEST PUSH2 0x293 JUMP JUMPDEST PUSH1 0x40 MLOAD PUSH2 0xC1 SWAP2 SWAP1 PUSH2 0x677 JUMP JUMPDEST PUSH1 0x40 MLOAD DUP1 SWAP2 SUB SWAP1 RETURN JUMPDEST CALLVALUE DUP1 ISZERO PUSH2 0xD6 JUMPI PUSH1 0x0 DUP1 REVERT JUMPDEST POP PUSH2 0xF1 PUSH1 0x4 DUP1 CALLDATASIZE SUB DUP2 ADD SWAP1 PUSH2 0xEC SWAP2 SWAP1 PUSH2 0x6D0 JUMP JUMPDEST PUSH2 0x314 JUMP JUMPDEST STOP JUMPDEST CALLVALUE PUSH1 0x0 DUP1 CALLER PUSH20 0xFFFFFFFFFFFFFFFFFFFFFFFFFFFFFFFFFFFFFFFF AND PUSH20 0xFFFFFFFFFFFFFFFFFFFFFFFFFFFFFFFFFFFFFFFF AND DUP2 MSTORE PUSH1 0x20 ADD SWAP1 DUP2 MSTORE PUSH1 0x20 ADD PUSH1 0x0 KECCAK256 PUSH1 0x0 ADD PUSH1 0x0 DUP3 DUP3 SLOAD PUSH2 0x144 SWAP2 SWAP1 PUSH2 0x73F JUMP JUMPDEST SWAP3 POP POP DUP2 SWAP1 SSTORE POP PUSH1 0x0 PUSH1 0x40 MLOAD DUP1 PUSH1 0x40 ADD PUSH1 0x40 MSTORE DUP1 CALLVALUE DUP2 MSTORE PUSH1 0x20 ADD TIMESTAMP DUP2 MSTORE POP SWAP1 POP DUP1 PUSH1 0x0 DUP1 CALLER PUSH20 0xFFFFFFFFFFFFFFFFFFFFFFFFFFFFFFFFFFFFFFFF AND PUSH20 0xFFFFFFFFFFFFFFFFFFFFFFFFFFFFFFFFFFFFFFFF AND DUP2 MSTORE PUSH1 0x20 ADD SWAP1 DUP2 MSTORE PUSH1 0x20 ADD PUSH1 0x0 KECCAK256 PUSH1 0x2 ADD PUSH1 0x0 DUP1 PUSH1 0x0 CALLER PUSH20 0xFFFFFFFFFFFFFFFFFFFFFFFFFFFFFFFFFFFFFFFF AND PUSH20 0xFFFFFFFFFFFFFFFFFFFFFFFFFFFFFFFFFFFFFFFF AND DUP2 MSTORE PUSH1 0x20 ADD SWAP1 DUP2 MSTORE PUSH1 0x20 ADD PUSH1 0x0 KECCAK256 PUSH1 0x1 ADD SLOAD DUP2 MSTORE PUSH1 0x20 ADD SWAP1 DUP2 MSTORE PUSH1 0x20 ADD PUSH1 0x0 KECCAK256 PUSH1 0x0 DUP3 ADD MLOAD DUP2 PUSH1 0x0 ADD SSTORE PUSH1 0x20 DUP3 ADD MLOAD DUP2 PUSH1 0x1 ADD SSTORE SWAP1 POP POP PUSH1 0x0 DUP1 CALLER PUSH20 0xFFFFFFFFFFFFFFFFFFFFFFFFFFFFFFFFFFFFFFFF AND PUSH20 0xFFFFFFFFFFFFFFFFFFFFFFFFFFFFFFFFFFFFFFFF AND DUP2 MSTORE PUSH1 0x20 ADD SWAP1 DUP2 MSTORE PUSH1 0x20 ADD PUSH1 0x0 KECCAK256 PUSH1 0x1 ADD PUSH1 0x0 DUP2 SLOAD DUP1 SWAP3 SWAP2 SWAP1 PUSH2 0x261 SWAP1 PUSH2 0x773 JUMP JUMPDEST SWAP2 SWAP1 POP SSTORE POP POP JUMP JUMPDEST PUSH1 0x0 PUSH1 0x20 MSTORE DUP1 PUSH1 0x0 MSTORE PUSH1 0x40 PUSH1 0x0 KECCAK256 PUSH1 0x0 SWAP2 POP SWAP1 POP DUP1 PUSH1 0x0 ADD SLOAD SWAP1 DUP1 PUSH1 0x1 ADD SLOAD SWAP1 DUP1 PUSH1 0x3 ADD SLOAD SWAP1 POP DUP4 JUMP JUMPDEST PUSH2 0x29B PUSH2 0x4D3 JUMP JUMPDEST PUSH1 0x0 DUP1 DUP5 PUSH20 0xFFFFFFFFFFFFFFFFFFFFFFFFFFFFFFFFFFFFFFFF AND PUSH20 0xFFFFFFFFFFFFFFFFFFFFFFFFFFFFFFFFFFFFFFFF AND DUP2 MSTORE PUSH1 0x20 ADD SWAP1 DUP2 MSTORE PUSH1 0x20 ADD PUSH1 0x0 KECCAK256 PUSH1 0x2 ADD PUSH1 0x0 DUP4 DUP2 MSTORE PUSH1 0x20 ADD SWAP1 DUP2 MSTORE PUSH1 0x20 ADD PUSH1 0x0 KECCAK256 PUSH1 0x40 MLOAD DUP1 PUSH1 0x40 ADD PUSH1 0x40 MSTORE SWAP1 DUP2 PUSH1 0x0 DUP3 ADD SLOAD DUP2 MSTORE PUSH1 0x20 ADD PUSH1 0x1 DUP3 ADD SLOAD DUP2 MSTORE POP POP SWAP1 POP SWAP3 SWAP2 POP POP JUMP JUMPDEST DUP1 PUSH1 0x0 DUP1 CALLER PUSH20 0xFFFFFFFFFFFFFFFFFFFFFFFFFFFFFFFFFFFFFFFF AND PUSH20 0xFFFFFFFFFFFFFFFFFFFFFFFFFFFFFFFFFFFFFFFF AND DUP2 MSTORE PUSH1 0x20 ADD SWAP1 DUP2 MSTORE PUSH1 0x20 ADD PUSH1 0x0 KECCAK256 PUSH1 0x0 ADD PUSH1 0x0 DUP3 DUP3 SLOAD PUSH2 0x365 SWAP2 SWAP1 PUSH2 0x7BB JUMP JUMPDEST SWAP3 POP POP DUP2 SWAP1 SSTORE POP PUSH1 0x0 PUSH1 0x40 MLOAD DUP1 PUSH1 0x40 ADD PUSH1 0x40 MSTORE DUP1 DUP4 DUP2 MSTORE PUSH1 0x20 ADD TIMESTAMP DUP2 MSTORE POP SWAP1 POP DUP1 PUSH1 0x0 DUP1 CALLER PUSH20 0xFFFFFFFFFFFFFFFFFFFFFFFFFFFFFFFFFFFFFFFF AND PUSH20 0xFFFFFFFFFFFFFFFFFFFFFFFFFFFFFFFFFFFFFFFF AND DUP2 MSTORE PUSH1 0x20 ADD SWAP1 DUP2 MSTORE PUSH1 0x20 ADD PUSH1 0x0 KECCAK256 PUSH1 0x4 ADD PUSH1 0x0 DUP1 PUSH1 0x0 CALLER PUSH20 0xFFFFFFFFFFFFFFFFFFFFFFFFFFFFFFFFFFFFFFFF AND PUSH20 0xFFFFFFFFFFFFFFFFFFFFFFFFFFFFFFFFFFFFFFFF AND DUP2 MSTORE PUSH1 0x20 ADD SWAP1 DUP2 MSTORE PUSH1 0x20 ADD PUSH1 0x0 KECCAK256 PUSH1 0x3 ADD SLOAD DUP2 MSTORE PUSH1 0x20 ADD SWAP1 DUP2 MSTORE PUSH1 0x20 ADD PUSH1 0x0 KECCAK256 PUSH1 0x0 DUP3 ADD MLOAD DUP2 PUSH1 0x0 ADD SSTORE PUSH1 0x20 DUP3 ADD MLOAD DUP2 PUSH1 0x1 ADD SSTORE SWAP1 POP POP PUSH1 0x0 DUP1 CALLER PUSH20 0xFFFFFFFFFFFFFFFFFFFFFFFFFFFFFFFFFFFFFFFF AND PUSH20 0xFFFFFFFFFFFFFFFFFFFFFFFFFFFFFFFFFFFFFFFF AND DUP2 MSTORE PUSH1 0x20 ADD SWAP1 DUP2 MSTORE PUSH1 0x20 ADD PUSH1 0x0 KECCAK256 PUSH1 0x3 ADD PUSH1 0x0 DUP2 SLOAD DUP1 SWAP3 SWAP2 SWAP1 PUSH2 0x482 SWAP1 PUSH2 0x773 JUMP JUMPDEST SWAP2 SWAP1 POP SSTORE POP DUP3 PUSH20 0xFFFFFFFFFFFFFFFFFFFFFFFFFFFFFFFFFFFFFFFF AND PUSH2 0x8FC DUP4 SWAP1 DUP2 ISZERO MUL SWAP1 PUSH1 0x40 MLOAD PUSH1 0x0 PUSH1 0x40 MLOAD DUP1 DUP4 SUB DUP2 DUP6 DUP9 DUP9 CALL SWAP4 POP POP POP POP ISZERO DUP1 ISZERO PUSH2 0x4CD JUMPI RETURNDATASIZE PUSH1 0x0 DUP1 RETURNDATACOPY RETURNDATASIZE PUSH1 0x0 REVERT JUMPDEST POP POP POP POP JUMP JUMPDEST PUSH1 0x40 MLOAD DUP1 PUSH1 0x40 ADD PUSH1 0x40 MSTORE DUP1 PUSH1 0x0 DUP2 MSTORE PUSH1 0x20 ADD PUSH1 0x0 DUP2 MSTORE POP SWAP1 JUMP JUMPDEST PUSH1 0x0 DUP1 REVERT JUMPDEST PUSH1 0x0 PUSH20 0xFFFFFFFFFFFFFFFFFFFFFFFFFFFFFFFFFFFFFFFF DUP3 AND SWAP1 POP SWAP2 SWAP1 POP JUMP JUMPDEST PUSH1 0x0 PUSH2 0x51D DUP3 PUSH2 0x4F2 JUMP JUMPDEST SWAP1 POP SWAP2 SWAP1 POP JUMP JUMPDEST PUSH2 0x52D DUP2 PUSH2 0x512 JUMP JUMPDEST DUP2 EQ PUSH2 0x538 JUMPI PUSH1 0x0 DUP1 REVERT JUMPDEST POP JUMP JUMPDEST PUSH1 0x0 DUP2 CALLDATALOAD SWAP1 POP PUSH2 0x54A DUP2 PUSH2 0x524 JUMP JUMPDEST SWAP3 SWAP2 POP POP JUMP JUMPDEST PUSH1 0x0 PUSH1 0x20 DUP3 DUP5 SUB SLT ISZERO PUSH2 0x566 JUMPI PUSH2 0x565 PUSH2 0x4ED JUMP JUMPDEST JUMPDEST PUSH1 0x0 PUSH2 0x574 DUP5 DUP3 DUP6 ADD PUSH2 0x53B JUMP JUMPDEST SWAP2 POP POP SWAP3 SWAP2 POP POP JUMP JUMPDEST PUSH1 0x0 DUP2 SWAP1 POP SWAP2 SWAP1 POP JUMP JUMPDEST PUSH2 0x590 DUP2 PUSH2 0x57D JUMP JUMPDEST DUP3 MSTORE POP POP JUMP JUMPDEST PUSH1 0x0 PUSH1 0x60 DUP3 ADD SWAP1 POP PUSH2 0x5AB PUSH1 0x0 DUP4 ADD DUP7 PUSH2 0x587 JUMP JUMPDEST PUSH2 0x5B8 PUSH1 0x20 DUP4 ADD DUP6 PUSH2 0x587 JUMP JUMPDEST PUSH2 0x5C5 PUSH1 0x40 DUP4 ADD DUP5 PUSH2 0x587 JUMP JUMPDEST SWAP5 SWAP4 POP POP POP POP JUMP JUMPDEST PUSH2 0x5D6 DUP2 PUSH2 0x57D JUMP JUMPDEST DUP2 EQ PUSH2 0x5E1 JUMPI PUSH1 0x0 DUP1 REVERT JUMPDEST POP JUMP JUMPDEST PUSH1 0x0 DUP2 CALLDATALOAD SWAP1 POP PUSH2 0x5F3 DUP2 PUSH2 0x5CD JUMP JUMPDEST SWAP3 SWAP2 POP POP JUMP JUMPDEST PUSH1 0x0 DUP1 PUSH1 0x40 DUP4 DUP6 SUB SLT ISZERO PUSH2 0x610 JUMPI PUSH2 0x60F PUSH2 0x4ED JUMP JUMPDEST JUMPDEST PUSH1 0x0 PUSH2 0x61E DUP6 DUP3 DUP7 ADD PUSH2 0x53B JUMP JUMPDEST SWAP3 POP POP PUSH1 0x20 PUSH2 0x62F DUP6 DUP3 DUP7 ADD PUSH2 0x5E4 JUMP JUMPDEST SWAP2 POP POP SWAP3 POP SWAP3 SWAP1 POP JUMP JUMPDEST PUSH2 0x642 DUP2 PUSH2 0x57D JUMP JUMPDEST DUP3 MSTORE POP POP JUMP JUMPDEST PUSH1 0x40 DUP3 ADD PUSH1 0x0 DUP3 ADD MLOAD PUSH2 0x65E PUSH1 0x0 DUP6 ADD DUP3 PUSH2 0x639 JUMP JUMPDEST POP PUSH1 0x20 DUP3 ADD MLOAD PUSH2 0x671 PUSH1 0x20 DUP6 ADD DUP3 PUSH2 0x639 JUMP JUMPDEST POP POP POP POP JUMP JUMPDEST PUSH1 0x0 PUSH1 0x40 DUP3 ADD SWAP1 POP PUSH2 0x68C PUSH1 0x0 DUP4 ADD DUP5 PUSH2 0x648 JUMP JUMPDEST SWAP3 SWAP2 POP POP JUMP JUMPDEST PUSH1 0x0 PUSH2 0x69D DUP3 PUSH2 0x4F2 JUMP JUMPDEST SWAP1 POP SWAP2 SWAP1 POP JUMP JUMPDEST PUSH2 0x6AD DUP2 PUSH2 0x692 JUMP JUMPDEST DUP2 EQ PUSH2 0x6B8 JUMPI PUSH1 0x0 DUP1 REVERT JUMPDEST POP JUMP JUMPDEST PUSH1 0x0 DUP2 CALLDATALOAD SWAP1 POP PUSH2 0x6CA DUP2 PUSH2 0x6A4 JUMP JUMPDEST SWAP3 SWAP2 POP POP JUMP JUMPDEST PUSH1 0x0 DUP1 PUSH1 0x40 DUP4 DUP6 SUB SLT ISZERO PUSH2 0x6E7 JUMPI PUSH2 0x6E6 PUSH2 0x4ED JUMP JUMPDEST JUMPDEST PUSH1 0x0 PUSH2 0x6F5 DUP6 DUP3 DUP7 ADD PUSH2 0x6BB JUMP JUMPDEST SWAP3 POP POP PUSH1 0x20 PUSH2 0x706 DUP6 DUP3 DUP7 ADD PUSH2 0x5E4 JUMP JUMPDEST SWAP2 POP POP SWAP3 POP SWAP3 SWAP1 POP JUMP JUMPDEST PUSH32 0x4E487B7100000000000000000000000000000000000000000000000000000000 PUSH1 0x0 MSTORE PUSH1 0x11 PUSH1 0x4 MSTORE PUSH1 0x24 PUSH1 0x0 REVERT JUMPDEST PUSH1 0x0 PUSH2 0x74A DUP3 PUSH2 0x57D JUMP JUMPDEST SWAP2 POP PUSH2 0x755 DUP4 PUSH2 0x57D JUMP JUMPDEST SWAP3 POP DUP3 DUP3 ADD SWAP1 POP DUP1 DUP3 GT ISZERO PUSH2 0x76D JUMPI PUSH2 0x76C PUSH2 0x710 JUMP JUMPDEST JUMPDEST SWAP3 SWAP2 POP POP JUMP JUMPDEST PUSH1 0x0 PUSH2 0x77E DUP3 PUSH2 0x57D JUMP JUMPDEST SWAP2 POP PUSH32 0xFFFFFFFFFFFFFFFFFFFFFFFFFFFFFFFFFFFFFFFFFFFFFFFFFFFFFFFFFFFFFFFF DUP3 SUB PUSH2 0x7B0 JUMPI PUSH2 0x7AF PUSH2 0x710 JUMP JUMPDEST JUMPDEST PUSH1 0x1 DUP3 ADD SWAP1 POP SWAP2 SWAP1 POP JUMP JUMPDEST PUSH1 0x0 PUSH2 0x7C6 DUP3 PUSH2 0x57D JUMP JUMPDEST SWAP2 POP PUSH2 0x7D1 DUP4 PUSH2 0x57D JUMP JUMPDEST SWAP3 POP DUP3 DUP3 SUB SWAP1 POP DUP2 DUP2 GT ISZERO PUSH2 0x7E9 JUMPI PUSH2 0x7E8 PUSH2 0x710 JUMP JUMPDEST JUMPDEST SWAP3 SWAP2 POP POP JUMP INVALID LOG2 PUSH5 0x6970667358 0x22 SLT KECCAK256 0xBB 0xC2 0xF7 0x5E SWAP2 0xA8 0xE1 AND PUSH23 0x371194B540DA2EF78657F4A8158A2F63A8B3C2F3FDE8B0 PUSH5 0x736F6C6343 STOP ADDMOD GT STOP CALLER "
				},
				"gasEstimates": {
					"creation": {
						"codeDepositCost": "417000",
						"executionCost": "455",
						"totalCost": "417455"
					},
					"external": {
						"balances(address)": "infinite",
						"depositMoney()": "infinite",
						"getDepositNum(address,uint256)": "infinite",
						"withdrawMoney(address,uint256)": "infinite"
					}
				},
				"methodIdentifiers": {
					"balances(address)": "27e235e3",
					"depositMoney()": "16c05aa2",
					"getDepositNum(address,uint256)": "55e14fe6",
					"withdrawMoney(address,uint256)": "f274c897"
				}
			},
			"storageLayout": {
				"storage": [
					{
						"astId": 28,
						"contract": "ExampleMappingStruct.sol:MappingStructExample",
						"label": "balances",
						"offset": 0,
						"slot": "0",
						"type": "t_mapping(t_address,t_struct(Balance)23_storage)"
					}
				],
				"types": {
					"t_address": {
						"encoding": "inplace",
						"label": "address",
						"numberOfBytes": "20"
					},
					"t_mapping(t_address,t_struct(Balance)23_storage)": {
						"encoding": "mapping",
						"key": "t_address",
						"label": "mapping(address => struct MappingStructExample.Balance)",
						"numberOfBytes": "32",
						"value": "t_struct(Balance)23_storage"
					},
					"t_mapping(t_uint256,t_struct(Transaction)6_storage)": {
						"encoding": "mapping",
						"key": "t_uint256",
						"label": "mapping(uint256 => struct MappingStructExample.Transaction)",
						"numberOfBytes": "32",
						"value": "t_struct(Transaction)6_storage"
					},
					"t_struct(Balance)23_storage": {
						"encoding": "inplace",
						"label": "struct MappingStructExample.Balance",
						"members": [
							{
								"astId": 8,
								"contract": "ExampleMappingStruct.sol:MappingStructExample",
								"label": "totalBalance",
								"offset": 0,
								"slot": "0",
								"type": "t_uint256"
							},
							{
								"astId": 10,
								"contract": "ExampleMappingStruct.sol:MappingStructExample",
								"label": "numDeposits",
								"offset": 0,
								"slot": "1",
								"type": "t_uint256"
							},
							{
								"astId": 15,
								"contract": "ExampleMappingStruct.sol:MappingStructExample",
								"label": "deposits",
								"offset": 0,
								"slot": "2",
								"type": "t_mapping(t_uint256,t_struct(Transaction)6_storage)"
							},
							{
								"astId": 17,
								"contract": "ExampleMappingStruct.sol:MappingStructExample",
								"label": "numWithdrawals",
								"offset": 0,
								"slot": "3",
								"type": "t_uint256"
							},
							{
								"astId": 22,
								"contract": "ExampleMappingStruct.sol:MappingStructExample",
								"label": "withdrawals",
								"offset": 0,
								"slot": "4",
								"type": "t_mapping(t_uint256,t_struct(Transaction)6_storage)"
							}
						],
						"numberOfBytes": "160"
					},
					"t_struct(Transaction)6_storage": {
						"encoding": "inplace",
						"label": "struct MappingStructExample.Transaction",
						"members": [
							{
								"astId": 3,
								"contract": "ExampleMappingStruct.sol:MappingStructExample",
								"label": "amount",
								"offset": 0,
								"slot": "0",
								"type": "t_uint256"
							},
							{
								"astId": 5,
								"contract": "ExampleMappingStruct.sol:MappingStructExample",
								"label": "timestamp",
								"offset": 0,
								"slot": "1",
								"type": "t_uint256"
							}
						],
						"numberOfBytes": "64"
					},
					"t_uint256": {
						"encoding": "inplace",
						"label": "uint256",
						"numberOfBytes": "32"
					}
				}
			},
			"userdoc": {
				"kind": "user",
				"methods": {},
				"version": 1
			}
		}
	}
}