{
  "contractName": "Spacebear",
  "abi": [
    {
      "inputs": [],
      "stateMutability": "nonpayable",
      "type": "constructor"
    },
    {
      "anonymous": false,
      "inputs": [
        {
          "indexed": true,
          "internalType": "address",
          "name": "owner",
          "type": "address"
        },
        {
          "indexed": true,
          "internalType": "address",
          "name": "approved",
          "type": "address"
        },
        {
          "indexed": true,
          "internalType": "uint256",
          "name": "tokenId",
          "type": "uint256"
        }
      ],
      "name": "Approval",
      "type": "event"
    },
    {
      "anonymous": false,
      "inputs": [
        {
          "indexed": true,
          "internalType": "address",
          "name": "owner",
          "type": "address"
        },
        {
          "indexed": true,
          "internalType": "address",
          "name": "operator",
          "type": "address"
        },
        {
          "indexed": false,
          "internalType": "bool",
          "name": "approved",
          "type": "bool"
        }
      ],
      "name": "ApprovalForAll",
      "type": "event"
    },
    {
      "anonymous": false,
      "inputs": [
        {
          "indexed": true,
          "internalType": "address",
          "name": "previousOwner",
          "type": "address"
        },
        {
          "indexed": true,
          "internalType": "address",
          "name": "newOwner",
          "type": "address"
        }
      ],
      "name": "OwnershipTransferred",
      "type": "event"
    },
    {
      "anonymous": false,
      "inputs": [
        {
          "indexed": true,
          "internalType": "address",
          "name": "from",
          "type": "address"
        },
        {
          "indexed": true,
          "internalType": "address",
          "name": "to",
          "type": "address"
        },
        {
          "indexed": true,
          "internalType": "uint256",
          "name": "tokenId",
          "type": "uint256"
        }
      ],
      "name": "Transfer",
      "type": "event"
    },
    {
      "inputs": [
        {
          "internalType": "address",
          "name": "to",
          "type": "address"
        },
        {
          "internalType": "uint256",
          "name": "tokenId",
          "type": "uint256"
        }
      ],
      "name": "approve",
      "outputs": [],
      "stateMutability": "nonpayable",
      "type": "function"
    },
    {
      "inputs": [
        {
          "internalType": "address",
          "name": "owner",
          "type": "address"
        }
      ],
      "name": "balanceOf",
      "outputs": [
        {
          "internalType": "uint256",
          "name": "",
          "type": "uint256"
        }
      ],
      "stateMutability": "view",
      "type": "function",
      "constant": true
    },
    {
      "inputs": [
        {
          "internalType": "uint256",
          "name": "tokenId",
          "type": "uint256"
        }
      ],
      "name": "getApproved",
      "outputs": [
        {
          "internalType": "address",
          "name": "",
          "type": "address"
        }
      ],
      "stateMutability": "view",
      "type": "function",
      "constant": true
    },
    {
      "inputs": [
        {
          "internalType": "address",
          "name": "owner",
          "type": "address"
        },
        {
          "internalType": "address",
          "name": "operator",
          "type": "address"
        }
      ],
      "name": "isApprovedForAll",
      "outputs": [
        {
          "internalType": "bool",
          "name": "",
          "type": "bool"
        }
      ],
      "stateMutability": "view",
      "type": "function",
      "constant": true
    },
    {
      "inputs": [],
      "name": "name",
      "outputs": [
        {
          "internalType": "string",
          "name": "",
          "type": "string"
        }
      ],
      "stateMutability": "view",
      "type": "function",
      "constant": true
    },
    {
      "inputs": [],
      "name": "owner",
      "outputs": [
        {
          "internalType": "address",
          "name": "",
          "type": "address"
        }
      ],
      "stateMutability": "view",
      "type": "function",
      "constant": true
    },
    {
      "inputs": [
        {
          "internalType": "uint256",
          "name": "tokenId",
          "type": "uint256"
        }
      ],
      "name": "ownerOf",
      "outputs": [
        {
          "internalType": "address",
          "name": "",
          "type": "address"
        }
      ],
      "stateMutability": "view",
      "type": "function",
      "constant": true
    },
    {
      "inputs": [],
      "name": "renounceOwnership",
      "outputs": [],
      "stateMutability": "nonpayable",
      "type": "function"
    },
    {
      "inputs": [
        {
          "internalType": "address",
          "name": "from",
          "type": "address"
        },
        {
          "internalType": "address",
          "name": "to",
          "type": "address"
        },
        {
          "internalType": "uint256",
          "name": "tokenId",
          "type": "uint256"
        }
      ],
      "name": "safeTransferFrom",
      "outputs": [],
      "stateMutability": "nonpayable",
      "type": "function"
    },
    {
      "inputs": [
        {
          "internalType": "address",
          "name": "from",
          "type": "address"
        },
        {
          "internalType": "address",
          "name": "to",
          "type": "address"
        },
        {
          "internalType": "uint256",
          "name": "tokenId",
          "type": "uint256"
        },
        {
          "internalType": "bytes",
          "name": "data",
          "type": "bytes"
        }
      ],
      "name": "safeTransferFrom",
      "outputs": [],
      "stateMutability": "nonpayable",
      "type": "function"
    },
    {
      "inputs": [
        {
          "internalType": "address",
          "name": "operator",
          "type": "address"
        },
        {
          "internalType": "bool",
          "name": "approved",
          "type": "bool"
        }
      ],
      "name": "setApprovalForAll",
      "outputs": [],
      "stateMutability": "nonpayable",
      "type": "function"
    },
    {
      "inputs": [
        {
          "internalType": "bytes4",
          "name": "interfaceId",
          "type": "bytes4"
        }
      ],
      "name": "supportsInterface",
      "outputs": [
        {
          "internalType": "bool",
          "name": "",
          "type": "bool"
        }
      ],
      "stateMutability": "view",
      "type": "function",
      "constant": true
    },
    {
      "inputs": [],
      "name": "symbol",
      "outputs": [
        {
          "internalType": "string",
          "name": "",
          "type": "string"
        }
      ],
      "stateMutability": "view",
      "type": "function",
      "constant": true
    },
    {
      "inputs": [
        {
          "internalType": "address",
          "name": "from",
          "type": "address"
        },
        {
          "internalType": "address",
          "name": "to",
          "type": "address"
        },
        {
          "internalType": "uint256",
          "name": "tokenId",
          "type": "uint256"
        }
      ],
      "name": "transferFrom",
      "outputs": [],
      "stateMutability": "nonpayable",
      "type": "function"
    },
    {
      "inputs": [
        {
          "internalType": "address",
          "name": "newOwner",
          "type": "address"
        }
      ],
      "name": "transferOwnership",
      "outputs": [],
      "stateMutability": "nonpayable",
      "type": "function"
    },
    {
      "inputs": [
        {
          "internalType": "address",
          "name": "to",
          "type": "address"
        }
      ],
      "name": "safeMint",
      "outputs": [],
      "stateMutability": "nonpayable",
      "type": "function"
    },
    {
      "inputs": [],
      "name": "buyToken",
      "outputs": [],
      "stateMutability": "payable",
      "type": "function",
      "payable": true
    },
    {
      "inputs": [
        {
          "internalType": "uint256",
          "name": "tokenId",
          "type": "uint256"
        }
      ],
      "name": "tokenURI",
      "outputs": [
        {
          "internalType": "string",
          "name": "",
          "type": "string"
        }
      ],
      "stateMutability": "pure",
      "type": "function",
      "constant": true
    }
  ],
  "bytecode": "0x60806040523480156200001157600080fd5b506040518060400160405280600981526020017f53706163656265617200000000000000000000000000000000000000000000008152506040518060400160405280600381526020017f534252000000000000000000000000000000000000000000000000000000000081525081600090816200008f919062000412565b508060019081620000a1919062000412565b505050620000c4620000b8620000ca60201b60201c565b620000d260201b60201c565b620004f9565b600033905090565b6000600660009054906101000a900473ffffffffffffffffffffffffffffffffffffffff16905081600660006101000a81548173ffffffffffffffffffffffffffffffffffffffff021916908373ffffffffffffffffffffffffffffffffffffffff1602179055508173ffffffffffffffffffffffffffffffffffffffff168173ffffffffffffffffffffffffffffffffffffffff167f8be0079c531659141344cd1fd0a4f28419497f9722a3daafe3b4186f6b6457e060405160405180910390a35050565b600081519050919050565b7f4e487b7100000000000000000000000000000000000000000000000000000000600052604160045260246000fd5b7f4e487b7100000000000000000000000000000000000000000000000000000000600052602260045260246000fd5b600060028204905060018216806200021a57607f821691505b60208210810362000230576200022f620001d2565b5b50919050565b60008190508160005260206000209050919050565b60006020601f8301049050919050565b600082821b905092915050565b6000600883026200029a7fffffffffffffffffffffffffffffffffffffffffffffffffffffffffffffffff826200025b565b620002a686836200025b565b95508019841693508086168417925050509392505050565b6000819050919050565b6000819050919050565b6000620002f3620002ed620002e784620002be565b620002c8565b620002be565b9050919050565b6000819050919050565b6200030f83620002d2565b620003276200031e82620002fa565b84845462000268565b825550505050565b600090565b6200033e6200032f565b6200034b81848462000304565b505050565b5b8181101562000373576200036760008262000334565b60018101905062000351565b5050565b601f821115620003c2576200038c8162000236565b62000397846200024b565b81016020851015620003a7578190505b620003bf620003b6856200024b565b83018262000350565b50505b505050565b600082821c905092915050565b6000620003e760001984600802620003c7565b1980831691505092915050565b6000620004028383620003d4565b9150826002028217905092915050565b6200041d8262000198565b67ffffffffffffffff811115620004395762000438620001a3565b5b62000445825462000201565b6200045282828562000377565b600060209050601f8311600181146200048a576000841562000475578287015190505b620004818582620003f4565b865550620004f1565b601f1984166200049a8662000236565b60005b82811015620004c4578489015182556001820191506020850194506020810190506200049d565b86831015620004e45784890151620004e0601f891682620003d4565b8355505b6001600288020188555050505b505050505050565b612c3d80620005096000396000f3fe6080604052600436106101095760003560e01c8063715018a611610095578063a482171911610064578063a482171914610367578063b88d4fde14610371578063c87b56dd1461039a578063e985e9c5146103d7578063f2fde38b1461041457610109565b8063715018a6146102d15780638da5cb5b146102e857806395d89b4114610313578063a22cb4651461033e57610109565b806323b872dd116100dc57806323b872dd146101dc57806340d097c31461020557806342842e0e1461022e5780636352211e1461025757806370a082311461029457610109565b806301ffc9a71461010e57806306fdde031461014b578063081812fc14610176578063095ea7b3146101b3575b600080fd5b34801561011a57600080fd5b5061013560048036038101906101309190611bbe565b61043d565b6040516101429190611c06565b60405180910390f35b34801561015757600080fd5b5061016061051f565b60405161016d9190611cb1565b60405180910390f35b34801561018257600080fd5b5061019d60048036038101906101989190611d09565b6105b1565b6040516101aa9190611d77565b60405180910390f35b3480156101bf57600080fd5b506101da60048036038101906101d59190611dbe565b6105f7565b005b3480156101e857600080fd5b5061020360048036038101906101fe9190611dfe565b61070e565b005b34801561021157600080fd5b5061022c60048036038101906102279190611e51565b61076e565b005b34801561023a57600080fd5b5061025560048036038101906102509190611dfe565b61079c565b005b34801561026357600080fd5b5061027e60048036038101906102799190611d09565b6107bc565b60405161028b9190611d77565b60405180910390f35b3480156102a057600080fd5b506102bb60048036038101906102b69190611e51565b610842565b6040516102c89190611e8d565b60405180910390f35b3480156102dd57600080fd5b506102e66108f9565b005b3480156102f457600080fd5b506102fd61090d565b60405161030a9190611d77565b60405180910390f35b34801561031f57600080fd5b50610328610937565b6040516103359190611cb1565b60405180910390f35b34801561034a57600080fd5b5061036560048036038101906103609190611ed4565b6109c9565b005b61036f6109df565b005b34801561037d57600080fd5b5061039860048036038101906103939190612049565b610a99565b005b3480156103a657600080fd5b506103c160048036038101906103bc9190611d09565b610afb565b6040516103ce9190611cb1565b60405180910390f35b3480156103e357600080fd5b506103fe60048036038101906103f991906120cc565b610b39565b60405161040b9190611c06565b60405180910390f35b34801561042057600080fd5b5061043b60048036038101906104369190611e51565b610bcd565b005b60007f80ac58cd000000000000000000000000000000000000000000000000000000007bffffffffffffffffffffffffffffffffffffffffffffffffffffffff1916827bffffffffffffffffffffffffffffffffffffffffffffffffffffffff1916148061050857507f5b5e139f000000000000000000000000000000000000000000000000000000007bffffffffffffffffffffffffffffffffffffffffffffffffffffffff1916827bffffffffffffffffffffffffffffffffffffffffffffffffffffffff1916145b80610518575061051782610c50565b5b9050919050565b60606000805461052e9061213b565b80601f016020809104026020016040519081016040528092919081815260200182805461055a9061213b565b80156105a75780601f1061057c576101008083540402835291602001916105a7565b820191906000526020600020905b81548152906001019060200180831161058a57829003601f168201915b5050505050905090565b60006105bc82610cba565b6004600083815260200190815260200160002060009054906101000a900473ffffffffffffffffffffffffffffffffffffffff169050919050565b6000610602826107bc565b90508073ffffffffffffffffffffffffffffffffffffffff168373ffffffffffffffffffffffffffffffffffffffff1603610672576040517f08c379a0000000000000000000000000000000000000000000000000000000008152600401610669906121de565b60405180910390fd5b8073ffffffffffffffffffffffffffffffffffffffff16610691610d05565b73ffffffffffffffffffffffffffffffffffffffff1614806106c057506106bf816106ba610d05565b610b39565b5b6106ff576040517f08c379a00000000000000000000000000000000000000000000000000000000081526004016106f690612270565b60405180910390fd5b6107098383610d0d565b505050565b61071f610719610d05565b82610dc6565b61075e576040517f08c379a000000000000000000000000000000000000000000000000000000000815260040161075590612302565b60405180910390fd5b610769838383610e5b565b505050565b610776611154565b600061078260076111d2565b905061078e60076111e0565b61079882826111f6565b5050565b6107b783838360405180602001604052806000815250610a99565b505050565b6000806107c883611214565b9050600073ffffffffffffffffffffffffffffffffffffffff168173ffffffffffffffffffffffffffffffffffffffff1603610839576040517f08c379a00000000000000000000000000000000000000000000000000000000081526004016108309061236e565b60405180910390fd5b80915050919050565b60008073ffffffffffffffffffffffffffffffffffffffff168273ffffffffffffffffffffffffffffffffffffffff16036108b2576040517f08c379a00000000000000000000000000000000000000000000000000000000081526004016108a990612400565b60405180910390fd5b600360008373ffffffffffffffffffffffffffffffffffffffff1673ffffffffffffffffffffffffffffffffffffffff168152602001908152602001600020549050919050565b610901611154565b61090b6000611251565b565b6000600660009054906101000a900473ffffffffffffffffffffffffffffffffffffffff16905090565b6060600180546109469061213b565b80601f01602080910402602001604051908101604052809291908181526020018280546109729061213b565b80156109bf5780601f10610994576101008083540402835291602001916109bf565b820191906000526020600020905b8154815290600101906020018083116109a257829003601f168201915b5050505050905090565b6109db6109d4610d05565b8383611317565b5050565b60006109eb60076111d2565b905067016345785d8a000081610a01919061244f565b3414610a42576040517f08c379a0000000000000000000000000000000000000000000000000000000008152600401610a39906124dd565b60405180910390fd5b610a826040518060400160405280600881526020017f676f7420686572650000000000000000000000000000000000000000000000008152508234611483565b610a8c60076111e0565b610a9633826111f6565b50565b610aaa610aa4610d05565b83610dc6565b610ae9576040517f08c379a0000000000000000000000000000000000000000000000000000000008152600401610ae090612302565b60405180910390fd5b610af584848484611522565b50505050565b6060610b0561157e565b600183610b1291906124fd565b604051602001610b23929190612626565b6040516020818303038152906040529050919050565b6000600560008473ffffffffffffffffffffffffffffffffffffffff1673ffffffffffffffffffffffffffffffffffffffff16815260200190815260200160002060008373ffffffffffffffffffffffffffffffffffffffff1673ffffffffffffffffffffffffffffffffffffffff16815260200190815260200160002060009054906101000a900460ff16905092915050565b610bd5611154565b600073ffffffffffffffffffffffffffffffffffffffff168173ffffffffffffffffffffffffffffffffffffffff1603610c44576040517f08c379a0000000000000000000000000000000000000000000000000000000008152600401610c3b906126d6565b60405180910390fd5b610c4d81611251565b50565b60007f01ffc9a7000000000000000000000000000000000000000000000000000000007bffffffffffffffffffffffffffffffffffffffffffffffffffffffff1916827bffffffffffffffffffffffffffffffffffffffffffffffffffffffff1916149050919050565b610cc38161159e565b610d02576040517f08c379a0000000000000000000000000000000000000000000000000000000008152600401610cf99061236e565b60405180910390fd5b50565b600033905090565b816004600083815260200190815260200160002060006101000a81548173ffffffffffffffffffffffffffffffffffffffff021916908373ffffffffffffffffffffffffffffffffffffffff160217905550808273ffffffffffffffffffffffffffffffffffffffff16610d80836107bc565b73ffffffffffffffffffffffffffffffffffffffff167f8c5be1e5ebec7d5bd14f71427d1e84f3dd0314c0f7b2291e5b200ac8c7c3b92560405160405180910390a45050565b600080610dd2836107bc565b90508073ffffffffffffffffffffffffffffffffffffffff168473ffffffffffffffffffffffffffffffffffffffff161480610e145750610e138185610b39565b5b80610e5257508373ffffffffffffffffffffffffffffffffffffffff16610e3a846105b1565b73ffffffffffffffffffffffffffffffffffffffff16145b91505092915050565b8273ffffffffffffffffffffffffffffffffffffffff16610e7b826107bc565b73ffffffffffffffffffffffffffffffffffffffff1614610ed1576040517f08c379a0000000000000000000000000000000000000000000000000000000008152600401610ec890612768565b60405180910390fd5b600073ffffffffffffffffffffffffffffffffffffffff168273ffffffffffffffffffffffffffffffffffffffff1603610f40576040517f08c379a0000000000000000000000000000000000000000000000000000000008152600401610f37906127fa565b60405180910390fd5b610f4d83838360016115df565b8273ffffffffffffffffffffffffffffffffffffffff16610f6d826107bc565b73ffffffffffffffffffffffffffffffffffffffff1614610fc3576040517f08c379a0000000000000000000000000000000000000000000000000000000008152600401610fba90612768565b60405180910390fd5b6004600082815260200190815260200160002060006101000a81549073ffffffffffffffffffffffffffffffffffffffff02191690556001600360008573ffffffffffffffffffffffffffffffffffffffff1673ffffffffffffffffffffffffffffffffffffffff168152602001908152602001600020600082825403925050819055506001600360008473ffffffffffffffffffffffffffffffffffffffff1673ffffffffffffffffffffffffffffffffffffffff16815260200190815260200160002060008282540192505081905550816002600083815260200190815260200160002060006101000a81548173ffffffffffffffffffffffffffffffffffffffff021916908373ffffffffffffffffffffffffffffffffffffffff160217905550808273ffffffffffffffffffffffffffffffffffffffff168473ffffffffffffffffffffffffffffffffffffffff167fddf252ad1be2c89b69c2b068fc378daa952ba7f163c4a11628f55a4df523b3ef60405160405180910390a461114f8383836001611705565b505050565b61115c610d05565b73ffffffffffffffffffffffffffffffffffffffff1661117a61090d565b73ffffffffffffffffffffffffffffffffffffffff16146111d0576040517f08c379a00000000000000000000000000000000000000000000000000000000081526004016111c790612866565b60405180910390fd5b565b600081600001549050919050565b6001816000016000828254019250508190555050565b61121082826040518060200160405280600081525061170b565b5050565b60006002600083815260200190815260200160002060009054906101000a900473ffffffffffffffffffffffffffffffffffffffff169050919050565b6000600660009054906101000a900473ffffffffffffffffffffffffffffffffffffffff16905081600660006101000a81548173ffffffffffffffffffffffffffffffffffffffff021916908373ffffffffffffffffffffffffffffffffffffffff1602179055508173ffffffffffffffffffffffffffffffffffffffff168173ffffffffffffffffffffffffffffffffffffffff167f8be0079c531659141344cd1fd0a4f28419497f9722a3daafe3b4186f6b6457e060405160405180910390a35050565b8173ffffffffffffffffffffffffffffffffffffffff168373ffffffffffffffffffffffffffffffffffffffff1603611385576040517f08c379a000000000000000000000000000000000000000000000000000000000815260040161137c906128d2565b60405180910390fd5b80600560008573ffffffffffffffffffffffffffffffffffffffff1673ffffffffffffffffffffffffffffffffffffffff16815260200190815260200160002060008473ffffffffffffffffffffffffffffffffffffffff1673ffffffffffffffffffffffffffffffffffffffff16815260200190815260200160002060006101000a81548160ff0219169083151502179055508173ffffffffffffffffffffffffffffffffffffffff168373ffffffffffffffffffffffffffffffffffffffff167f17307eab39ab6107e8899845ad3d59bd9653f200f220920489ca2b5937696c31836040516114769190611c06565b60405180910390a3505050565b61151d83838360405160240161149b939291906128f2565b6040516020818303038152906040527fca47c4eb000000000000000000000000000000000000000000000000000000007bffffffffffffffffffffffffffffffffffffffffffffffffffffffff19166020820180517bffffffffffffffffffffffffffffffffffffffffffffffffffffffff8381831617835250505050611766565b505050565b61152d848484610e5b565b6115398484848461178b565b611578576040517f08c379a000000000000000000000000000000000000000000000000000000000815260040161156f906129a2565b60405180910390fd5b50505050565b6060604051806080016040528060568152602001612bb260569139905090565b60008073ffffffffffffffffffffffffffffffffffffffff166115c083611214565b73ffffffffffffffffffffffffffffffffffffffff1614159050919050565b60018111156116ff57600073ffffffffffffffffffffffffffffffffffffffff168473ffffffffffffffffffffffffffffffffffffffff16146116735780600360008673ffffffffffffffffffffffffffffffffffffffff1673ffffffffffffffffffffffffffffffffffffffff168152602001908152602001600020600082825461166b91906129c2565b925050819055505b600073ffffffffffffffffffffffffffffffffffffffff168373ffffffffffffffffffffffffffffffffffffffff16146116fe5780600360008573ffffffffffffffffffffffffffffffffffffffff1673ffffffffffffffffffffffffffffffffffffffff16815260200190815260200160002060008282546116f691906124fd565b925050819055505b5b50505050565b50505050565b6117158383611912565b611722600084848461178b565b611761576040517f08c379a0000000000000000000000000000000000000000000000000000000008152600401611758906129a2565b60405180910390fd5b505050565b60006a636f6e736f6c652e6c6f6790508151602083016000808383865afa5050505050565b60006117ac8473ffffffffffffffffffffffffffffffffffffffff16611b2f565b15611905578373ffffffffffffffffffffffffffffffffffffffff1663150b7a026117d5610d05565b8786866040518563ffffffff1660e01b81526004016117f79493929190612a4b565b6020604051808303816000875af192505050801561183357506040513d601f19601f820116820180604052508101906118309190612aac565b60015b6118b5573d8060008114611863576040519150601f19603f3d011682016040523d82523d6000602084013e611868565b606091505b5060008151036118ad576040517f08c379a00000000000000000000000000000000000000000000000000000000081526004016118a4906129a2565b60405180910390fd5b805181602001fd5b63150b7a0260e01b7bffffffffffffffffffffffffffffffffffffffffffffffffffffffff1916817bffffffffffffffffffffffffffffffffffffffffffffffffffffffff19161491505061190a565b600190505b949350505050565b600073ffffffffffffffffffffffffffffffffffffffff168273ffffffffffffffffffffffffffffffffffffffff1603611981576040517f08c379a000000000000000000000000000000000000000000000000000000000815260040161197890612b25565b60405180910390fd5b61198a8161159e565b156119ca576040517f08c379a00000000000000000000000000000000000000000000000000000000081526004016119c190612b91565b60405180910390fd5b6119d86000838360016115df565b6119e18161159e565b15611a21576040517f08c379a0000000000000000000000000000000000000000000000000000000008152600401611a1890612b91565b60405180910390fd5b6001600360008473ffffffffffffffffffffffffffffffffffffffff1673ffffffffffffffffffffffffffffffffffffffff16815260200190815260200160002060008282540192505081905550816002600083815260200190815260200160002060006101000a81548173ffffffffffffffffffffffffffffffffffffffff021916908373ffffffffffffffffffffffffffffffffffffffff160217905550808273ffffffffffffffffffffffffffffffffffffffff16600073ffffffffffffffffffffffffffffffffffffffff167fddf252ad1be2c89b69c2b068fc378daa952ba7f163c4a11628f55a4df523b3ef60405160405180910390a4611b2b600083836001611705565b5050565b6000808273ffffffffffffffffffffffffffffffffffffffff163b119050919050565b6000604051905090565b600080fd5b600080fd5b60007fffffffff0000000000000000000000000000000000000000000000000000000082169050919050565b611b9b81611b66565b8114611ba657600080fd5b50565b600081359050611bb881611b92565b92915050565b600060208284031215611bd457611bd3611b5c565b5b6000611be284828501611ba9565b91505092915050565b60008115159050919050565b611c0081611beb565b82525050565b6000602082019050611c1b6000830184611bf7565b92915050565b600081519050919050565b600082825260208201905092915050565b60005b83811015611c5b578082015181840152602081019050611c40565b60008484015250505050565b6000601f19601f8301169050919050565b6000611c8382611c21565b611c8d8185611c2c565b9350611c9d818560208601611c3d565b611ca681611c67565b840191505092915050565b60006020820190508181036000830152611ccb8184611c78565b905092915050565b6000819050919050565b611ce681611cd3565b8114611cf157600080fd5b50565b600081359050611d0381611cdd565b92915050565b600060208284031215611d1f57611d1e611b5c565b5b6000611d2d84828501611cf4565b91505092915050565b600073ffffffffffffffffffffffffffffffffffffffff82169050919050565b6000611d6182611d36565b9050919050565b611d7181611d56565b82525050565b6000602082019050611d8c6000830184611d68565b92915050565b611d9b81611d56565b8114611da657600080fd5b50565b600081359050611db881611d92565b92915050565b60008060408385031215611dd557611dd4611b5c565b5b6000611de385828601611da9565b9250506020611df485828601611cf4565b9150509250929050565b600080600060608486031215611e1757611e16611b5c565b5b6000611e2586828701611da9565b9350506020611e3686828701611da9565b9250506040611e4786828701611cf4565b9150509250925092565b600060208284031215611e6757611e66611b5c565b5b6000611e7584828501611da9565b91505092915050565b611e8781611cd3565b82525050565b6000602082019050611ea26000830184611e7e565b92915050565b611eb181611beb565b8114611ebc57600080fd5b50565b600081359050611ece81611ea8565b92915050565b60008060408385031215611eeb57611eea611b5c565b5b6000611ef985828601611da9565b9250506020611f0a85828601611ebf565b9150509250929050565b600080fd5b600080fd5b7f4e487b7100000000000000000000000000000000000000000000000000000000600052604160045260246000fd5b611f5682611c67565b810181811067ffffffffffffffff82111715611f7557611f74611f1e565b5b80604052505050565b6000611f88611b52565b9050611f948282611f4d565b919050565b600067ffffffffffffffff821115611fb457611fb3611f1e565b5b611fbd82611c67565b9050602081019050919050565b82818337600083830152505050565b6000611fec611fe784611f99565b611f7e565b90508281526020810184848401111561200857612007611f19565b5b612013848285611fca565b509392505050565b600082601f8301126120305761202f611f14565b5b8135612040848260208601611fd9565b91505092915050565b6000806000806080858703121561206357612062611b5c565b5b600061207187828801611da9565b945050602061208287828801611da9565b935050604061209387828801611cf4565b925050606085013567ffffffffffffffff8111156120b4576120b3611b61565b5b6120c08782880161201b565b91505092959194509250565b600080604083850312156120e3576120e2611b5c565b5b60006120f185828601611da9565b925050602061210285828601611da9565b9150509250929050565b7f4e487b7100000000000000000000000000000000000000000000000000000000600052602260045260246000fd5b6000600282049050600182168061215357607f821691505b6020821081036121665761216561210c565b5b50919050565b7f4552433732313a20617070726f76616c20746f2063757272656e74206f776e6560008201527f7200000000000000000000000000000000000000000000000000000000000000602082015250565b60006121c8602183611c2c565b91506121d38261216c565b604082019050919050565b600060208201905081810360008301526121f7816121bb565b9050919050565b7f4552433732313a20617070726f76652063616c6c6572206973206e6f7420746f60008201527f6b656e206f776e6572206f7220617070726f76656420666f7220616c6c000000602082015250565b600061225a603d83611c2c565b9150612265826121fe565b604082019050919050565b600060208201905081810360008301526122898161224d565b9050919050565b7f4552433732313a2063616c6c6572206973206e6f7420746f6b656e206f776e6560008201527f72206f7220617070726f76656400000000000000000000000000000000000000602082015250565b60006122ec602d83611c2c565b91506122f782612290565b604082019050919050565b6000602082019050818103600083015261231b816122df565b9050919050565b7f4552433732313a20696e76616c696420746f6b656e2049440000000000000000600082015250565b6000612358601883611c2c565b915061236382612322565b602082019050919050565b600060208201905081810360008301526123878161234b565b9050919050565b7f4552433732313a2061646472657373207a65726f206973206e6f74206120766160008201527f6c6964206f776e65720000000000000000000000000000000000000000000000602082015250565b60006123ea602983611c2c565b91506123f58261238e565b604082019050919050565b60006020820190508181036000830152612419816123dd565b9050919050565b7f4e487b7100000000000000000000000000000000000000000000000000000000600052601160045260246000fd5b600061245a82611cd3565b915061246583611cd3565b925082820261247381611cd3565b9150828204841483151761248a57612489612420565b5b5092915050565b7f4e6f7420656e6f7567682066756e64732073656e740000000000000000000000600082015250565b60006124c7601583611c2c565b91506124d282612491565b602082019050919050565b600060208201905081810360008301526124f6816124ba565b9050919050565b600061250882611cd3565b915061251383611cd3565b925082820190508082111561252b5761252a612420565b5b92915050565b600081905092915050565b600061254782611c21565b6125518185612531565b9350612561818560208601611c3d565b80840191505092915050565b7f5f00000000000000000000000000000000000000000000000000000000000000600082015250565b60006125a3600183612531565b91506125ae8261256d565b600182019050919050565b6000819050919050565b6125d46125cf82611cd3565b6125b9565b82525050565b7f2e6a736f6e000000000000000000000000000000000000000000000000000000600082015250565b6000612610600583612531565b915061261b826125da565b600582019050919050565b6000612632828561253c565b915061263d82612596565b915061264982846125c3565b60208201915061265882612603565b91508190509392505050565b7f4f776e61626c653a206e6577206f776e657220697320746865207a65726f206160008201527f6464726573730000000000000000000000000000000000000000000000000000602082015250565b60006126c0602683611c2c565b91506126cb82612664565b604082019050919050565b600060208201905081810360008301526126ef816126b3565b9050919050565b7f4552433732313a207472616e736665722066726f6d20696e636f72726563742060008201527f6f776e6572000000000000000000000000000000000000000000000000000000602082015250565b6000612752602583611c2c565b915061275d826126f6565b604082019050919050565b6000602082019050818103600083015261278181612745565b9050919050565b7f4552433732313a207472616e7366657220746f20746865207a65726f2061646460008201527f7265737300000000000000000000000000000000000000000000000000000000602082015250565b60006127e4602483611c2c565b91506127ef82612788565b604082019050919050565b60006020820190508181036000830152612813816127d7565b9050919050565b7f4f776e61626c653a2063616c6c6572206973206e6f7420746865206f776e6572600082015250565b6000612850602083611c2c565b915061285b8261281a565b602082019050919050565b6000602082019050818103600083015261287f81612843565b9050919050565b7f4552433732313a20617070726f766520746f2063616c6c657200000000000000600082015250565b60006128bc601983611c2c565b91506128c782612886565b602082019050919050565b600060208201905081810360008301526128eb816128af565b9050919050565b6000606082019050818103600083015261290c8186611c78565b905061291b6020830185611e7e565b6129286040830184611e7e565b949350505050565b7f4552433732313a207472616e7366657220746f206e6f6e20455243373231526560008201527f63656976657220696d706c656d656e7465720000000000000000000000000000602082015250565b600061298c603283611c2c565b915061299782612930565b604082019050919050565b600060208201905081810360008301526129bb8161297f565b9050919050565b60006129cd82611cd3565b91506129d883611cd3565b92508282039050818111156129f0576129ef612420565b5b92915050565b600081519050919050565b600082825260208201905092915050565b6000612a1d826129f6565b612a278185612a01565b9350612a37818560208601611c3d565b612a4081611c67565b840191505092915050565b6000608082019050612a606000830187611d68565b612a6d6020830186611d68565b612a7a6040830185611e7e565b8181036060830152612a8c8184612a12565b905095945050505050565b600081519050612aa681611b92565b92915050565b600060208284031215612ac257612ac1611b5c565b5b6000612ad084828501612a97565b91505092915050565b7f4552433732313a206d696e7420746f20746865207a65726f2061646472657373600082015250565b6000612b0f602083611c2c565b9150612b1a82612ad9565b602082019050919050565b60006020820190508181036000830152612b3e81612b02565b9050919050565b7f4552433732313a20746f6b656e20616c7265616479206d696e74656400000000600082015250565b6000612b7b601c83611c2c565b9150612b8682612b45565b602082019050919050565b60006020820190508181036000830152612baa81612b6e565b905091905056fe68747470733a2f2f657468657265756d2d626c6f636b636861696e2d646576656c6f7065722e636f6d2f323032322d30362d6e66742d74727566666c652d686172646861742d666f756e6472792f6e6674646174612fa26469706673582212208b1fb4ead79d85b4d892f7e38abedc82ae867a34370fed04c057f72453415b4364736f6c63430008110033",
  "immutableReferences": {},
  "source": "// SPDX-License-Identifier: MIT\npragma solidity 0.8.17;\n\nimport \"@openzeppelin/contracts/token/ERC721/ERC721.sol\";\nimport \"@openzeppelin/contracts/access/Ownable.sol\";\nimport \"@openzeppelin/contracts/utils/Counters.sol\";\nimport \"@ganache/console.log/console.sol\";\n\ncontract Spacebear is ERC721, Ownable {\n    using Counters for Counters.Counter;\n\n    Counters.Counter private _tokenIdCounter;\n\n    constructor() ERC721(\"Spacebear\", \"SBR\") {}\n\n    function _baseURI() internal pure override returns (string memory) {\n        return\n            \"https://ethereum-blockchain-developer.com/2022-06-nft-truffle-hardhat-foundry/nftdata/\";\n    }\n\n    function safeMint(address to) public onlyOwner {\n        uint256 tokenId = _tokenIdCounter.current();\n        _tokenIdCounter.increment();\n        _safeMint(to, tokenId);\n    }\n\n    function buyToken() public payable {\n        uint256 tokenId = _tokenIdCounter.current();\n        require(msg.value == tokenId * 0.1 ether, \"Not enough funds sent\");\n        console.log(\"got here\", tokenId, msg.value);\n        _tokenIdCounter.increment();\n        _safeMint(msg.sender, tokenId);\n    }\n\n    // The following functions are overrides required by Solidity.\n\n    function _burn(uint256 tokenId) internal override(ERC721) {\n        super._burn(tokenId);\n    }\n\n    function tokenURI(uint256 tokenId)\n        public\n        pure\n        override(ERC721)\n        returns (string memory)\n    {\n        return string(abi.encodePacked(_baseURI(), \"_\", tokenId + 1, \".json\"));\n    }\n}\n",
  "sourcePath": "/Users/tyrelle/Desktop/ETH Bootcamp/NFT-Project:Truffle/contracts/SpaceBear.sol",
  "compiler": {
    "name": "solc",
    "version": "0.8.17+commit.8df45f5f.Emscripten.clang"
  },
  "schemaVersion": "3.4.11",
  "updatedAt": "2023-02-13T22:14:59.777Z",
  "networkType": "ethereum",
  "devdoc": {
    "kind": "dev",
    "methods": {
      "approve(address,uint256)": {
        "details": "See {IERC721-approve}."
      },
      "balanceOf(address)": {
        "details": "See {IERC721-balanceOf}."
      },
      "getApproved(uint256)": {
        "details": "See {IERC721-getApproved}."
      },
      "isApprovedForAll(address,address)": {
        "details": "See {IERC721-isApprovedForAll}."
      },
      "name()": {
        "details": "See {IERC721Metadata-name}."
      },
      "owner()": {
        "details": "Returns the address of the current owner."
      },
      "ownerOf(uint256)": {
        "details": "See {IERC721-ownerOf}."
      },
      "renounceOwnership()": {
        "details": "Leaves the contract without owner. It will not be possible to call `onlyOwner` functions anymore. Can only be called by the current owner. NOTE: Renouncing ownership will leave the contract without an owner, thereby removing any functionality that is only available to the owner."
      },
      "safeTransferFrom(address,address,uint256)": {
        "details": "See {IERC721-safeTransferFrom}."
      },
      "safeTransferFrom(address,address,uint256,bytes)": {
        "details": "See {IERC721-safeTransferFrom}."
      },
      "setApprovalForAll(address,bool)": {
        "details": "See {IERC721-setApprovalForAll}."
      },
      "supportsInterface(bytes4)": {
        "details": "See {IERC165-supportsInterface}."
      },
      "symbol()": {
        "details": "See {IERC721Metadata-symbol}."
      },
      "tokenURI(uint256)": {
        "details": "See {IERC721Metadata-tokenURI}."
      },
      "transferFrom(address,address,uint256)": {
        "details": "See {IERC721-transferFrom}."
      },
      "transferOwnership(address)": {
        "details": "Transfers ownership of the contract to a new account (`newOwner`). Can only be called by the current owner."
      }
    },
    "version": 1
  },
  "userdoc": {
    "kind": "user",
    "methods": {},
    "version": 1
  }
}