{
	"itemManager.sol": {
		"ItemManager": {
			"abi": [
				{
					"anonymous": false,
					"inputs": [
						{
							"indexed": false,
							"internalType": "uint256",
							"name": "_itemIndex",
							"type": "uint256"
						},
						{
							"indexed": false,
							"internalType": "uint256",
							"name": "_step",
							"type": "uint256"
						}
					],
					"name": "SupplyChainStep",
					"type": "event"
				},
				{
					"inputs": [
						{
							"internalType": "string",
							"name": "_identifier",
							"type": "string"
						},
						{
							"internalType": "uint256",
							"name": "_itemPrice",
							"type": "uint256"
						}
					],
					"name": "createItem",
					"outputs": [],
					"stateMutability": "nonpayable",
					"type": "function"
				},
				{
					"inputs": [
						{
							"internalType": "uint256",
							"name": "",
							"type": "uint256"
						}
					],
					"name": "items",
					"outputs": [
						{
							"internalType": "string",
							"name": "_identifier",
							"type": "string"
						},
						{
							"internalType": "uint256",
							"name": "_itemPrice",
							"type": "uint256"
						},
						{
							"internalType": "enum ItemManager.SupplyChainState",
							"name": "_state",
							"type": "uint8"
						}
					],
					"stateMutability": "view",
					"type": "function"
				},
				{
					"inputs": [
						{
							"internalType": "uint256",
							"name": "_itemIndex",
							"type": "uint256"
						}
					],
					"name": "triggerDelivery",
					"outputs": [],
					"stateMutability": "nonpayable",
					"type": "function"
				},
				{
					"inputs": [
						{
							"internalType": "uint256",
							"name": "_itemIndex",
							"type": "uint256"
						}
					],
					"name": "triggerPayment",
					"outputs": [],
					"stateMutability": "payable",
					"type": "function"
				}
			],
			"devdoc": {
				"kind": "dev",
				"methods": {},
				"version": 1
			},
			"evm": {
				"assembly": "    /* \"itemManager.sol\":57:1635  contract ItemManager {... */\n  mstore(0x40, 0x80)\n  callvalue\n  dup1\n  iszero\n  tag_1\n  jumpi\n  0x00\n  dup1\n  revert\ntag_1:\n  pop\n  dataSize(sub_0)\n  dup1\n  dataOffset(sub_0)\n  0x00\n  codecopy\n  0x00\n  return\nstop\n\nsub_0: assembly {\n        /* \"itemManager.sol\":57:1635  contract ItemManager {... */\n      mstore(0x40, 0x80)\n      jumpi(tag_1, lt(calldatasize, 0x04))\n      shr(0xe0, calldataload(0x00))\n      dup1\n      0x800fb83f\n      eq\n      tag_2\n      jumpi\n      dup1\n      0x8c551742\n      eq\n      tag_3\n      jumpi\n      dup1\n      0xbfb231d2\n      eq\n      tag_4\n      jumpi\n      dup1\n      0xcd31831e\n      eq\n      tag_5\n      jumpi\n    tag_1:\n      0x00\n      dup1\n      revert\n        /* \"itemManager.sol\":825:1290  function triggerPayment(uint256 _itemIndex) public payable {... */\n    tag_2:\n      tag_6\n      0x04\n      dup1\n      calldatasize\n      sub\n      dup2\n      add\n      swap1\n      tag_7\n      swap2\n      swap1\n      tag_8\n      jump\t// in\n    tag_7:\n      tag_9\n      jump\t// in\n    tag_6:\n      stop\n        /* \"itemManager.sol\":480:819  function createItem(string memory _identifier, uint256 _itemPrice) public {... */\n    tag_3:\n      callvalue\n      dup1\n      iszero\n      tag_10\n      jumpi\n      0x00\n      dup1\n      revert\n    tag_10:\n      pop\n      tag_11\n      0x04\n      dup1\n      calldatasize\n      sub\n      dup2\n      add\n      swap1\n      tag_12\n      swap2\n      swap1\n      tag_13\n      jump\t// in\n    tag_12:\n      tag_14\n      jump\t// in\n    tag_11:\n      stop\n        /* \"itemManager.sol\":347:386  mapping(uint256 => S_Item) public items */\n    tag_4:\n      callvalue\n      dup1\n      iszero\n      tag_15\n      jumpi\n      0x00\n      dup1\n      revert\n    tag_15:\n      pop\n      tag_16\n      0x04\n      dup1\n      calldatasize\n      sub\n      dup2\n      add\n      swap1\n      tag_17\n      swap2\n      swap1\n      tag_8\n      jump\t// in\n    tag_17:\n      tag_18\n      jump\t// in\n    tag_16:\n      mload(0x40)\n      tag_19\n      swap4\n      swap3\n      swap2\n      swap1\n      tag_20\n      jump\t// in\n    tag_19:\n      mload(0x40)\n      dup1\n      swap2\n      sub\n      swap1\n      return\n        /* \"itemManager.sol\":1296:1633  function triggerDelivery(uint256 _itemIndex) public {... */\n    tag_5:\n      callvalue\n      dup1\n      iszero\n      tag_21\n      jumpi\n      0x00\n      dup1\n      revert\n    tag_21:\n      pop\n      tag_22\n      0x04\n      dup1\n      calldatasize\n      sub\n      dup2\n      add\n      swap1\n      tag_23\n      swap2\n      swap1\n      tag_8\n      jump\t// in\n    tag_23:\n      tag_24\n      jump\t// in\n    tag_22:\n      stop\n        /* \"itemManager.sol\":825:1290  function triggerPayment(uint256 _itemIndex) public payable {... */\n    tag_9:\n        /* \"itemManager.sol\":947:956  msg.value */\n      callvalue\n        /* \"itemManager.sol\":915:920  items */\n      0x00\n        /* \"itemManager.sol\":915:932  items[_itemIndex] */\n      dup1\n        /* \"itemManager.sol\":921:931  _itemIndex */\n      dup4\n        /* \"itemManager.sol\":915:932  items[_itemIndex] */\n      dup2\n      mstore\n      0x20\n      add\n      swap1\n      dup2\n      mstore\n      0x20\n      add\n      0x00\n      keccak256\n        /* \"itemManager.sol\":915:943  items[_itemIndex]._itemPrice */\n      0x01\n      add\n      sload\n        /* \"itemManager.sol\":915:956  items[_itemIndex]._itemPrice == msg.value */\n      eq\n        /* \"itemManager.sol\":894:1009  require(... */\n      tag_26\n      jumpi\n      mload(0x40)\n      0x08c379a000000000000000000000000000000000000000000000000000000000\n      dup2\n      mstore\n      0x04\n      add\n      tag_27\n      swap1\n      tag_28\n      jump\t// in\n    tag_27:\n      mload(0x40)\n      dup1\n      swap2\n      sub\n      swap1\n      revert\n    tag_26:\n        /* \"itemManager.sol\":1068:1092  SupplyChainState.Created */\n      0x00\n        /* \"itemManager.sol\":1040:1092  items[_itemIndex]._state == SupplyChainState.Created */\n      0x02\n      dup2\n      gt\n      iszero\n      tag_29\n      jumpi\n      tag_30\n      tag_31\n      jump\t// in\n    tag_30:\n    tag_29:\n        /* \"itemManager.sol\":1040:1045  items */\n      0x00\n        /* \"itemManager.sol\":1040:1057  items[_itemIndex] */\n      dup1\n        /* \"itemManager.sol\":1046:1056  _itemIndex */\n      dup4\n        /* \"itemManager.sol\":1040:1057  items[_itemIndex] */\n      dup2\n      mstore\n      0x20\n      add\n      swap1\n      dup2\n      mstore\n      0x20\n      add\n      0x00\n      keccak256\n        /* \"itemManager.sol\":1040:1064  items[_itemIndex]._state */\n      0x02\n      add\n      0x00\n      swap1\n      sload\n      swap1\n      0x0100\n      exp\n      swap1\n      div\n      0xff\n      and\n        /* \"itemManager.sol\":1040:1092  items[_itemIndex]._state == SupplyChainState.Created */\n      0x02\n      dup2\n      gt\n      iszero\n      tag_32\n      jumpi\n      tag_33\n      tag_31\n      jump\t// in\n    tag_33:\n    tag_32:\n      eq\n        /* \"itemManager.sol\":1019:1146  require(... */\n      tag_34\n      jumpi\n      mload(0x40)\n      0x08c379a000000000000000000000000000000000000000000000000000000000\n      dup2\n      mstore\n      0x04\n      add\n      tag_35\n      swap1\n      tag_36\n      jump\t// in\n    tag_35:\n      mload(0x40)\n      dup1\n      swap2\n      sub\n      swap1\n      revert\n    tag_34:\n        /* \"itemManager.sol\":1184:1205  SupplyChainState.Paid */\n      0x01\n        /* \"itemManager.sol\":1157:1162  items */\n      0x00\n        /* \"itemManager.sol\":1157:1174  items[_itemIndex] */\n      dup1\n        /* \"itemManager.sol\":1163:1173  _itemIndex */\n      dup4\n        /* \"itemManager.sol\":1157:1174  items[_itemIndex] */\n      dup2\n      mstore\n      0x20\n      add\n      swap1\n      dup2\n      mstore\n      0x20\n      add\n      0x00\n      keccak256\n        /* \"itemManager.sol\":1157:1181  items[_itemIndex]._state */\n      0x02\n      add\n      0x00\n        /* \"itemManager.sol\":1157:1205  items[_itemIndex]._state = SupplyChainState.Paid */\n      0x0100\n      exp\n      dup2\n      sload\n      dup2\n      0xff\n      mul\n      not\n      and\n      swap1\n      dup4\n      0x02\n      dup2\n      gt\n      iszero\n      tag_37\n      jumpi\n      tag_38\n      tag_31\n      jump\t// in\n    tag_38:\n    tag_37:\n      mul\n      or\n      swap1\n      sstore\n      pop\n        /* \"itemManager.sol\":1221:1283  SupplyChainStep(_itemIndex, uint256(items[_itemIndex]._state)) */\n      0x8c198761ba3d324d155cbaf96f0ac38a531c085089e49106d95352535a1110c2\n        /* \"itemManager.sol\":1237:1247  _itemIndex */\n      dup2\n        /* \"itemManager.sol\":1257:1262  items */\n      0x00\n        /* \"itemManager.sol\":1257:1274  items[_itemIndex] */\n      dup1\n        /* \"itemManager.sol\":1263:1273  _itemIndex */\n      dup5\n        /* \"itemManager.sol\":1257:1274  items[_itemIndex] */\n      dup2\n      mstore\n      0x20\n      add\n      swap1\n      dup2\n      mstore\n      0x20\n      add\n      0x00\n      keccak256\n        /* \"itemManager.sol\":1257:1281  items[_itemIndex]._state */\n      0x02\n      add\n      0x00\n      swap1\n      sload\n      swap1\n      0x0100\n      exp\n      swap1\n      div\n      0xff\n      and\n        /* \"itemManager.sol\":1249:1282  uint256(items[_itemIndex]._state) */\n      0x02\n      dup2\n      gt\n      iszero\n      tag_39\n      jumpi\n      tag_40\n      tag_31\n      jump\t// in\n    tag_40:\n    tag_39:\n        /* \"itemManager.sol\":1221:1283  SupplyChainStep(_itemIndex, uint256(items[_itemIndex]._state)) */\n      mload(0x40)\n      tag_41\n      swap3\n      swap2\n      swap1\n      tag_42\n      jump\t// in\n    tag_41:\n      mload(0x40)\n      dup1\n      swap2\n      sub\n      swap1\n      log1\n        /* \"itemManager.sol\":825:1290  function triggerPayment(uint256 _itemIndex) public payable {... */\n      pop\n      jump\t// out\n        /* \"itemManager.sol\":480:819  function createItem(string memory _identifier, uint256 _itemPrice) public {... */\n    tag_14:\n        /* \"itemManager.sol\":595:606  _identifier */\n      dup2\n        /* \"itemManager.sol\":564:569  items */\n      0x00\n        /* \"itemManager.sol\":564:580  items[itemIndex] */\n      dup1\n        /* \"itemManager.sol\":570:579  itemIndex */\n      sload(0x01)\n        /* \"itemManager.sol\":564:580  items[itemIndex] */\n      dup2\n      mstore\n      0x20\n      add\n      swap1\n      dup2\n      mstore\n      0x20\n      add\n      0x00\n      keccak256\n        /* \"itemManager.sol\":564:592  items[itemIndex]._identifier */\n      0x00\n      add\n        /* \"itemManager.sol\":564:606  items[itemIndex]._identifier = _identifier */\n      swap1\n      dup2\n      tag_44\n      swap2\n      swap1\n      tag_45\n      jump\t// in\n    tag_44:\n      pop\n        /* \"itemManager.sol\":646:656  _itemPrice */\n      dup1\n        /* \"itemManager.sol\":616:621  items */\n      0x00\n        /* \"itemManager.sol\":616:632  items[itemIndex] */\n      dup1\n        /* \"itemManager.sol\":622:631  itemIndex */\n      sload(0x01)\n        /* \"itemManager.sol\":616:632  items[itemIndex] */\n      dup2\n      mstore\n      0x20\n      add\n      swap1\n      dup2\n      mstore\n      0x20\n      add\n      0x00\n      keccak256\n        /* \"itemManager.sol\":616:643  items[itemIndex]._itemPrice */\n      0x01\n      add\n        /* \"itemManager.sol\":616:656  items[itemIndex]._itemPrice = _itemPrice */\n      dup2\n      swap1\n      sstore\n      pop\n        /* \"itemManager.sol\":692:716  SupplyChainState.Created */\n      0x00\n        /* \"itemManager.sol\":666:671  items */\n      dup1\n        /* \"itemManager.sol\":666:682  items[itemIndex] */\n      0x00\n        /* \"itemManager.sol\":672:681  itemIndex */\n      sload(0x01)\n        /* \"itemManager.sol\":666:682  items[itemIndex] */\n      dup2\n      mstore\n      0x20\n      add\n      swap1\n      dup2\n      mstore\n      0x20\n      add\n      0x00\n      keccak256\n        /* \"itemManager.sol\":666:689  items[itemIndex]._state */\n      0x02\n      add\n      0x00\n        /* \"itemManager.sol\":666:716  items[itemIndex]._state = SupplyChainState.Created */\n      0x0100\n      exp\n      dup2\n      sload\n      dup2\n      0xff\n      mul\n      not\n      and\n      swap1\n      dup4\n      0x02\n      dup2\n      gt\n      iszero\n      tag_46\n      jumpi\n      tag_47\n      tag_31\n      jump\t// in\n    tag_47:\n    tag_46:\n      mul\n      or\n      swap1\n      sstore\n      pop\n        /* \"itemManager.sol\":731:791  SupplyChainStep(itemIndex, uint256(items[itemIndex]._state)) */\n      0x8c198761ba3d324d155cbaf96f0ac38a531c085089e49106d95352535a1110c2\n        /* \"itemManager.sol\":747:756  itemIndex */\n      sload(0x01)\n        /* \"itemManager.sol\":766:771  items */\n      0x00\n        /* \"itemManager.sol\":766:782  items[itemIndex] */\n      dup1\n        /* \"itemManager.sol\":772:781  itemIndex */\n      sload(0x01)\n        /* \"itemManager.sol\":766:782  items[itemIndex] */\n      dup2\n      mstore\n      0x20\n      add\n      swap1\n      dup2\n      mstore\n      0x20\n      add\n      0x00\n      keccak256\n        /* \"itemManager.sol\":766:789  items[itemIndex]._state */\n      0x02\n      add\n      0x00\n      swap1\n      sload\n      swap1\n      0x0100\n      exp\n      swap1\n      div\n      0xff\n      and\n        /* \"itemManager.sol\":758:790  uint256(items[itemIndex]._state) */\n      0x02\n      dup2\n      gt\n      iszero\n      tag_48\n      jumpi\n      tag_49\n      tag_31\n      jump\t// in\n    tag_49:\n    tag_48:\n        /* \"itemManager.sol\":731:791  SupplyChainStep(itemIndex, uint256(items[itemIndex]._state)) */\n      mload(0x40)\n      tag_50\n      swap3\n      swap2\n      swap1\n      tag_42\n      jump\t// in\n    tag_50:\n      mload(0x40)\n      dup1\n      swap2\n      sub\n      swap1\n      log1\n        /* \"itemManager.sol\":801:810  itemIndex */\n      0x01\n      0x00\n        /* \"itemManager.sol\":801:812  itemIndex++ */\n      dup2\n      sload\n      dup1\n      swap3\n      swap2\n      swap1\n      tag_51\n      swap1\n      tag_52\n      jump\t// in\n    tag_51:\n      swap2\n      swap1\n      pop\n      sstore\n      pop\n        /* \"itemManager.sol\":480:819  function createItem(string memory _identifier, uint256 _itemPrice) public {... */\n      pop\n      pop\n      jump\t// out\n        /* \"itemManager.sol\":347:386  mapping(uint256 => S_Item) public items */\n    tag_18:\n      mstore(0x20, 0x00)\n      dup1\n      0x00\n      mstore\n      keccak256(0x00, 0x40)\n      0x00\n      swap2\n      pop\n      swap1\n      pop\n      dup1\n      0x00\n      add\n      dup1\n      sload\n      tag_53\n      swap1\n      tag_54\n      jump\t// in\n    tag_53:\n      dup1\n      0x1f\n      add\n      0x20\n      dup1\n      swap2\n      div\n      mul\n      0x20\n      add\n      mload(0x40)\n      swap1\n      dup2\n      add\n      0x40\n      mstore\n      dup1\n      swap3\n      swap2\n      swap1\n      dup2\n      dup2\n      mstore\n      0x20\n      add\n      dup3\n      dup1\n      sload\n      tag_55\n      swap1\n      tag_54\n      jump\t// in\n    tag_55:\n      dup1\n      iszero\n      tag_56\n      jumpi\n      dup1\n      0x1f\n      lt\n      tag_57\n      jumpi\n      0x0100\n      dup1\n      dup4\n      sload\n      div\n      mul\n      dup4\n      mstore\n      swap2\n      0x20\n      add\n      swap2\n      jump(tag_56)\n    tag_57:\n      dup3\n      add\n      swap2\n      swap1\n      0x00\n      mstore\n      keccak256(0x00, 0x20)\n      swap1\n    tag_58:\n      dup2\n      sload\n      dup2\n      mstore\n      swap1\n      0x01\n      add\n      swap1\n      0x20\n      add\n      dup1\n      dup4\n      gt\n      tag_58\n      jumpi\n      dup3\n      swap1\n      sub\n      0x1f\n      and\n      dup3\n      add\n      swap2\n    tag_56:\n      pop\n      pop\n      pop\n      pop\n      pop\n      swap1\n      dup1\n      0x01\n      add\n      sload\n      swap1\n      dup1\n      0x02\n      add\n      0x00\n      swap1\n      sload\n      swap1\n      0x0100\n      exp\n      swap1\n      div\n      0xff\n      and\n      swap1\n      pop\n      dup4\n      jump\t// out\n        /* \"itemManager.sol\":1296:1633  function triggerDelivery(uint256 _itemIndex) public {... */\n    tag_24:\n        /* \"itemManager.sol\":1407:1431  SupplyChainState.Created */\n      0x00\n        /* \"itemManager.sol\":1379:1431  items[_itemIndex]._state == SupplyChainState.Created */\n      0x02\n      dup2\n      gt\n      iszero\n      tag_60\n      jumpi\n      tag_61\n      tag_31\n      jump\t// in\n    tag_61:\n    tag_60:\n        /* \"itemManager.sol\":1379:1384  items */\n      0x00\n        /* \"itemManager.sol\":1379:1396  items[_itemIndex] */\n      dup1\n        /* \"itemManager.sol\":1385:1395  _itemIndex */\n      dup4\n        /* \"itemManager.sol\":1379:1396  items[_itemIndex] */\n      dup2\n      mstore\n      0x20\n      add\n      swap1\n      dup2\n      mstore\n      0x20\n      add\n      0x00\n      keccak256\n        /* \"itemManager.sol\":1379:1403  items[_itemIndex]._state */\n      0x02\n      add\n      0x00\n      swap1\n      sload\n      swap1\n      0x0100\n      exp\n      swap1\n      div\n      0xff\n      and\n        /* \"itemManager.sol\":1379:1431  items[_itemIndex]._state == SupplyChainState.Created */\n      0x02\n      dup2\n      gt\n      iszero\n      tag_62\n      jumpi\n      tag_63\n      tag_31\n      jump\t// in\n    tag_63:\n    tag_62:\n      eq\n        /* \"itemManager.sol\":1358:1485  require(... */\n      tag_64\n      jumpi\n      mload(0x40)\n      0x08c379a000000000000000000000000000000000000000000000000000000000\n      dup2\n      mstore\n      0x04\n      add\n      tag_65\n      swap1\n      tag_36\n      jump\t// in\n    tag_65:\n      mload(0x40)\n      dup1\n      swap2\n      sub\n      swap1\n      revert\n    tag_64:\n        /* \"itemManager.sol\":1522:1548  SupplyChainState.Delivered */\n      0x02\n        /* \"itemManager.sol\":1495:1500  items */\n      0x00\n        /* \"itemManager.sol\":1495:1512  items[_itemIndex] */\n      dup1\n        /* \"itemManager.sol\":1501:1511  _itemIndex */\n      dup4\n        /* \"itemManager.sol\":1495:1512  items[_itemIndex] */\n      dup2\n      mstore\n      0x20\n      add\n      swap1\n      dup2\n      mstore\n      0x20\n      add\n      0x00\n      keccak256\n        /* \"itemManager.sol\":1495:1519  items[_itemIndex]._state */\n      0x02\n      add\n      0x00\n        /* \"itemManager.sol\":1495:1548  items[_itemIndex]._state = SupplyChainState.Delivered */\n      0x0100\n      exp\n      dup2\n      sload\n      dup2\n      0xff\n      mul\n      not\n      and\n      swap1\n      dup4\n      0x02\n      dup2\n      gt\n      iszero\n      tag_66\n      jumpi\n      tag_67\n      tag_31\n      jump\t// in\n    tag_67:\n    tag_66:\n      mul\n      or\n      swap1\n      sstore\n      pop\n        /* \"itemManager.sol\":1564:1626  SupplyChainStep(_itemIndex, uint256(items[_itemIndex]._state)) */\n      0x8c198761ba3d324d155cbaf96f0ac38a531c085089e49106d95352535a1110c2\n        /* \"itemManager.sol\":1580:1590  _itemIndex */\n      dup2\n        /* \"itemManager.sol\":1600:1605  items */\n      0x00\n        /* \"itemManager.sol\":1600:1617  items[_itemIndex] */\n      dup1\n        /* \"itemManager.sol\":1606:1616  _itemIndex */\n      dup5\n        /* \"itemManager.sol\":1600:1617  items[_itemIndex] */\n      dup2\n      mstore\n      0x20\n      add\n      swap1\n      dup2\n      mstore\n      0x20\n      add\n      0x00\n      keccak256\n        /* \"itemManager.sol\":1600:1624  items[_itemIndex]._state */\n      0x02\n      add\n      0x00\n      swap1\n      sload\n      swap1\n      0x0100\n      exp\n      swap1\n      div\n      0xff\n      and\n        /* \"itemManager.sol\":1592:1625  uint256(items[_itemIndex]._state) */\n      0x02\n      dup2\n      gt\n      iszero\n      tag_68\n      jumpi\n      tag_69\n      tag_31\n      jump\t// in\n    tag_69:\n    tag_68:\n        /* \"itemManager.sol\":1564:1626  SupplyChainStep(_itemIndex, uint256(items[_itemIndex]._state)) */\n      mload(0x40)\n      tag_70\n      swap3\n      swap2\n      swap1\n      tag_42\n      jump\t// in\n    tag_70:\n      mload(0x40)\n      dup1\n      swap2\n      sub\n      swap1\n      log1\n        /* \"itemManager.sol\":1296:1633  function triggerDelivery(uint256 _itemIndex) public {... */\n      pop\n      jump\t// out\n        /* \"#utility.yul\":7:82   */\n    tag_71:\n        /* \"#utility.yul\":40:46   */\n      0x00\n        /* \"#utility.yul\":73:75   */\n      0x40\n        /* \"#utility.yul\":67:76   */\n      mload\n        /* \"#utility.yul\":57:76   */\n      swap1\n      pop\n        /* \"#utility.yul\":7:82   */\n      swap1\n      jump\t// out\n        /* \"#utility.yul\":88:205   */\n    tag_72:\n        /* \"#utility.yul\":197:198   */\n      0x00\n        /* \"#utility.yul\":194:195   */\n      dup1\n        /* \"#utility.yul\":187:199   */\n      revert\n        /* \"#utility.yul\":211:328   */\n    tag_73:\n        /* \"#utility.yul\":320:321   */\n      0x00\n        /* \"#utility.yul\":317:318   */\n      dup1\n        /* \"#utility.yul\":310:322   */\n      revert\n        /* \"#utility.yul\":334:411   */\n    tag_74:\n        /* \"#utility.yul\":371:378   */\n      0x00\n        /* \"#utility.yul\":400:405   */\n      dup2\n        /* \"#utility.yul\":389:405   */\n      swap1\n      pop\n        /* \"#utility.yul\":334:411   */\n      swap2\n      swap1\n      pop\n      jump\t// out\n        /* \"#utility.yul\":417:539   */\n    tag_75:\n        /* \"#utility.yul\":490:514   */\n      tag_123\n        /* \"#utility.yul\":508:513   */\n      dup2\n        /* \"#utility.yul\":490:514   */\n      tag_74\n      jump\t// in\n    tag_123:\n        /* \"#utility.yul\":483:488   */\n      dup2\n        /* \"#utility.yul\":480:515   */\n      eq\n        /* \"#utility.yul\":470:533   */\n      tag_124\n      jumpi\n        /* \"#utility.yul\":529:530   */\n      0x00\n        /* \"#utility.yul\":526:527   */\n      dup1\n        /* \"#utility.yul\":519:531   */\n      revert\n        /* \"#utility.yul\":470:533   */\n    tag_124:\n        /* \"#utility.yul\":417:539   */\n      pop\n      jump\t// out\n        /* \"#utility.yul\":545:684   */\n    tag_76:\n        /* \"#utility.yul\":591:596   */\n      0x00\n        /* \"#utility.yul\":629:635   */\n      dup2\n        /* \"#utility.yul\":616:636   */\n      calldataload\n        /* \"#utility.yul\":607:636   */\n      swap1\n      pop\n        /* \"#utility.yul\":645:678   */\n      tag_126\n        /* \"#utility.yul\":672:677   */\n      dup2\n        /* \"#utility.yul\":645:678   */\n      tag_75\n      jump\t// in\n    tag_126:\n        /* \"#utility.yul\":545:684   */\n      swap3\n      swap2\n      pop\n      pop\n      jump\t// out\n        /* \"#utility.yul\":690:1019   */\n    tag_8:\n        /* \"#utility.yul\":749:755   */\n      0x00\n        /* \"#utility.yul\":798:800   */\n      0x20\n        /* \"#utility.yul\":786:795   */\n      dup3\n        /* \"#utility.yul\":777:784   */\n      dup5\n        /* \"#utility.yul\":773:796   */\n      sub\n        /* \"#utility.yul\":769:801   */\n      slt\n        /* \"#utility.yul\":766:885   */\n      iszero\n      tag_128\n      jumpi\n        /* \"#utility.yul\":804:883   */\n      tag_129\n      tag_72\n      jump\t// in\n    tag_129:\n        /* \"#utility.yul\":766:885   */\n    tag_128:\n        /* \"#utility.yul\":924:925   */\n      0x00\n        /* \"#utility.yul\":949:1002   */\n      tag_130\n        /* \"#utility.yul\":994:1001   */\n      dup5\n        /* \"#utility.yul\":985:991   */\n      dup3\n        /* \"#utility.yul\":974:983   */\n      dup6\n        /* \"#utility.yul\":970:992   */\n      add\n        /* \"#utility.yul\":949:1002   */\n      tag_76\n      jump\t// in\n    tag_130:\n        /* \"#utility.yul\":939:1002   */\n      swap2\n      pop\n        /* \"#utility.yul\":895:1012   */\n      pop\n        /* \"#utility.yul\":690:1019   */\n      swap3\n      swap2\n      pop\n      pop\n      jump\t// out\n        /* \"#utility.yul\":1025:1142   */\n    tag_77:\n        /* \"#utility.yul\":1134:1135   */\n      0x00\n        /* \"#utility.yul\":1131:1132   */\n      dup1\n        /* \"#utility.yul\":1124:1136   */\n      revert\n        /* \"#utility.yul\":1148:1265   */\n    tag_78:\n        /* \"#utility.yul\":1257:1258   */\n      0x00\n        /* \"#utility.yul\":1254:1255   */\n      dup1\n        /* \"#utility.yul\":1247:1259   */\n      revert\n        /* \"#utility.yul\":1271:1373   */\n    tag_79:\n        /* \"#utility.yul\":1312:1318   */\n      0x00\n        /* \"#utility.yul\":1363:1365   */\n      0x1f\n        /* \"#utility.yul\":1359:1366   */\n      not\n        /* \"#utility.yul\":1354:1356   */\n      0x1f\n        /* \"#utility.yul\":1347:1352   */\n      dup4\n        /* \"#utility.yul\":1343:1357   */\n      add\n        /* \"#utility.yul\":1339:1367   */\n      and\n        /* \"#utility.yul\":1329:1367   */\n      swap1\n      pop\n        /* \"#utility.yul\":1271:1373   */\n      swap2\n      swap1\n      pop\n      jump\t// out\n        /* \"#utility.yul\":1379:1559   */\n    tag_80:\n        /* \"#utility.yul\":1427:1504   */\n      0x4e487b7100000000000000000000000000000000000000000000000000000000\n        /* \"#utility.yul\":1424:1425   */\n      0x00\n        /* \"#utility.yul\":1417:1505   */\n      mstore\n        /* \"#utility.yul\":1524:1528   */\n      0x41\n        /* \"#utility.yul\":1521:1522   */\n      0x04\n        /* \"#utility.yul\":1514:1529   */\n      mstore\n        /* \"#utility.yul\":1548:1552   */\n      0x24\n        /* \"#utility.yul\":1545:1546   */\n      0x00\n        /* \"#utility.yul\":1538:1553   */\n      revert\n        /* \"#utility.yul\":1565:1846   */\n    tag_81:\n        /* \"#utility.yul\":1648:1675   */\n      tag_136\n        /* \"#utility.yul\":1670:1674   */\n      dup3\n        /* \"#utility.yul\":1648:1675   */\n      tag_79\n      jump\t// in\n    tag_136:\n        /* \"#utility.yul\":1640:1646   */\n      dup2\n        /* \"#utility.yul\":1636:1676   */\n      add\n        /* \"#utility.yul\":1778:1784   */\n      dup2\n        /* \"#utility.yul\":1766:1776   */\n      dup2\n        /* \"#utility.yul\":1763:1785   */\n      lt\n        /* \"#utility.yul\":1742:1760   */\n      0xffffffffffffffff\n        /* \"#utility.yul\":1730:1740   */\n      dup3\n        /* \"#utility.yul\":1727:1761   */\n      gt\n        /* \"#utility.yul\":1724:1786   */\n      or\n        /* \"#utility.yul\":1721:1809   */\n      iszero\n      tag_137\n      jumpi\n        /* \"#utility.yul\":1789:1807   */\n      tag_138\n      tag_80\n      jump\t// in\n    tag_138:\n        /* \"#utility.yul\":1721:1809   */\n    tag_137:\n        /* \"#utility.yul\":1829:1839   */\n      dup1\n        /* \"#utility.yul\":1825:1827   */\n      0x40\n        /* \"#utility.yul\":1818:1840   */\n      mstore\n        /* \"#utility.yul\":1608:1846   */\n      pop\n        /* \"#utility.yul\":1565:1846   */\n      pop\n      pop\n      jump\t// out\n        /* \"#utility.yul\":1852:1981   */\n    tag_82:\n        /* \"#utility.yul\":1886:1892   */\n      0x00\n        /* \"#utility.yul\":1913:1933   */\n      tag_140\n      tag_71\n      jump\t// in\n    tag_140:\n        /* \"#utility.yul\":1903:1933   */\n      swap1\n      pop\n        /* \"#utility.yul\":1942:1975   */\n      tag_141\n        /* \"#utility.yul\":1970:1974   */\n      dup3\n        /* \"#utility.yul\":1962:1968   */\n      dup3\n        /* \"#utility.yul\":1942:1975   */\n      tag_81\n      jump\t// in\n    tag_141:\n        /* \"#utility.yul\":1852:1981   */\n      swap2\n      swap1\n      pop\n      jump\t// out\n        /* \"#utility.yul\":1987:2295   */\n    tag_83:\n        /* \"#utility.yul\":2049:2053   */\n      0x00\n        /* \"#utility.yul\":2139:2157   */\n      0xffffffffffffffff\n        /* \"#utility.yul\":2131:2137   */\n      dup3\n        /* \"#utility.yul\":2128:2158   */\n      gt\n        /* \"#utility.yul\":2125:2181   */\n      iszero\n      tag_143\n      jumpi\n        /* \"#utility.yul\":2161:2179   */\n      tag_144\n      tag_80\n      jump\t// in\n    tag_144:\n        /* \"#utility.yul\":2125:2181   */\n    tag_143:\n        /* \"#utility.yul\":2199:2228   */\n      tag_145\n        /* \"#utility.yul\":2221:2227   */\n      dup3\n        /* \"#utility.yul\":2199:2228   */\n      tag_79\n      jump\t// in\n    tag_145:\n        /* \"#utility.yul\":2191:2228   */\n      swap1\n      pop\n        /* \"#utility.yul\":2283:2287   */\n      0x20\n        /* \"#utility.yul\":2277:2281   */\n      dup2\n        /* \"#utility.yul\":2273:2288   */\n      add\n        /* \"#utility.yul\":2265:2288   */\n      swap1\n      pop\n        /* \"#utility.yul\":1987:2295   */\n      swap2\n      swap1\n      pop\n      jump\t// out\n        /* \"#utility.yul\":2301:2447   */\n    tag_84:\n        /* \"#utility.yul\":2398:2404   */\n      dup3\n        /* \"#utility.yul\":2393:2396   */\n      dup2\n        /* \"#utility.yul\":2388:2391   */\n      dup4\n        /* \"#utility.yul\":2375:2405   */\n      calldatacopy\n        /* \"#utility.yul\":2439:2440   */\n      0x00\n        /* \"#utility.yul\":2430:2436   */\n      dup4\n        /* \"#utility.yul\":2425:2428   */\n      dup4\n        /* \"#utility.yul\":2421:2437   */\n      add\n        /* \"#utility.yul\":2414:2441   */\n      mstore\n        /* \"#utility.yul\":2301:2447   */\n      pop\n      pop\n      pop\n      jump\t// out\n        /* \"#utility.yul\":2453:2878   */\n    tag_85:\n        /* \"#utility.yul\":2531:2536   */\n      0x00\n        /* \"#utility.yul\":2556:2622   */\n      tag_148\n        /* \"#utility.yul\":2572:2621   */\n      tag_149\n        /* \"#utility.yul\":2614:2620   */\n      dup5\n        /* \"#utility.yul\":2572:2621   */\n      tag_83\n      jump\t// in\n    tag_149:\n        /* \"#utility.yul\":2556:2622   */\n      tag_82\n      jump\t// in\n    tag_148:\n        /* \"#utility.yul\":2547:2622   */\n      swap1\n      pop\n        /* \"#utility.yul\":2645:2651   */\n      dup3\n        /* \"#utility.yul\":2638:2643   */\n      dup2\n        /* \"#utility.yul\":2631:2652   */\n      mstore\n        /* \"#utility.yul\":2683:2687   */\n      0x20\n        /* \"#utility.yul\":2676:2681   */\n      dup2\n        /* \"#utility.yul\":2672:2688   */\n      add\n        /* \"#utility.yul\":2721:2724   */\n      dup5\n        /* \"#utility.yul\":2712:2718   */\n      dup5\n        /* \"#utility.yul\":2707:2710   */\n      dup5\n        /* \"#utility.yul\":2703:2719   */\n      add\n        /* \"#utility.yul\":2700:2725   */\n      gt\n        /* \"#utility.yul\":2697:2809   */\n      iszero\n      tag_150\n      jumpi\n        /* \"#utility.yul\":2728:2807   */\n      tag_151\n      tag_78\n      jump\t// in\n    tag_151:\n        /* \"#utility.yul\":2697:2809   */\n    tag_150:\n        /* \"#utility.yul\":2818:2872   */\n      tag_152\n        /* \"#utility.yul\":2865:2871   */\n      dup5\n        /* \"#utility.yul\":2860:2863   */\n      dup3\n        /* \"#utility.yul\":2855:2858   */\n      dup6\n        /* \"#utility.yul\":2818:2872   */\n      tag_84\n      jump\t// in\n    tag_152:\n        /* \"#utility.yul\":2537:2878   */\n      pop\n        /* \"#utility.yul\":2453:2878   */\n      swap4\n      swap3\n      pop\n      pop\n      pop\n      jump\t// out\n        /* \"#utility.yul\":2898:3238   */\n    tag_86:\n        /* \"#utility.yul\":2954:2959   */\n      0x00\n        /* \"#utility.yul\":3003:3006   */\n      dup3\n        /* \"#utility.yul\":2996:3000   */\n      0x1f\n        /* \"#utility.yul\":2988:2994   */\n      dup4\n        /* \"#utility.yul\":2984:3001   */\n      add\n        /* \"#utility.yul\":2980:3007   */\n      slt\n        /* \"#utility.yul\":2970:3092   */\n      tag_154\n      jumpi\n        /* \"#utility.yul\":3011:3090   */\n      tag_155\n      tag_77\n      jump\t// in\n    tag_155:\n        /* \"#utility.yul\":2970:3092   */\n    tag_154:\n        /* \"#utility.yul\":3128:3134   */\n      dup2\n        /* \"#utility.yul\":3115:3135   */\n      calldataload\n        /* \"#utility.yul\":3153:3232   */\n      tag_156\n        /* \"#utility.yul\":3228:3231   */\n      dup5\n        /* \"#utility.yul\":3220:3226   */\n      dup3\n        /* \"#utility.yul\":3213:3217   */\n      0x20\n        /* \"#utility.yul\":3205:3211   */\n      dup7\n        /* \"#utility.yul\":3201:3218   */\n      add\n        /* \"#utility.yul\":3153:3232   */\n      tag_85\n      jump\t// in\n    tag_156:\n        /* \"#utility.yul\":3144:3232   */\n      swap2\n      pop\n        /* \"#utility.yul\":2960:3238   */\n      pop\n        /* \"#utility.yul\":2898:3238   */\n      swap3\n      swap2\n      pop\n      pop\n      jump\t// out\n        /* \"#utility.yul\":3244:3898   */\n    tag_13:\n        /* \"#utility.yul\":3322:3328   */\n      0x00\n        /* \"#utility.yul\":3330:3336   */\n      dup1\n        /* \"#utility.yul\":3379:3381   */\n      0x40\n        /* \"#utility.yul\":3367:3376   */\n      dup4\n        /* \"#utility.yul\":3358:3365   */\n      dup6\n        /* \"#utility.yul\":3354:3377   */\n      sub\n        /* \"#utility.yul\":3350:3382   */\n      slt\n        /* \"#utility.yul\":3347:3466   */\n      iszero\n      tag_158\n      jumpi\n        /* \"#utility.yul\":3385:3464   */\n      tag_159\n      tag_72\n      jump\t// in\n    tag_159:\n        /* \"#utility.yul\":3347:3466   */\n    tag_158:\n        /* \"#utility.yul\":3533:3534   */\n      0x00\n        /* \"#utility.yul\":3522:3531   */\n      dup4\n        /* \"#utility.yul\":3518:3535   */\n      add\n        /* \"#utility.yul\":3505:3536   */\n      calldataload\n        /* \"#utility.yul\":3563:3581   */\n      0xffffffffffffffff\n        /* \"#utility.yul\":3555:3561   */\n      dup2\n        /* \"#utility.yul\":3552:3582   */\n      gt\n        /* \"#utility.yul\":3549:3666   */\n      iszero\n      tag_160\n      jumpi\n        /* \"#utility.yul\":3585:3664   */\n      tag_161\n      tag_73\n      jump\t// in\n    tag_161:\n        /* \"#utility.yul\":3549:3666   */\n    tag_160:\n        /* \"#utility.yul\":3690:3753   */\n      tag_162\n        /* \"#utility.yul\":3745:3752   */\n      dup6\n        /* \"#utility.yul\":3736:3742   */\n      dup3\n        /* \"#utility.yul\":3725:3734   */\n      dup7\n        /* \"#utility.yul\":3721:3743   */\n      add\n        /* \"#utility.yul\":3690:3753   */\n      tag_86\n      jump\t// in\n    tag_162:\n        /* \"#utility.yul\":3680:3753   */\n      swap3\n      pop\n        /* \"#utility.yul\":3476:3763   */\n      pop\n        /* \"#utility.yul\":3802:3804   */\n      0x20\n        /* \"#utility.yul\":3828:3881   */\n      tag_163\n        /* \"#utility.yul\":3873:3880   */\n      dup6\n        /* \"#utility.yul\":3864:3870   */\n      dup3\n        /* \"#utility.yul\":3853:3862   */\n      dup7\n        /* \"#utility.yul\":3849:3871   */\n      add\n        /* \"#utility.yul\":3828:3881   */\n      tag_76\n      jump\t// in\n    tag_163:\n        /* \"#utility.yul\":3818:3881   */\n      swap2\n      pop\n        /* \"#utility.yul\":3773:3891   */\n      pop\n        /* \"#utility.yul\":3244:3898   */\n      swap3\n      pop\n      swap3\n      swap1\n      pop\n      jump\t// out\n        /* \"#utility.yul\":3904:4003   */\n    tag_87:\n        /* \"#utility.yul\":3956:3962   */\n      0x00\n        /* \"#utility.yul\":3990:3995   */\n      dup2\n        /* \"#utility.yul\":3984:3996   */\n      mload\n        /* \"#utility.yul\":3974:3996   */\n      swap1\n      pop\n        /* \"#utility.yul\":3904:4003   */\n      swap2\n      swap1\n      pop\n      jump\t// out\n        /* \"#utility.yul\":4009:4178   */\n    tag_88:\n        /* \"#utility.yul\":4093:4104   */\n      0x00\n        /* \"#utility.yul\":4127:4133   */\n      dup3\n        /* \"#utility.yul\":4122:4125   */\n      dup3\n        /* \"#utility.yul\":4115:4134   */\n      mstore\n        /* \"#utility.yul\":4167:4171   */\n      0x20\n        /* \"#utility.yul\":4162:4165   */\n      dup3\n        /* \"#utility.yul\":4158:4172   */\n      add\n        /* \"#utility.yul\":4143:4172   */\n      swap1\n      pop\n        /* \"#utility.yul\":4009:4178   */\n      swap3\n      swap2\n      pop\n      pop\n      jump\t// out\n        /* \"#utility.yul\":4184:4430   */\n    tag_89:\n        /* \"#utility.yul\":4265:4266   */\n      0x00\n        /* \"#utility.yul\":4275:4388   */\n    tag_167:\n        /* \"#utility.yul\":4289:4295   */\n      dup4\n        /* \"#utility.yul\":4286:4287   */\n      dup2\n        /* \"#utility.yul\":4283:4296   */\n      lt\n        /* \"#utility.yul\":4275:4388   */\n      iszero\n      tag_169\n      jumpi\n        /* \"#utility.yul\":4374:4375   */\n      dup1\n        /* \"#utility.yul\":4369:4372   */\n      dup3\n        /* \"#utility.yul\":4365:4376   */\n      add\n        /* \"#utility.yul\":4359:4377   */\n      mload\n        /* \"#utility.yul\":4355:4356   */\n      dup2\n        /* \"#utility.yul\":4350:4353   */\n      dup5\n        /* \"#utility.yul\":4346:4357   */\n      add\n        /* \"#utility.yul\":4339:4378   */\n      mstore\n        /* \"#utility.yul\":4311:4313   */\n      0x20\n        /* \"#utility.yul\":4308:4309   */\n      dup2\n        /* \"#utility.yul\":4304:4314   */\n      add\n        /* \"#utility.yul\":4299:4314   */\n      swap1\n      pop\n        /* \"#utility.yul\":4275:4388   */\n      jump(tag_167)\n    tag_169:\n        /* \"#utility.yul\":4422:4423   */\n      0x00\n        /* \"#utility.yul\":4413:4419   */\n      dup5\n        /* \"#utility.yul\":4408:4411   */\n      dup5\n        /* \"#utility.yul\":4404:4420   */\n      add\n        /* \"#utility.yul\":4397:4424   */\n      mstore\n        /* \"#utility.yul\":4246:4430   */\n      pop\n        /* \"#utility.yul\":4184:4430   */\n      pop\n      pop\n      pop\n      jump\t// out\n        /* \"#utility.yul\":4436:4813   */\n    tag_90:\n        /* \"#utility.yul\":4524:4527   */\n      0x00\n        /* \"#utility.yul\":4552:4591   */\n      tag_171\n        /* \"#utility.yul\":4585:4590   */\n      dup3\n        /* \"#utility.yul\":4552:4591   */\n      tag_87\n      jump\t// in\n    tag_171:\n        /* \"#utility.yul\":4607:4678   */\n      tag_172\n        /* \"#utility.yul\":4671:4677   */\n      dup2\n        /* \"#utility.yul\":4666:4669   */\n      dup6\n        /* \"#utility.yul\":4607:4678   */\n      tag_88\n      jump\t// in\n    tag_172:\n        /* \"#utility.yul\":4600:4678   */\n      swap4\n      pop\n        /* \"#utility.yul\":4687:4752   */\n      tag_173\n        /* \"#utility.yul\":4745:4751   */\n      dup2\n        /* \"#utility.yul\":4740:4743   */\n      dup6\n        /* \"#utility.yul\":4733:4737   */\n      0x20\n        /* \"#utility.yul\":4726:4731   */\n      dup7\n        /* \"#utility.yul\":4722:4738   */\n      add\n        /* \"#utility.yul\":4687:4752   */\n      tag_89\n      jump\t// in\n    tag_173:\n        /* \"#utility.yul\":4777:4806   */\n      tag_174\n        /* \"#utility.yul\":4799:4805   */\n      dup2\n        /* \"#utility.yul\":4777:4806   */\n      tag_79\n      jump\t// in\n    tag_174:\n        /* \"#utility.yul\":4772:4775   */\n      dup5\n        /* \"#utility.yul\":4768:4807   */\n      add\n        /* \"#utility.yul\":4761:4807   */\n      swap2\n      pop\n        /* \"#utility.yul\":4528:4813   */\n      pop\n        /* \"#utility.yul\":4436:4813   */\n      swap3\n      swap2\n      pop\n      pop\n      jump\t// out\n        /* \"#utility.yul\":4819:4937   */\n    tag_91:\n        /* \"#utility.yul\":4906:4930   */\n      tag_176\n        /* \"#utility.yul\":4924:4929   */\n      dup2\n        /* \"#utility.yul\":4906:4930   */\n      tag_74\n      jump\t// in\n    tag_176:\n        /* \"#utility.yul\":4901:4904   */\n      dup3\n        /* \"#utility.yul\":4894:4931   */\n      mstore\n        /* \"#utility.yul\":4819:4937   */\n      pop\n      pop\n      jump\t// out\n        /* \"#utility.yul\":4943:5123   */\n    tag_31:\n        /* \"#utility.yul\":4991:5068   */\n      0x4e487b7100000000000000000000000000000000000000000000000000000000\n        /* \"#utility.yul\":4988:4989   */\n      0x00\n        /* \"#utility.yul\":4981:5069   */\n      mstore\n        /* \"#utility.yul\":5088:5092   */\n      0x21\n        /* \"#utility.yul\":5085:5086   */\n      0x04\n        /* \"#utility.yul\":5078:5093   */\n      mstore\n        /* \"#utility.yul\":5112:5116   */\n      0x24\n        /* \"#utility.yul\":5109:5110   */\n      0x00\n        /* \"#utility.yul\":5102:5117   */\n      revert\n        /* \"#utility.yul\":5129:5252   */\n    tag_92:\n        /* \"#utility.yul\":5220:5221   */\n      0x03\n        /* \"#utility.yul\":5213:5218   */\n      dup2\n        /* \"#utility.yul\":5210:5222   */\n      lt\n        /* \"#utility.yul\":5200:5246   */\n      tag_179\n      jumpi\n        /* \"#utility.yul\":5226:5244   */\n      tag_180\n      tag_31\n      jump\t// in\n    tag_180:\n        /* \"#utility.yul\":5200:5246   */\n    tag_179:\n        /* \"#utility.yul\":5129:5252   */\n      pop\n      jump\t// out\n        /* \"#utility.yul\":5258:5405   */\n    tag_93:\n        /* \"#utility.yul\":5313:5320   */\n      0x00\n        /* \"#utility.yul\":5342:5347   */\n      dup2\n        /* \"#utility.yul\":5331:5347   */\n      swap1\n      pop\n        /* \"#utility.yul\":5348:5399   */\n      tag_182\n        /* \"#utility.yul\":5393:5398   */\n      dup3\n        /* \"#utility.yul\":5348:5399   */\n      tag_92\n      jump\t// in\n    tag_182:\n        /* \"#utility.yul\":5258:5405   */\n      swap2\n      swap1\n      pop\n      jump\t// out\n        /* \"#utility.yul\":5411:5558   */\n    tag_94:\n        /* \"#utility.yul\":5477:5486   */\n      0x00\n        /* \"#utility.yul\":5510:5552   */\n      tag_184\n        /* \"#utility.yul\":5546:5551   */\n      dup3\n        /* \"#utility.yul\":5510:5552   */\n      tag_93\n      jump\t// in\n    tag_184:\n        /* \"#utility.yul\":5497:5552   */\n      swap1\n      pop\n        /* \"#utility.yul\":5411:5558   */\n      swap2\n      swap1\n      pop\n      jump\t// out\n        /* \"#utility.yul\":5564:5727   */\n    tag_95:\n        /* \"#utility.yul\":5667:5720   */\n      tag_186\n        /* \"#utility.yul\":5714:5719   */\n      dup2\n        /* \"#utility.yul\":5667:5720   */\n      tag_94\n      jump\t// in\n    tag_186:\n        /* \"#utility.yul\":5662:5665   */\n      dup3\n        /* \"#utility.yul\":5655:5721   */\n      mstore\n        /* \"#utility.yul\":5564:5727   */\n      pop\n      pop\n      jump\t// out\n        /* \"#utility.yul\":5733:6298   */\n    tag_20:\n        /* \"#utility.yul\":5918:5922   */\n      0x00\n        /* \"#utility.yul\":5956:5958   */\n      0x60\n        /* \"#utility.yul\":5945:5954   */\n      dup3\n        /* \"#utility.yul\":5941:5959   */\n      add\n        /* \"#utility.yul\":5933:5959   */\n      swap1\n      pop\n        /* \"#utility.yul\":6005:6014   */\n      dup2\n        /* \"#utility.yul\":5999:6003   */\n      dup2\n        /* \"#utility.yul\":5995:6015   */\n      sub\n        /* \"#utility.yul\":5991:5992   */\n      0x00\n        /* \"#utility.yul\":5980:5989   */\n      dup4\n        /* \"#utility.yul\":5976:5993   */\n      add\n        /* \"#utility.yul\":5969:6016   */\n      mstore\n        /* \"#utility.yul\":6033:6111   */\n      tag_188\n        /* \"#utility.yul\":6106:6110   */\n      dup2\n        /* \"#utility.yul\":6097:6103   */\n      dup7\n        /* \"#utility.yul\":6033:6111   */\n      tag_90\n      jump\t// in\n    tag_188:\n        /* \"#utility.yul\":6025:6111   */\n      swap1\n      pop\n        /* \"#utility.yul\":6121:6193   */\n      tag_189\n        /* \"#utility.yul\":6189:6191   */\n      0x20\n        /* \"#utility.yul\":6178:6187   */\n      dup4\n        /* \"#utility.yul\":6174:6192   */\n      add\n        /* \"#utility.yul\":6165:6171   */\n      dup6\n        /* \"#utility.yul\":6121:6193   */\n      tag_91\n      jump\t// in\n    tag_189:\n        /* \"#utility.yul\":6203:6291   */\n      tag_190\n        /* \"#utility.yul\":6287:6289   */\n      0x40\n        /* \"#utility.yul\":6276:6285   */\n      dup4\n        /* \"#utility.yul\":6272:6290   */\n      add\n        /* \"#utility.yul\":6263:6269   */\n      dup5\n        /* \"#utility.yul\":6203:6291   */\n      tag_95\n      jump\t// in\n    tag_190:\n        /* \"#utility.yul\":5733:6298   */\n      swap5\n      swap4\n      pop\n      pop\n      pop\n      pop\n      jump\t// out\n        /* \"#utility.yul\":6304:6481   */\n    tag_96:\n        /* \"#utility.yul\":6444:6473   */\n      0x4f6e6c792066756c6c207061796d656e74732061636365707465640000000000\n        /* \"#utility.yul\":6440:6441   */\n      0x00\n        /* \"#utility.yul\":6432:6438   */\n      dup3\n        /* \"#utility.yul\":6428:6442   */\n      add\n        /* \"#utility.yul\":6421:6474   */\n      mstore\n        /* \"#utility.yul\":6304:6481   */\n      pop\n      jump\t// out\n        /* \"#utility.yul\":6487:6853   */\n    tag_97:\n        /* \"#utility.yul\":6629:6632   */\n      0x00\n        /* \"#utility.yul\":6650:6717   */\n      tag_193\n        /* \"#utility.yul\":6714:6716   */\n      0x1b\n        /* \"#utility.yul\":6709:6712   */\n      dup4\n        /* \"#utility.yul\":6650:6717   */\n      tag_88\n      jump\t// in\n    tag_193:\n        /* \"#utility.yul\":6643:6717   */\n      swap2\n      pop\n        /* \"#utility.yul\":6726:6819   */\n      tag_194\n        /* \"#utility.yul\":6815:6818   */\n      dup3\n        /* \"#utility.yul\":6726:6819   */\n      tag_96\n      jump\t// in\n    tag_194:\n        /* \"#utility.yul\":6844:6846   */\n      0x20\n        /* \"#utility.yul\":6839:6842   */\n      dup3\n        /* \"#utility.yul\":6835:6847   */\n      add\n        /* \"#utility.yul\":6828:6847   */\n      swap1\n      pop\n        /* \"#utility.yul\":6487:6853   */\n      swap2\n      swap1\n      pop\n      jump\t// out\n        /* \"#utility.yul\":6859:7278   */\n    tag_28:\n        /* \"#utility.yul\":7025:7029   */\n      0x00\n        /* \"#utility.yul\":7063:7065   */\n      0x20\n        /* \"#utility.yul\":7052:7061   */\n      dup3\n        /* \"#utility.yul\":7048:7066   */\n      add\n        /* \"#utility.yul\":7040:7066   */\n      swap1\n      pop\n        /* \"#utility.yul\":7112:7121   */\n      dup2\n        /* \"#utility.yul\":7106:7110   */\n      dup2\n        /* \"#utility.yul\":7102:7122   */\n      sub\n        /* \"#utility.yul\":7098:7099   */\n      0x00\n        /* \"#utility.yul\":7087:7096   */\n      dup4\n        /* \"#utility.yul\":7083:7100   */\n      add\n        /* \"#utility.yul\":7076:7123   */\n      mstore\n        /* \"#utility.yul\":7140:7271   */\n      tag_196\n        /* \"#utility.yul\":7266:7270   */\n      dup2\n        /* \"#utility.yul\":7140:7271   */\n      tag_97\n      jump\t// in\n    tag_196:\n        /* \"#utility.yul\":7132:7271   */\n      swap1\n      pop\n        /* \"#utility.yul\":6859:7278   */\n      swap2\n      swap1\n      pop\n      jump\t// out\n        /* \"#utility.yul\":7284:7462   */\n    tag_98:\n        /* \"#utility.yul\":7424:7454   */\n      0x4974656d206973206675727468657220696e2074686520636861696e00000000\n        /* \"#utility.yul\":7420:7421   */\n      0x00\n        /* \"#utility.yul\":7412:7418   */\n      dup3\n        /* \"#utility.yul\":7408:7422   */\n      add\n        /* \"#utility.yul\":7401:7455   */\n      mstore\n        /* \"#utility.yul\":7284:7462   */\n      pop\n      jump\t// out\n        /* \"#utility.yul\":7468:7834   */\n    tag_99:\n        /* \"#utility.yul\":7610:7613   */\n      0x00\n        /* \"#utility.yul\":7631:7698   */\n      tag_199\n        /* \"#utility.yul\":7695:7697   */\n      0x1c\n        /* \"#utility.yul\":7690:7693   */\n      dup4\n        /* \"#utility.yul\":7631:7698   */\n      tag_88\n      jump\t// in\n    tag_199:\n        /* \"#utility.yul\":7624:7698   */\n      swap2\n      pop\n        /* \"#utility.yul\":7707:7800   */\n      tag_200\n        /* \"#utility.yul\":7796:7799   */\n      dup3\n        /* \"#utility.yul\":7707:7800   */\n      tag_98\n      jump\t// in\n    tag_200:\n        /* \"#utility.yul\":7825:7827   */\n      0x20\n        /* \"#utility.yul\":7820:7823   */\n      dup3\n        /* \"#utility.yul\":7816:7828   */\n      add\n        /* \"#utility.yul\":7809:7828   */\n      swap1\n      pop\n        /* \"#utility.yul\":7468:7834   */\n      swap2\n      swap1\n      pop\n      jump\t// out\n        /* \"#utility.yul\":7840:8259   */\n    tag_36:\n        /* \"#utility.yul\":8006:8010   */\n      0x00\n        /* \"#utility.yul\":8044:8046   */\n      0x20\n        /* \"#utility.yul\":8033:8042   */\n      dup3\n        /* \"#utility.yul\":8029:8047   */\n      add\n        /* \"#utility.yul\":8021:8047   */\n      swap1\n      pop\n        /* \"#utility.yul\":8093:8102   */\n      dup2\n        /* \"#utility.yul\":8087:8091   */\n      dup2\n        /* \"#utility.yul\":8083:8103   */\n      sub\n        /* \"#utility.yul\":8079:8080   */\n      0x00\n        /* \"#utility.yul\":8068:8077   */\n      dup4\n        /* \"#utility.yul\":8064:8081   */\n      add\n        /* \"#utility.yul\":8057:8104   */\n      mstore\n        /* \"#utility.yul\":8121:8252   */\n      tag_202\n        /* \"#utility.yul\":8247:8251   */\n      dup2\n        /* \"#utility.yul\":8121:8252   */\n      tag_99\n      jump\t// in\n    tag_202:\n        /* \"#utility.yul\":8113:8252   */\n      swap1\n      pop\n        /* \"#utility.yul\":7840:8259   */\n      swap2\n      swap1\n      pop\n      jump\t// out\n        /* \"#utility.yul\":8265:8597   */\n    tag_42:\n        /* \"#utility.yul\":8386:8390   */\n      0x00\n        /* \"#utility.yul\":8424:8426   */\n      0x40\n        /* \"#utility.yul\":8413:8422   */\n      dup3\n        /* \"#utility.yul\":8409:8427   */\n      add\n        /* \"#utility.yul\":8401:8427   */\n      swap1\n      pop\n        /* \"#utility.yul\":8437:8508   */\n      tag_204\n        /* \"#utility.yul\":8505:8506   */\n      0x00\n        /* \"#utility.yul\":8494:8503   */\n      dup4\n        /* \"#utility.yul\":8490:8507   */\n      add\n        /* \"#utility.yul\":8481:8487   */\n      dup6\n        /* \"#utility.yul\":8437:8508   */\n      tag_91\n      jump\t// in\n    tag_204:\n        /* \"#utility.yul\":8518:8590   */\n      tag_205\n        /* \"#utility.yul\":8586:8588   */\n      0x20\n        /* \"#utility.yul\":8575:8584   */\n      dup4\n        /* \"#utility.yul\":8571:8589   */\n      add\n        /* \"#utility.yul\":8562:8568   */\n      dup5\n        /* \"#utility.yul\":8518:8590   */\n      tag_91\n      jump\t// in\n    tag_205:\n        /* \"#utility.yul\":8265:8597   */\n      swap4\n      swap3\n      pop\n      pop\n      pop\n      jump\t// out\n        /* \"#utility.yul\":8603:8783   */\n    tag_100:\n        /* \"#utility.yul\":8651:8728   */\n      0x4e487b7100000000000000000000000000000000000000000000000000000000\n        /* \"#utility.yul\":8648:8649   */\n      0x00\n        /* \"#utility.yul\":8641:8729   */\n      mstore\n        /* \"#utility.yul\":8748:8752   */\n      0x22\n        /* \"#utility.yul\":8745:8746   */\n      0x04\n        /* \"#utility.yul\":8738:8753   */\n      mstore\n        /* \"#utility.yul\":8772:8776   */\n      0x24\n        /* \"#utility.yul\":8769:8770   */\n      0x00\n        /* \"#utility.yul\":8762:8777   */\n      revert\n        /* \"#utility.yul\":8789:9109   */\n    tag_54:\n        /* \"#utility.yul\":8833:8839   */\n      0x00\n        /* \"#utility.yul\":8870:8871   */\n      0x02\n        /* \"#utility.yul\":8864:8868   */\n      dup3\n        /* \"#utility.yul\":8860:8872   */\n      div\n        /* \"#utility.yul\":8850:8872   */\n      swap1\n      pop\n        /* \"#utility.yul\":8917:8918   */\n      0x01\n        /* \"#utility.yul\":8911:8915   */\n      dup3\n        /* \"#utility.yul\":8907:8919   */\n      and\n        /* \"#utility.yul\":8938:8956   */\n      dup1\n        /* \"#utility.yul\":8928:9009   */\n      tag_208\n      jumpi\n        /* \"#utility.yul\":8994:8998   */\n      0x7f\n        /* \"#utility.yul\":8986:8992   */\n      dup3\n        /* \"#utility.yul\":8982:8999   */\n      and\n        /* \"#utility.yul\":8972:8999   */\n      swap2\n      pop\n        /* \"#utility.yul\":8928:9009   */\n    tag_208:\n        /* \"#utility.yul\":9056:9058   */\n      0x20\n        /* \"#utility.yul\":9048:9054   */\n      dup3\n        /* \"#utility.yul\":9045:9059   */\n      lt\n        /* \"#utility.yul\":9025:9043   */\n      dup2\n        /* \"#utility.yul\":9022:9060   */\n      sub\n        /* \"#utility.yul\":9019:9103   */\n      tag_209\n      jumpi\n        /* \"#utility.yul\":9075:9093   */\n      tag_210\n      tag_100\n      jump\t// in\n    tag_210:\n        /* \"#utility.yul\":9019:9103   */\n    tag_209:\n        /* \"#utility.yul\":8840:9109   */\n      pop\n        /* \"#utility.yul\":8789:9109   */\n      swap2\n      swap1\n      pop\n      jump\t// out\n        /* \"#utility.yul\":9115:9256   */\n    tag_101:\n        /* \"#utility.yul\":9164:9168   */\n      0x00\n        /* \"#utility.yul\":9187:9190   */\n      dup2\n        /* \"#utility.yul\":9179:9190   */\n      swap1\n      pop\n        /* \"#utility.yul\":9210:9213   */\n      dup2\n        /* \"#utility.yul\":9207:9208   */\n      0x00\n        /* \"#utility.yul\":9200:9214   */\n      mstore\n        /* \"#utility.yul\":9244:9248   */\n      0x20\n        /* \"#utility.yul\":9241:9242   */\n      0x00\n        /* \"#utility.yul\":9231:9249   */\n      keccak256\n        /* \"#utility.yul\":9223:9249   */\n      swap1\n      pop\n        /* \"#utility.yul\":9115:9256   */\n      swap2\n      swap1\n      pop\n      jump\t// out\n        /* \"#utility.yul\":9262:9355   */\n    tag_102:\n        /* \"#utility.yul\":9299:9305   */\n      0x00\n        /* \"#utility.yul\":9346:9348   */\n      0x20\n        /* \"#utility.yul\":9341:9343   */\n      0x1f\n        /* \"#utility.yul\":9334:9339   */\n      dup4\n        /* \"#utility.yul\":9330:9344   */\n      add\n        /* \"#utility.yul\":9326:9349   */\n      div\n        /* \"#utility.yul\":9316:9349   */\n      swap1\n      pop\n        /* \"#utility.yul\":9262:9355   */\n      swap2\n      swap1\n      pop\n      jump\t// out\n        /* \"#utility.yul\":9361:9468   */\n    tag_103:\n        /* \"#utility.yul\":9405:9413   */\n      0x00\n        /* \"#utility.yul\":9455:9460   */\n      dup3\n        /* \"#utility.yul\":9449:9453   */\n      dup3\n        /* \"#utility.yul\":9445:9461   */\n      shl\n        /* \"#utility.yul\":9424:9461   */\n      swap1\n      pop\n        /* \"#utility.yul\":9361:9468   */\n      swap3\n      swap2\n      pop\n      pop\n      jump\t// out\n        /* \"#utility.yul\":9474:9867   */\n    tag_104:\n        /* \"#utility.yul\":9543:9549   */\n      0x00\n        /* \"#utility.yul\":9593:9594   */\n      0x08\n        /* \"#utility.yul\":9581:9591   */\n      dup4\n        /* \"#utility.yul\":9577:9595   */\n      mul\n        /* \"#utility.yul\":9616:9713   */\n      tag_215\n        /* \"#utility.yul\":9646:9712   */\n      0xffffffffffffffffffffffffffffffffffffffffffffffffffffffffffffffff\n        /* \"#utility.yul\":9635:9644   */\n      dup3\n        /* \"#utility.yul\":9616:9713   */\n      tag_103\n      jump\t// in\n    tag_215:\n        /* \"#utility.yul\":9734:9773   */\n      tag_216\n        /* \"#utility.yul\":9764:9772   */\n      dup7\n        /* \"#utility.yul\":9753:9762   */\n      dup4\n        /* \"#utility.yul\":9734:9773   */\n      tag_103\n      jump\t// in\n    tag_216:\n        /* \"#utility.yul\":9722:9773   */\n      swap6\n      pop\n        /* \"#utility.yul\":9806:9810   */\n      dup1\n        /* \"#utility.yul\":9802:9811   */\n      not\n        /* \"#utility.yul\":9795:9800   */\n      dup5\n        /* \"#utility.yul\":9791:9812   */\n      and\n        /* \"#utility.yul\":9782:9812   */\n      swap4\n      pop\n        /* \"#utility.yul\":9855:9859   */\n      dup1\n        /* \"#utility.yul\":9845:9853   */\n      dup7\n        /* \"#utility.yul\":9841:9860   */\n      and\n        /* \"#utility.yul\":9834:9839   */\n      dup5\n        /* \"#utility.yul\":9831:9861   */\n      or\n        /* \"#utility.yul\":9821:9861   */\n      swap3\n      pop\n        /* \"#utility.yul\":9550:9867   */\n      pop\n      pop\n        /* \"#utility.yul\":9474:9867   */\n      swap4\n      swap3\n      pop\n      pop\n      pop\n      jump\t// out\n        /* \"#utility.yul\":9873:9933   */\n    tag_105:\n        /* \"#utility.yul\":9901:9904   */\n      0x00\n        /* \"#utility.yul\":9922:9927   */\n      dup2\n        /* \"#utility.yul\":9915:9927   */\n      swap1\n      pop\n        /* \"#utility.yul\":9873:9933   */\n      swap2\n      swap1\n      pop\n      jump\t// out\n        /* \"#utility.yul\":9939:10081   */\n    tag_106:\n        /* \"#utility.yul\":9989:9998   */\n      0x00\n        /* \"#utility.yul\":10022:10075   */\n      tag_219\n        /* \"#utility.yul\":10040:10074   */\n      tag_220\n        /* \"#utility.yul\":10049:10073   */\n      tag_221\n        /* \"#utility.yul\":10067:10072   */\n      dup5\n        /* \"#utility.yul\":10049:10073   */\n      tag_74\n      jump\t// in\n    tag_221:\n        /* \"#utility.yul\":10040:10074   */\n      tag_105\n      jump\t// in\n    tag_220:\n        /* \"#utility.yul\":10022:10075   */\n      tag_74\n      jump\t// in\n    tag_219:\n        /* \"#utility.yul\":10009:10075   */\n      swap1\n      pop\n        /* \"#utility.yul\":9939:10081   */\n      swap2\n      swap1\n      pop\n      jump\t// out\n        /* \"#utility.yul\":10087:10162   */\n    tag_107:\n        /* \"#utility.yul\":10130:10133   */\n      0x00\n        /* \"#utility.yul\":10151:10156   */\n      dup2\n        /* \"#utility.yul\":10144:10156   */\n      swap1\n      pop\n        /* \"#utility.yul\":10087:10162   */\n      swap2\n      swap1\n      pop\n      jump\t// out\n        /* \"#utility.yul\":10168:10437   */\n    tag_108:\n        /* \"#utility.yul\":10278:10317   */\n      tag_224\n        /* \"#utility.yul\":10309:10316   */\n      dup4\n        /* \"#utility.yul\":10278:10317   */\n      tag_106\n      jump\t// in\n    tag_224:\n        /* \"#utility.yul\":10339:10430   */\n      tag_225\n        /* \"#utility.yul\":10388:10429   */\n      tag_226\n        /* \"#utility.yul\":10412:10428   */\n      dup3\n        /* \"#utility.yul\":10388:10429   */\n      tag_107\n      jump\t// in\n    tag_226:\n        /* \"#utility.yul\":10380:10386   */\n      dup5\n        /* \"#utility.yul\":10373:10377   */\n      dup5\n        /* \"#utility.yul\":10367:10378   */\n      sload\n        /* \"#utility.yul\":10339:10430   */\n      tag_104\n      jump\t// in\n    tag_225:\n        /* \"#utility.yul\":10333:10337   */\n      dup3\n        /* \"#utility.yul\":10326:10431   */\n      sstore\n        /* \"#utility.yul\":10244:10437   */\n      pop\n        /* \"#utility.yul\":10168:10437   */\n      pop\n      pop\n      pop\n      jump\t// out\n        /* \"#utility.yul\":10443:10516   */\n    tag_109:\n        /* \"#utility.yul\":10488:10491   */\n      0x00\n        /* \"#utility.yul\":10443:10516   */\n      swap1\n      jump\t// out\n        /* \"#utility.yul\":10522:10711   */\n    tag_110:\n        /* \"#utility.yul\":10599:10631   */\n      tag_229\n      tag_109\n      jump\t// in\n    tag_229:\n        /* \"#utility.yul\":10640:10705   */\n      tag_230\n        /* \"#utility.yul\":10698:10704   */\n      dup2\n        /* \"#utility.yul\":10690:10696   */\n      dup5\n        /* \"#utility.yul\":10684:10688   */\n      dup5\n        /* \"#utility.yul\":10640:10705   */\n      tag_108\n      jump\t// in\n    tag_230:\n        /* \"#utility.yul\":10575:10711   */\n      pop\n        /* \"#utility.yul\":10522:10711   */\n      pop\n      pop\n      jump\t// out\n        /* \"#utility.yul\":10717:10903   */\n    tag_111:\n        /* \"#utility.yul\":10777:10897   */\n    tag_232:\n        /* \"#utility.yul\":10794:10797   */\n      dup2\n        /* \"#utility.yul\":10787:10792   */\n      dup2\n        /* \"#utility.yul\":10784:10798   */\n      lt\n        /* \"#utility.yul\":10777:10897   */\n      iszero\n      tag_234\n      jumpi\n        /* \"#utility.yul\":10848:10887   */\n      tag_235\n        /* \"#utility.yul\":10885:10886   */\n      0x00\n        /* \"#utility.yul\":10878:10883   */\n      dup3\n        /* \"#utility.yul\":10848:10887   */\n      tag_110\n      jump\t// in\n    tag_235:\n        /* \"#utility.yul\":10821:10822   */\n      0x01\n        /* \"#utility.yul\":10814:10819   */\n      dup2\n        /* \"#utility.yul\":10810:10823   */\n      add\n        /* \"#utility.yul\":10801:10823   */\n      swap1\n      pop\n        /* \"#utility.yul\":10777:10897   */\n      jump(tag_232)\n    tag_234:\n        /* \"#utility.yul\":10717:10903   */\n      pop\n      pop\n      jump\t// out\n        /* \"#utility.yul\":10909:11452   */\n    tag_112:\n        /* \"#utility.yul\":11010:11012   */\n      0x1f\n        /* \"#utility.yul\":11005:11008   */\n      dup3\n        /* \"#utility.yul\":11002:11013   */\n      gt\n        /* \"#utility.yul\":10999:11445   */\n      iszero\n      tag_237\n      jumpi\n        /* \"#utility.yul\":11044:11082   */\n      tag_238\n        /* \"#utility.yul\":11076:11081   */\n      dup2\n        /* \"#utility.yul\":11044:11082   */\n      tag_101\n      jump\t// in\n    tag_238:\n        /* \"#utility.yul\":11128:11157   */\n      tag_239\n        /* \"#utility.yul\":11146:11156   */\n      dup5\n        /* \"#utility.yul\":11128:11157   */\n      tag_102\n      jump\t// in\n    tag_239:\n        /* \"#utility.yul\":11118:11126   */\n      dup2\n        /* \"#utility.yul\":11114:11158   */\n      add\n        /* \"#utility.yul\":11311:11313   */\n      0x20\n        /* \"#utility.yul\":11299:11309   */\n      dup6\n        /* \"#utility.yul\":11296:11314   */\n      lt\n        /* \"#utility.yul\":11293:11342   */\n      iszero\n      tag_240\n      jumpi\n        /* \"#utility.yul\":11332:11340   */\n      dup2\n        /* \"#utility.yul\":11317:11340   */\n      swap1\n      pop\n        /* \"#utility.yul\":11293:11342   */\n    tag_240:\n        /* \"#utility.yul\":11355:11435   */\n      tag_241\n        /* \"#utility.yul\":11411:11433   */\n      tag_242\n        /* \"#utility.yul\":11429:11432   */\n      dup6\n        /* \"#utility.yul\":11411:11433   */\n      tag_102\n      jump\t// in\n    tag_242:\n        /* \"#utility.yul\":11401:11409   */\n      dup4\n        /* \"#utility.yul\":11397:11434   */\n      add\n        /* \"#utility.yul\":11384:11395   */\n      dup3\n        /* \"#utility.yul\":11355:11435   */\n      tag_111\n      jump\t// in\n    tag_241:\n        /* \"#utility.yul\":11014:11445   */\n      pop\n      pop\n        /* \"#utility.yul\":10999:11445   */\n    tag_237:\n        /* \"#utility.yul\":10909:11452   */\n      pop\n      pop\n      pop\n      jump\t// out\n        /* \"#utility.yul\":11458:11575   */\n    tag_113:\n        /* \"#utility.yul\":11512:11520   */\n      0x00\n        /* \"#utility.yul\":11562:11567   */\n      dup3\n        /* \"#utility.yul\":11556:11560   */\n      dup3\n        /* \"#utility.yul\":11552:11568   */\n      shr\n        /* \"#utility.yul\":11531:11568   */\n      swap1\n      pop\n        /* \"#utility.yul\":11458:11575   */\n      swap3\n      swap2\n      pop\n      pop\n      jump\t// out\n        /* \"#utility.yul\":11581:11750   */\n    tag_114:\n        /* \"#utility.yul\":11625:11631   */\n      0x00\n        /* \"#utility.yul\":11658:11709   */\n      tag_245\n        /* \"#utility.yul\":11706:11707   */\n      0x00\n        /* \"#utility.yul\":11702:11708   */\n      not\n        /* \"#utility.yul\":11694:11699   */\n      dup5\n        /* \"#utility.yul\":11691:11692   */\n      0x08\n        /* \"#utility.yul\":11687:11700   */\n      mul\n        /* \"#utility.yul\":11658:11709   */\n      tag_113\n      jump\t// in\n    tag_245:\n        /* \"#utility.yul\":11654:11710   */\n      not\n        /* \"#utility.yul\":11739:11743   */\n      dup1\n        /* \"#utility.yul\":11733:11737   */\n      dup4\n        /* \"#utility.yul\":11729:11744   */\n      and\n        /* \"#utility.yul\":11719:11744   */\n      swap2\n      pop\n        /* \"#utility.yul\":11632:11750   */\n      pop\n        /* \"#utility.yul\":11581:11750   */\n      swap3\n      swap2\n      pop\n      pop\n      jump\t// out\n        /* \"#utility.yul\":11755:12050   */\n    tag_115:\n        /* \"#utility.yul\":11831:11835   */\n      0x00\n        /* \"#utility.yul\":11977:12006   */\n      tag_247\n        /* \"#utility.yul\":12002:12005   */\n      dup4\n        /* \"#utility.yul\":11996:12000   */\n      dup4\n        /* \"#utility.yul\":11977:12006   */\n      tag_114\n      jump\t// in\n    tag_247:\n        /* \"#utility.yul\":11969:12006   */\n      swap2\n      pop\n        /* \"#utility.yul\":12039:12042   */\n      dup3\n        /* \"#utility.yul\":12036:12037   */\n      0x02\n        /* \"#utility.yul\":12032:12043   */\n      mul\n        /* \"#utility.yul\":12026:12030   */\n      dup3\n        /* \"#utility.yul\":12023:12044   */\n      or\n        /* \"#utility.yul\":12015:12044   */\n      swap1\n      pop\n        /* \"#utility.yul\":11755:12050   */\n      swap3\n      swap2\n      pop\n      pop\n      jump\t// out\n        /* \"#utility.yul\":12055:13450   */\n    tag_45:\n        /* \"#utility.yul\":12172:12209   */\n      tag_249\n        /* \"#utility.yul\":12205:12208   */\n      dup3\n        /* \"#utility.yul\":12172:12209   */\n      tag_87\n      jump\t// in\n    tag_249:\n        /* \"#utility.yul\":12274:12292   */\n      0xffffffffffffffff\n        /* \"#utility.yul\":12266:12272   */\n      dup2\n        /* \"#utility.yul\":12263:12293   */\n      gt\n        /* \"#utility.yul\":12260:12316   */\n      iszero\n      tag_250\n      jumpi\n        /* \"#utility.yul\":12296:12314   */\n      tag_251\n      tag_80\n      jump\t// in\n    tag_251:\n        /* \"#utility.yul\":12260:12316   */\n    tag_250:\n        /* \"#utility.yul\":12340:12378   */\n      tag_252\n        /* \"#utility.yul\":12372:12376   */\n      dup3\n        /* \"#utility.yul\":12366:12377   */\n      sload\n        /* \"#utility.yul\":12340:12378   */\n      tag_54\n      jump\t// in\n    tag_252:\n        /* \"#utility.yul\":12425:12492   */\n      tag_253\n        /* \"#utility.yul\":12485:12491   */\n      dup3\n        /* \"#utility.yul\":12477:12483   */\n      dup3\n        /* \"#utility.yul\":12471:12475   */\n      dup6\n        /* \"#utility.yul\":12425:12492   */\n      tag_112\n      jump\t// in\n    tag_253:\n        /* \"#utility.yul\":12519:12520   */\n      0x00\n        /* \"#utility.yul\":12543:12547   */\n      0x20\n        /* \"#utility.yul\":12530:12547   */\n      swap1\n      pop\n        /* \"#utility.yul\":12575:12577   */\n      0x1f\n        /* \"#utility.yul\":12567:12573   */\n      dup4\n        /* \"#utility.yul\":12564:12578   */\n      gt\n        /* \"#utility.yul\":12592:12593   */\n      0x01\n        /* \"#utility.yul\":12587:13205   */\n      dup2\n      eq\n      tag_255\n      jumpi\n        /* \"#utility.yul\":13249:13250   */\n      0x00\n        /* \"#utility.yul\":13266:13272   */\n      dup5\n        /* \"#utility.yul\":13263:13340   */\n      iszero\n      tag_256\n      jumpi\n        /* \"#utility.yul\":13315:13324   */\n      dup3\n        /* \"#utility.yul\":13310:13313   */\n      dup8\n        /* \"#utility.yul\":13306:13325   */\n      add\n        /* \"#utility.yul\":13300:13326   */\n      mload\n        /* \"#utility.yul\":13291:13326   */\n      swap1\n      pop\n        /* \"#utility.yul\":13263:13340   */\n    tag_256:\n        /* \"#utility.yul\":13366:13433   */\n      tag_257\n        /* \"#utility.yul\":13426:13432   */\n      dup6\n        /* \"#utility.yul\":13419:13424   */\n      dup3\n        /* \"#utility.yul\":13366:13433   */\n      tag_115\n      jump\t// in\n    tag_257:\n        /* \"#utility.yul\":13360:13364   */\n      dup7\n        /* \"#utility.yul\":13353:13434   */\n      sstore\n        /* \"#utility.yul\":13222:13444   */\n      pop\n        /* \"#utility.yul\":12557:13444   */\n      jump(tag_254)\n        /* \"#utility.yul\":12587:13205   */\n    tag_255:\n        /* \"#utility.yul\":12639:12643   */\n      0x1f\n        /* \"#utility.yul\":12635:12644   */\n      not\n        /* \"#utility.yul\":12627:12633   */\n      dup5\n        /* \"#utility.yul\":12623:12645   */\n      and\n        /* \"#utility.yul\":12673:12710   */\n      tag_258\n        /* \"#utility.yul\":12705:12709   */\n      dup7\n        /* \"#utility.yul\":12673:12710   */\n      tag_101\n      jump\t// in\n    tag_258:\n        /* \"#utility.yul\":12732:12733   */\n      0x00\n        /* \"#utility.yul\":12746:12954   */\n    tag_259:\n        /* \"#utility.yul\":12760:12767   */\n      dup3\n        /* \"#utility.yul\":12757:12758   */\n      dup2\n        /* \"#utility.yul\":12754:12768   */\n      lt\n        /* \"#utility.yul\":12746:12954   */\n      iszero\n      tag_261\n      jumpi\n        /* \"#utility.yul\":12839:12848   */\n      dup5\n        /* \"#utility.yul\":12834:12837   */\n      dup10\n        /* \"#utility.yul\":12830:12849   */\n      add\n        /* \"#utility.yul\":12824:12850   */\n      mload\n        /* \"#utility.yul\":12816:12822   */\n      dup3\n        /* \"#utility.yul\":12809:12851   */\n      sstore\n        /* \"#utility.yul\":12890:12891   */\n      0x01\n        /* \"#utility.yul\":12882:12888   */\n      dup3\n        /* \"#utility.yul\":12878:12892   */\n      add\n        /* \"#utility.yul\":12868:12892   */\n      swap2\n      pop\n        /* \"#utility.yul\":12937:12939   */\n      0x20\n        /* \"#utility.yul\":12926:12935   */\n      dup6\n        /* \"#utility.yul\":12922:12940   */\n      add\n        /* \"#utility.yul\":12909:12940   */\n      swap5\n      pop\n        /* \"#utility.yul\":12783:12787   */\n      0x20\n        /* \"#utility.yul\":12780:12781   */\n      dup2\n        /* \"#utility.yul\":12776:12788   */\n      add\n        /* \"#utility.yul\":12771:12788   */\n      swap1\n      pop\n        /* \"#utility.yul\":12746:12954   */\n      jump(tag_259)\n    tag_261:\n        /* \"#utility.yul\":12982:12988   */\n      dup7\n        /* \"#utility.yul\":12973:12980   */\n      dup4\n        /* \"#utility.yul\":12970:12989   */\n      lt\n        /* \"#utility.yul\":12967:13146   */\n      iszero\n      tag_262\n      jumpi\n        /* \"#utility.yul\":13040:13049   */\n      dup5\n        /* \"#utility.yul\":13035:13038   */\n      dup10\n        /* \"#utility.yul\":13031:13050   */\n      add\n        /* \"#utility.yul\":13025:13051   */\n      mload\n        /* \"#utility.yul\":13083:13131   */\n      tag_263\n        /* \"#utility.yul\":13125:13129   */\n      0x1f\n        /* \"#utility.yul\":13117:13123   */\n      dup10\n        /* \"#utility.yul\":13113:13130   */\n      and\n        /* \"#utility.yul\":13102:13111   */\n      dup3\n        /* \"#utility.yul\":13083:13131   */\n      tag_114\n      jump\t// in\n    tag_263:\n        /* \"#utility.yul\":13075:13081   */\n      dup4\n        /* \"#utility.yul\":13068:13132   */\n      sstore\n        /* \"#utility.yul\":12990:13146   */\n      pop\n        /* \"#utility.yul\":12967:13146   */\n    tag_262:\n        /* \"#utility.yul\":13192:13193   */\n      0x01\n        /* \"#utility.yul\":13188:13189   */\n      0x02\n        /* \"#utility.yul\":13180:13186   */\n      dup9\n        /* \"#utility.yul\":13176:13190   */\n      mul\n        /* \"#utility.yul\":13172:13194   */\n      add\n        /* \"#utility.yul\":13166:13170   */\n      dup9\n        /* \"#utility.yul\":13159:13195   */\n      sstore\n        /* \"#utility.yul\":12594:13205   */\n      pop\n      pop\n      pop\n        /* \"#utility.yul\":12557:13444   */\n    tag_254:\n      pop\n        /* \"#utility.yul\":12147:13450   */\n      pop\n      pop\n      pop\n        /* \"#utility.yul\":12055:13450   */\n      pop\n      pop\n      jump\t// out\n        /* \"#utility.yul\":13456:13636   */\n    tag_116:\n        /* \"#utility.yul\":13504:13581   */\n      0x4e487b7100000000000000000000000000000000000000000000000000000000\n        /* \"#utility.yul\":13501:13502   */\n      0x00\n        /* \"#utility.yul\":13494:13582   */\n      mstore\n        /* \"#utility.yul\":13601:13605   */\n      0x11\n        /* \"#utility.yul\":13598:13599   */\n      0x04\n        /* \"#utility.yul\":13591:13606   */\n      mstore\n        /* \"#utility.yul\":13625:13629   */\n      0x24\n        /* \"#utility.yul\":13622:13623   */\n      0x00\n        /* \"#utility.yul\":13615:13630   */\n      revert\n        /* \"#utility.yul\":13642:13875   */\n    tag_52:\n        /* \"#utility.yul\":13681:13684   */\n      0x00\n        /* \"#utility.yul\":13704:13728   */\n      tag_266\n        /* \"#utility.yul\":13722:13727   */\n      dup3\n        /* \"#utility.yul\":13704:13728   */\n      tag_74\n      jump\t// in\n    tag_266:\n        /* \"#utility.yul\":13695:13728   */\n      swap2\n      pop\n        /* \"#utility.yul\":13750:13816   */\n      0xffffffffffffffffffffffffffffffffffffffffffffffffffffffffffffffff\n        /* \"#utility.yul\":13743:13748   */\n      dup3\n        /* \"#utility.yul\":13740:13817   */\n      sub\n        /* \"#utility.yul\":13737:13840   */\n      tag_267\n      jumpi\n        /* \"#utility.yul\":13820:13838   */\n      tag_268\n      tag_116\n      jump\t// in\n    tag_268:\n        /* \"#utility.yul\":13737:13840   */\n    tag_267:\n        /* \"#utility.yul\":13867:13868   */\n      0x01\n        /* \"#utility.yul\":13860:13865   */\n      dup3\n        /* \"#utility.yul\":13856:13869   */\n      add\n        /* \"#utility.yul\":13849:13869   */\n      swap1\n      pop\n        /* \"#utility.yul\":13642:13875   */\n      swap2\n      swap1\n      pop\n      jump\t// out\n\n    auxdata: 0xa26469706673582212201d2c02a4e114e3882cf11ac8d39a78ec146392392b20aed3db500c1ad415fe1a64736f6c63430008110033\n}\n",
				"bytecode": {
					"linkReferences": {},
					"object": "608060405234801561001057600080fd5b50610d6b806100206000396000f3fe60806040526004361061003f5760003560e01c8063800fb83f146100445780638c55174214610060578063bfb231d214610089578063cd31831e146100c8575b600080fd5b61005e600480360381019061005991906105cd565b6100f1565b005b34801561006c57600080fd5b5061008760048036038101906100829190610740565b61027f565b005b34801561009557600080fd5b506100b060048036038101906100ab91906105cd565b61038d565b6040516100bf939291906108a1565b60405180910390f35b3480156100d457600080fd5b506100ef60048036038101906100ea91906105cd565b61044c565b005b346000808381526020019081526020016000206001015414610148576040517f08c379a000000000000000000000000000000000000000000000000000000000815260040161013f9061092b565b60405180910390fd5b6000600281111561015c5761015b61082a565b5b60008083815260200190815260200160002060020160009054906101000a900460ff1660028111156101915761019061082a565b5b146101d1576040517f08c379a00000000000000000000000000000000000000000000000000000000081526004016101c890610997565b60405180910390fd5b600160008083815260200190815260200160002060020160006101000a81548160ff0219169083600281111561020a5761020961082a565b5b02179055507f8c198761ba3d324d155cbaf96f0ac38a531c085089e49106d95352535a1110c28160008084815260200190815260200160002060020160009054906101000a900460ff1660028111156102665761026561082a565b5b6040516102749291906109b7565b60405180910390a150565b81600080600154815260200190815260200160002060000190816102a39190610bec565b50806000806001548152602001908152602001600020600101819055506000806000600154815260200190815260200160002060020160006101000a81548160ff021916908360028111156102fb576102fa61082a565b5b02179055507f8c198761ba3d324d155cbaf96f0ac38a531c085089e49106d95352535a1110c2600154600080600154815260200190815260200160002060020160009054906101000a900460ff16600281111561035b5761035a61082a565b5b6040516103699291906109b7565b60405180910390a16001600081548092919061038490610ced565b91905055505050565b60006020528060005260406000206000915090508060000180546103b090610a0f565b80601f01602080910402602001604051908101604052809291908181526020018280546103dc90610a0f565b80156104295780601f106103fe57610100808354040283529160200191610429565b820191906000526020600020905b81548152906001019060200180831161040c57829003601f168201915b5050505050908060010154908060020160009054906101000a900460ff16905083565b600060028111156104605761045f61082a565b5b60008083815260200190815260200160002060020160009054906101000a900460ff1660028111156104955761049461082a565b5b146104d5576040517f08c379a00000000000000000000000000000000000000000000000000000000081526004016104cc90610997565b60405180910390fd5b600260008083815260200190815260200160002060020160006101000a81548160ff0219169083600281111561050e5761050d61082a565b5b02179055507f8c198761ba3d324d155cbaf96f0ac38a531c085089e49106d95352535a1110c28160008084815260200190815260200160002060020160009054906101000a900460ff16600281111561056a5761056961082a565b5b6040516105789291906109b7565b60405180910390a150565b6000604051905090565b600080fd5b600080fd5b6000819050919050565b6105aa81610597565b81146105b557600080fd5b50565b6000813590506105c7816105a1565b92915050565b6000602082840312156105e3576105e261058d565b5b60006105f1848285016105b8565b91505092915050565b600080fd5b600080fd5b6000601f19601f8301169050919050565b7f4e487b7100000000000000000000000000000000000000000000000000000000600052604160045260246000fd5b61064d82610604565b810181811067ffffffffffffffff8211171561066c5761066b610615565b5b80604052505050565b600061067f610583565b905061068b8282610644565b919050565b600067ffffffffffffffff8211156106ab576106aa610615565b5b6106b482610604565b9050602081019050919050565b82818337600083830152505050565b60006106e36106de84610690565b610675565b9050828152602081018484840111156106ff576106fe6105ff565b5b61070a8482856106c1565b509392505050565b600082601f830112610727576107266105fa565b5b81356107378482602086016106d0565b91505092915050565b600080604083850312156107575761075661058d565b5b600083013567ffffffffffffffff81111561077557610774610592565b5b61078185828601610712565b9250506020610792858286016105b8565b9150509250929050565b600081519050919050565b600082825260208201905092915050565b60005b838110156107d65780820151818401526020810190506107bb565b60008484015250505050565b60006107ed8261079c565b6107f781856107a7565b93506108078185602086016107b8565b61081081610604565b840191505092915050565b61082481610597565b82525050565b7f4e487b7100000000000000000000000000000000000000000000000000000000600052602160045260246000fd5b6003811061086a5761086961082a565b5b50565b600081905061087b82610859565b919050565b600061088b8261086d565b9050919050565b61089b81610880565b82525050565b600060608201905081810360008301526108bb81866107e2565b90506108ca602083018561081b565b6108d76040830184610892565b949350505050565b7f4f6e6c792066756c6c207061796d656e74732061636365707465640000000000600082015250565b6000610915601b836107a7565b9150610920826108df565b602082019050919050565b6000602082019050818103600083015261094481610908565b9050919050565b7f4974656d206973206675727468657220696e2074686520636861696e00000000600082015250565b6000610981601c836107a7565b915061098c8261094b565b602082019050919050565b600060208201905081810360008301526109b081610974565b9050919050565b60006040820190506109cc600083018561081b565b6109d9602083018461081b565b9392505050565b7f4e487b7100000000000000000000000000000000000000000000000000000000600052602260045260246000fd5b60006002820490506001821680610a2757607f821691505b602082108103610a3a57610a396109e0565b5b50919050565b60008190508160005260206000209050919050565b60006020601f8301049050919050565b600082821b905092915050565b600060088302610aa27fffffffffffffffffffffffffffffffffffffffffffffffffffffffffffffffff82610a65565b610aac8683610a65565b95508019841693508086168417925050509392505050565b6000819050919050565b6000610ae9610ae4610adf84610597565b610ac4565b610597565b9050919050565b6000819050919050565b610b0383610ace565b610b17610b0f82610af0565b848454610a72565b825550505050565b600090565b610b2c610b1f565b610b37818484610afa565b505050565b5b81811015610b5b57610b50600082610b24565b600181019050610b3d565b5050565b601f821115610ba057610b7181610a40565b610b7a84610a55565b81016020851015610b89578190505b610b9d610b9585610a55565b830182610b3c565b50505b505050565b600082821c905092915050565b6000610bc360001984600802610ba5565b1980831691505092915050565b6000610bdc8383610bb2565b9150826002028217905092915050565b610bf58261079c565b67ffffffffffffffff811115610c0e57610c0d610615565b5b610c188254610a0f565b610c23828285610b5f565b600060209050601f831160018114610c565760008415610c44578287015190505b610c4e8582610bd0565b865550610cb6565b601f198416610c6486610a40565b60005b82811015610c8c57848901518255600182019150602085019450602081019050610c67565b86831015610ca95784890151610ca5601f891682610bb2565b8355505b6001600288020188555050505b505050505050565b7f4e487b7100000000000000000000000000000000000000000000000000000000600052601160045260246000fd5b6000610cf882610597565b91507fffffffffffffffffffffffffffffffffffffffffffffffffffffffffffffffff8203610d2a57610d29610cbe565b5b60018201905091905056fea26469706673582212201d2c02a4e114e3882cf11ac8d39a78ec146392392b20aed3db500c1ad415fe1a64736f6c63430008110033",
					"opcodes": "PUSH1 0x80 PUSH1 0x40 MSTORE CALLVALUE DUP1 ISZERO PUSH2 0x10 JUMPI PUSH1 0x0 DUP1 REVERT JUMPDEST POP PUSH2 0xD6B DUP1 PUSH2 0x20 PUSH1 0x0 CODECOPY PUSH1 0x0 RETURN INVALID PUSH1 0x80 PUSH1 0x40 MSTORE PUSH1 0x4 CALLDATASIZE LT PUSH2 0x3F JUMPI PUSH1 0x0 CALLDATALOAD PUSH1 0xE0 SHR DUP1 PUSH4 0x800FB83F EQ PUSH2 0x44 JUMPI DUP1 PUSH4 0x8C551742 EQ PUSH2 0x60 JUMPI DUP1 PUSH4 0xBFB231D2 EQ PUSH2 0x89 JUMPI DUP1 PUSH4 0xCD31831E EQ PUSH2 0xC8 JUMPI JUMPDEST PUSH1 0x0 DUP1 REVERT JUMPDEST PUSH2 0x5E PUSH1 0x4 DUP1 CALLDATASIZE SUB DUP2 ADD SWAP1 PUSH2 0x59 SWAP2 SWAP1 PUSH2 0x5CD JUMP JUMPDEST PUSH2 0xF1 JUMP JUMPDEST STOP JUMPDEST CALLVALUE DUP1 ISZERO PUSH2 0x6C JUMPI PUSH1 0x0 DUP1 REVERT JUMPDEST POP PUSH2 0x87 PUSH1 0x4 DUP1 CALLDATASIZE SUB DUP2 ADD SWAP1 PUSH2 0x82 SWAP2 SWAP1 PUSH2 0x740 JUMP JUMPDEST PUSH2 0x27F JUMP JUMPDEST STOP JUMPDEST CALLVALUE DUP1 ISZERO PUSH2 0x95 JUMPI PUSH1 0x0 DUP1 REVERT JUMPDEST POP PUSH2 0xB0 PUSH1 0x4 DUP1 CALLDATASIZE SUB DUP2 ADD SWAP1 PUSH2 0xAB SWAP2 SWAP1 PUSH2 0x5CD JUMP JUMPDEST PUSH2 0x38D JUMP JUMPDEST PUSH1 0x40 MLOAD PUSH2 0xBF SWAP4 SWAP3 SWAP2 SWAP1 PUSH2 0x8A1 JUMP JUMPDEST PUSH1 0x40 MLOAD DUP1 SWAP2 SUB SWAP1 RETURN JUMPDEST CALLVALUE DUP1 ISZERO PUSH2 0xD4 JUMPI PUSH1 0x0 DUP1 REVERT JUMPDEST POP PUSH2 0xEF PUSH1 0x4 DUP1 CALLDATASIZE SUB DUP2 ADD SWAP1 PUSH2 0xEA SWAP2 SWAP1 PUSH2 0x5CD JUMP JUMPDEST PUSH2 0x44C JUMP JUMPDEST STOP JUMPDEST CALLVALUE PUSH1 0x0 DUP1 DUP4 DUP2 MSTORE PUSH1 0x20 ADD SWAP1 DUP2 MSTORE PUSH1 0x20 ADD PUSH1 0x0 KECCAK256 PUSH1 0x1 ADD SLOAD EQ PUSH2 0x148 JUMPI PUSH1 0x40 MLOAD PUSH32 0x8C379A000000000000000000000000000000000000000000000000000000000 DUP2 MSTORE PUSH1 0x4 ADD PUSH2 0x13F SWAP1 PUSH2 0x92B JUMP JUMPDEST PUSH1 0x40 MLOAD DUP1 SWAP2 SUB SWAP1 REVERT JUMPDEST PUSH1 0x0 PUSH1 0x2 DUP2 GT ISZERO PUSH2 0x15C JUMPI PUSH2 0x15B PUSH2 0x82A JUMP JUMPDEST JUMPDEST PUSH1 0x0 DUP1 DUP4 DUP2 MSTORE PUSH1 0x20 ADD SWAP1 DUP2 MSTORE PUSH1 0x20 ADD PUSH1 0x0 KECCAK256 PUSH1 0x2 ADD PUSH1 0x0 SWAP1 SLOAD SWAP1 PUSH2 0x100 EXP SWAP1 DIV PUSH1 0xFF AND PUSH1 0x2 DUP2 GT ISZERO PUSH2 0x191 JUMPI PUSH2 0x190 PUSH2 0x82A JUMP JUMPDEST JUMPDEST EQ PUSH2 0x1D1 JUMPI PUSH1 0x40 MLOAD PUSH32 0x8C379A000000000000000000000000000000000000000000000000000000000 DUP2 MSTORE PUSH1 0x4 ADD PUSH2 0x1C8 SWAP1 PUSH2 0x997 JUMP JUMPDEST PUSH1 0x40 MLOAD DUP1 SWAP2 SUB SWAP1 REVERT JUMPDEST PUSH1 0x1 PUSH1 0x0 DUP1 DUP4 DUP2 MSTORE PUSH1 0x20 ADD SWAP1 DUP2 MSTORE PUSH1 0x20 ADD PUSH1 0x0 KECCAK256 PUSH1 0x2 ADD PUSH1 0x0 PUSH2 0x100 EXP DUP2 SLOAD DUP2 PUSH1 0xFF MUL NOT AND SWAP1 DUP4 PUSH1 0x2 DUP2 GT ISZERO PUSH2 0x20A JUMPI PUSH2 0x209 PUSH2 0x82A JUMP JUMPDEST JUMPDEST MUL OR SWAP1 SSTORE POP PUSH32 0x8C198761BA3D324D155CBAF96F0AC38A531C085089E49106D95352535A1110C2 DUP2 PUSH1 0x0 DUP1 DUP5 DUP2 MSTORE PUSH1 0x20 ADD SWAP1 DUP2 MSTORE PUSH1 0x20 ADD PUSH1 0x0 KECCAK256 PUSH1 0x2 ADD PUSH1 0x0 SWAP1 SLOAD SWAP1 PUSH2 0x100 EXP SWAP1 DIV PUSH1 0xFF AND PUSH1 0x2 DUP2 GT ISZERO PUSH2 0x266 JUMPI PUSH2 0x265 PUSH2 0x82A JUMP JUMPDEST JUMPDEST PUSH1 0x40 MLOAD PUSH2 0x274 SWAP3 SWAP2 SWAP1 PUSH2 0x9B7 JUMP JUMPDEST PUSH1 0x40 MLOAD DUP1 SWAP2 SUB SWAP1 LOG1 POP JUMP JUMPDEST DUP2 PUSH1 0x0 DUP1 PUSH1 0x1 SLOAD DUP2 MSTORE PUSH1 0x20 ADD SWAP1 DUP2 MSTORE PUSH1 0x20 ADD PUSH1 0x0 KECCAK256 PUSH1 0x0 ADD SWAP1 DUP2 PUSH2 0x2A3 SWAP2 SWAP1 PUSH2 0xBEC JUMP JUMPDEST POP DUP1 PUSH1 0x0 DUP1 PUSH1 0x1 SLOAD DUP2 MSTORE PUSH1 0x20 ADD SWAP1 DUP2 MSTORE PUSH1 0x20 ADD PUSH1 0x0 KECCAK256 PUSH1 0x1 ADD DUP2 SWAP1 SSTORE POP PUSH1 0x0 DUP1 PUSH1 0x0 PUSH1 0x1 SLOAD DUP2 MSTORE PUSH1 0x20 ADD SWAP1 DUP2 MSTORE PUSH1 0x20 ADD PUSH1 0x0 KECCAK256 PUSH1 0x2 ADD PUSH1 0x0 PUSH2 0x100 EXP DUP2 SLOAD DUP2 PUSH1 0xFF MUL NOT AND SWAP1 DUP4 PUSH1 0x2 DUP2 GT ISZERO PUSH2 0x2FB JUMPI PUSH2 0x2FA PUSH2 0x82A JUMP JUMPDEST JUMPDEST MUL OR SWAP1 SSTORE POP PUSH32 0x8C198761BA3D324D155CBAF96F0AC38A531C085089E49106D95352535A1110C2 PUSH1 0x1 SLOAD PUSH1 0x0 DUP1 PUSH1 0x1 SLOAD DUP2 MSTORE PUSH1 0x20 ADD SWAP1 DUP2 MSTORE PUSH1 0x20 ADD PUSH1 0x0 KECCAK256 PUSH1 0x2 ADD PUSH1 0x0 SWAP1 SLOAD SWAP1 PUSH2 0x100 EXP SWAP1 DIV PUSH1 0xFF AND PUSH1 0x2 DUP2 GT ISZERO PUSH2 0x35B JUMPI PUSH2 0x35A PUSH2 0x82A JUMP JUMPDEST JUMPDEST PUSH1 0x40 MLOAD PUSH2 0x369 SWAP3 SWAP2 SWAP1 PUSH2 0x9B7 JUMP JUMPDEST PUSH1 0x40 MLOAD DUP1 SWAP2 SUB SWAP1 LOG1 PUSH1 0x1 PUSH1 0x0 DUP2 SLOAD DUP1 SWAP3 SWAP2 SWAP1 PUSH2 0x384 SWAP1 PUSH2 0xCED JUMP JUMPDEST SWAP2 SWAP1 POP SSTORE POP POP POP JUMP JUMPDEST PUSH1 0x0 PUSH1 0x20 MSTORE DUP1 PUSH1 0x0 MSTORE PUSH1 0x40 PUSH1 0x0 KECCAK256 PUSH1 0x0 SWAP2 POP SWAP1 POP DUP1 PUSH1 0x0 ADD DUP1 SLOAD PUSH2 0x3B0 SWAP1 PUSH2 0xA0F JUMP JUMPDEST DUP1 PUSH1 0x1F ADD PUSH1 0x20 DUP1 SWAP2 DIV MUL PUSH1 0x20 ADD PUSH1 0x40 MLOAD SWAP1 DUP2 ADD PUSH1 0x40 MSTORE DUP1 SWAP3 SWAP2 SWAP1 DUP2 DUP2 MSTORE PUSH1 0x20 ADD DUP3 DUP1 SLOAD PUSH2 0x3DC SWAP1 PUSH2 0xA0F JUMP JUMPDEST DUP1 ISZERO PUSH2 0x429 JUMPI DUP1 PUSH1 0x1F LT PUSH2 0x3FE JUMPI PUSH2 0x100 DUP1 DUP4 SLOAD DIV MUL DUP4 MSTORE SWAP2 PUSH1 0x20 ADD SWAP2 PUSH2 0x429 JUMP JUMPDEST DUP3 ADD SWAP2 SWAP1 PUSH1 0x0 MSTORE PUSH1 0x20 PUSH1 0x0 KECCAK256 SWAP1 JUMPDEST DUP2 SLOAD DUP2 MSTORE SWAP1 PUSH1 0x1 ADD SWAP1 PUSH1 0x20 ADD DUP1 DUP4 GT PUSH2 0x40C JUMPI DUP3 SWAP1 SUB PUSH1 0x1F AND DUP3 ADD SWAP2 JUMPDEST POP POP POP POP POP SWAP1 DUP1 PUSH1 0x1 ADD SLOAD SWAP1 DUP1 PUSH1 0x2 ADD PUSH1 0x0 SWAP1 SLOAD SWAP1 PUSH2 0x100 EXP SWAP1 DIV PUSH1 0xFF AND SWAP1 POP DUP4 JUMP JUMPDEST PUSH1 0x0 PUSH1 0x2 DUP2 GT ISZERO PUSH2 0x460 JUMPI PUSH2 0x45F PUSH2 0x82A JUMP JUMPDEST JUMPDEST PUSH1 0x0 DUP1 DUP4 DUP2 MSTORE PUSH1 0x20 ADD SWAP1 DUP2 MSTORE PUSH1 0x20 ADD PUSH1 0x0 KECCAK256 PUSH1 0x2 ADD PUSH1 0x0 SWAP1 SLOAD SWAP1 PUSH2 0x100 EXP SWAP1 DIV PUSH1 0xFF AND PUSH1 0x2 DUP2 GT ISZERO PUSH2 0x495 JUMPI PUSH2 0x494 PUSH2 0x82A JUMP JUMPDEST JUMPDEST EQ PUSH2 0x4D5 JUMPI PUSH1 0x40 MLOAD PUSH32 0x8C379A000000000000000000000000000000000000000000000000000000000 DUP2 MSTORE PUSH1 0x4 ADD PUSH2 0x4CC SWAP1 PUSH2 0x997 JUMP JUMPDEST PUSH1 0x40 MLOAD DUP1 SWAP2 SUB SWAP1 REVERT JUMPDEST PUSH1 0x2 PUSH1 0x0 DUP1 DUP4 DUP2 MSTORE PUSH1 0x20 ADD SWAP1 DUP2 MSTORE PUSH1 0x20 ADD PUSH1 0x0 KECCAK256 PUSH1 0x2 ADD PUSH1 0x0 PUSH2 0x100 EXP DUP2 SLOAD DUP2 PUSH1 0xFF MUL NOT AND SWAP1 DUP4 PUSH1 0x2 DUP2 GT ISZERO PUSH2 0x50E JUMPI PUSH2 0x50D PUSH2 0x82A JUMP JUMPDEST JUMPDEST MUL OR SWAP1 SSTORE POP PUSH32 0x8C198761BA3D324D155CBAF96F0AC38A531C085089E49106D95352535A1110C2 DUP2 PUSH1 0x0 DUP1 DUP5 DUP2 MSTORE PUSH1 0x20 ADD SWAP1 DUP2 MSTORE PUSH1 0x20 ADD PUSH1 0x0 KECCAK256 PUSH1 0x2 ADD PUSH1 0x0 SWAP1 SLOAD SWAP1 PUSH2 0x100 EXP SWAP1 DIV PUSH1 0xFF AND PUSH1 0x2 DUP2 GT ISZERO PUSH2 0x56A JUMPI PUSH2 0x569 PUSH2 0x82A JUMP JUMPDEST JUMPDEST PUSH1 0x40 MLOAD PUSH2 0x578 SWAP3 SWAP2 SWAP1 PUSH2 0x9B7 JUMP JUMPDEST PUSH1 0x40 MLOAD DUP1 SWAP2 SUB SWAP1 LOG1 POP JUMP JUMPDEST PUSH1 0x0 PUSH1 0x40 MLOAD SWAP1 POP SWAP1 JUMP JUMPDEST PUSH1 0x0 DUP1 REVERT JUMPDEST PUSH1 0x0 DUP1 REVERT JUMPDEST PUSH1 0x0 DUP2 SWAP1 POP SWAP2 SWAP1 POP JUMP JUMPDEST PUSH2 0x5AA DUP2 PUSH2 0x597 JUMP JUMPDEST DUP2 EQ PUSH2 0x5B5 JUMPI PUSH1 0x0 DUP1 REVERT JUMPDEST POP JUMP JUMPDEST PUSH1 0x0 DUP2 CALLDATALOAD SWAP1 POP PUSH2 0x5C7 DUP2 PUSH2 0x5A1 JUMP JUMPDEST SWAP3 SWAP2 POP POP JUMP JUMPDEST PUSH1 0x0 PUSH1 0x20 DUP3 DUP5 SUB SLT ISZERO PUSH2 0x5E3 JUMPI PUSH2 0x5E2 PUSH2 0x58D JUMP JUMPDEST JUMPDEST PUSH1 0x0 PUSH2 0x5F1 DUP5 DUP3 DUP6 ADD PUSH2 0x5B8 JUMP JUMPDEST SWAP2 POP POP SWAP3 SWAP2 POP POP JUMP JUMPDEST PUSH1 0x0 DUP1 REVERT JUMPDEST PUSH1 0x0 DUP1 REVERT JUMPDEST PUSH1 0x0 PUSH1 0x1F NOT PUSH1 0x1F DUP4 ADD AND SWAP1 POP SWAP2 SWAP1 POP JUMP JUMPDEST PUSH32 0x4E487B7100000000000000000000000000000000000000000000000000000000 PUSH1 0x0 MSTORE PUSH1 0x41 PUSH1 0x4 MSTORE PUSH1 0x24 PUSH1 0x0 REVERT JUMPDEST PUSH2 0x64D DUP3 PUSH2 0x604 JUMP JUMPDEST DUP2 ADD DUP2 DUP2 LT PUSH8 0xFFFFFFFFFFFFFFFF DUP3 GT OR ISZERO PUSH2 0x66C JUMPI PUSH2 0x66B PUSH2 0x615 JUMP JUMPDEST JUMPDEST DUP1 PUSH1 0x40 MSTORE POP POP POP JUMP JUMPDEST PUSH1 0x0 PUSH2 0x67F PUSH2 0x583 JUMP JUMPDEST SWAP1 POP PUSH2 0x68B DUP3 DUP3 PUSH2 0x644 JUMP JUMPDEST SWAP2 SWAP1 POP JUMP JUMPDEST PUSH1 0x0 PUSH8 0xFFFFFFFFFFFFFFFF DUP3 GT ISZERO PUSH2 0x6AB JUMPI PUSH2 0x6AA PUSH2 0x615 JUMP JUMPDEST JUMPDEST PUSH2 0x6B4 DUP3 PUSH2 0x604 JUMP JUMPDEST SWAP1 POP PUSH1 0x20 DUP2 ADD SWAP1 POP SWAP2 SWAP1 POP JUMP JUMPDEST DUP3 DUP2 DUP4 CALLDATACOPY PUSH1 0x0 DUP4 DUP4 ADD MSTORE POP POP POP JUMP JUMPDEST PUSH1 0x0 PUSH2 0x6E3 PUSH2 0x6DE DUP5 PUSH2 0x690 JUMP JUMPDEST PUSH2 0x675 JUMP JUMPDEST SWAP1 POP DUP3 DUP2 MSTORE PUSH1 0x20 DUP2 ADD DUP5 DUP5 DUP5 ADD GT ISZERO PUSH2 0x6FF JUMPI PUSH2 0x6FE PUSH2 0x5FF JUMP JUMPDEST JUMPDEST PUSH2 0x70A DUP5 DUP3 DUP6 PUSH2 0x6C1 JUMP JUMPDEST POP SWAP4 SWAP3 POP POP POP JUMP JUMPDEST PUSH1 0x0 DUP3 PUSH1 0x1F DUP4 ADD SLT PUSH2 0x727 JUMPI PUSH2 0x726 PUSH2 0x5FA JUMP JUMPDEST JUMPDEST DUP2 CALLDATALOAD PUSH2 0x737 DUP5 DUP3 PUSH1 0x20 DUP7 ADD PUSH2 0x6D0 JUMP JUMPDEST SWAP2 POP POP SWAP3 SWAP2 POP POP JUMP JUMPDEST PUSH1 0x0 DUP1 PUSH1 0x40 DUP4 DUP6 SUB SLT ISZERO PUSH2 0x757 JUMPI PUSH2 0x756 PUSH2 0x58D JUMP JUMPDEST JUMPDEST PUSH1 0x0 DUP4 ADD CALLDATALOAD PUSH8 0xFFFFFFFFFFFFFFFF DUP2 GT ISZERO PUSH2 0x775 JUMPI PUSH2 0x774 PUSH2 0x592 JUMP JUMPDEST JUMPDEST PUSH2 0x781 DUP6 DUP3 DUP7 ADD PUSH2 0x712 JUMP JUMPDEST SWAP3 POP POP PUSH1 0x20 PUSH2 0x792 DUP6 DUP3 DUP7 ADD PUSH2 0x5B8 JUMP JUMPDEST SWAP2 POP POP SWAP3 POP SWAP3 SWAP1 POP JUMP JUMPDEST PUSH1 0x0 DUP2 MLOAD SWAP1 POP SWAP2 SWAP1 POP JUMP JUMPDEST PUSH1 0x0 DUP3 DUP3 MSTORE PUSH1 0x20 DUP3 ADD SWAP1 POP SWAP3 SWAP2 POP POP JUMP JUMPDEST PUSH1 0x0 JUMPDEST DUP4 DUP2 LT ISZERO PUSH2 0x7D6 JUMPI DUP1 DUP3 ADD MLOAD DUP2 DUP5 ADD MSTORE PUSH1 0x20 DUP2 ADD SWAP1 POP PUSH2 0x7BB JUMP JUMPDEST PUSH1 0x0 DUP5 DUP5 ADD MSTORE POP POP POP POP JUMP JUMPDEST PUSH1 0x0 PUSH2 0x7ED DUP3 PUSH2 0x79C JUMP JUMPDEST PUSH2 0x7F7 DUP2 DUP6 PUSH2 0x7A7 JUMP JUMPDEST SWAP4 POP PUSH2 0x807 DUP2 DUP6 PUSH1 0x20 DUP7 ADD PUSH2 0x7B8 JUMP JUMPDEST PUSH2 0x810 DUP2 PUSH2 0x604 JUMP JUMPDEST DUP5 ADD SWAP2 POP POP SWAP3 SWAP2 POP POP JUMP JUMPDEST PUSH2 0x824 DUP2 PUSH2 0x597 JUMP JUMPDEST DUP3 MSTORE POP POP JUMP JUMPDEST PUSH32 0x4E487B7100000000000000000000000000000000000000000000000000000000 PUSH1 0x0 MSTORE PUSH1 0x21 PUSH1 0x4 MSTORE PUSH1 0x24 PUSH1 0x0 REVERT JUMPDEST PUSH1 0x3 DUP2 LT PUSH2 0x86A JUMPI PUSH2 0x869 PUSH2 0x82A JUMP JUMPDEST JUMPDEST POP JUMP JUMPDEST PUSH1 0x0 DUP2 SWAP1 POP PUSH2 0x87B DUP3 PUSH2 0x859 JUMP JUMPDEST SWAP2 SWAP1 POP JUMP JUMPDEST PUSH1 0x0 PUSH2 0x88B DUP3 PUSH2 0x86D JUMP JUMPDEST SWAP1 POP SWAP2 SWAP1 POP JUMP JUMPDEST PUSH2 0x89B DUP2 PUSH2 0x880 JUMP JUMPDEST DUP3 MSTORE POP POP JUMP JUMPDEST PUSH1 0x0 PUSH1 0x60 DUP3 ADD SWAP1 POP DUP2 DUP2 SUB PUSH1 0x0 DUP4 ADD MSTORE PUSH2 0x8BB DUP2 DUP7 PUSH2 0x7E2 JUMP JUMPDEST SWAP1 POP PUSH2 0x8CA PUSH1 0x20 DUP4 ADD DUP6 PUSH2 0x81B JUMP JUMPDEST PUSH2 0x8D7 PUSH1 0x40 DUP4 ADD DUP5 PUSH2 0x892 JUMP JUMPDEST SWAP5 SWAP4 POP POP POP POP JUMP JUMPDEST PUSH32 0x4F6E6C792066756C6C207061796D656E74732061636365707465640000000000 PUSH1 0x0 DUP3 ADD MSTORE POP JUMP JUMPDEST PUSH1 0x0 PUSH2 0x915 PUSH1 0x1B DUP4 PUSH2 0x7A7 JUMP JUMPDEST SWAP2 POP PUSH2 0x920 DUP3 PUSH2 0x8DF JUMP JUMPDEST PUSH1 0x20 DUP3 ADD SWAP1 POP SWAP2 SWAP1 POP JUMP JUMPDEST PUSH1 0x0 PUSH1 0x20 DUP3 ADD SWAP1 POP DUP2 DUP2 SUB PUSH1 0x0 DUP4 ADD MSTORE PUSH2 0x944 DUP2 PUSH2 0x908 JUMP JUMPDEST SWAP1 POP SWAP2 SWAP1 POP JUMP JUMPDEST PUSH32 0x4974656D206973206675727468657220696E2074686520636861696E00000000 PUSH1 0x0 DUP3 ADD MSTORE POP JUMP JUMPDEST PUSH1 0x0 PUSH2 0x981 PUSH1 0x1C DUP4 PUSH2 0x7A7 JUMP JUMPDEST SWAP2 POP PUSH2 0x98C DUP3 PUSH2 0x94B JUMP JUMPDEST PUSH1 0x20 DUP3 ADD SWAP1 POP SWAP2 SWAP1 POP JUMP JUMPDEST PUSH1 0x0 PUSH1 0x20 DUP3 ADD SWAP1 POP DUP2 DUP2 SUB PUSH1 0x0 DUP4 ADD MSTORE PUSH2 0x9B0 DUP2 PUSH2 0x974 JUMP JUMPDEST SWAP1 POP SWAP2 SWAP1 POP JUMP JUMPDEST PUSH1 0x0 PUSH1 0x40 DUP3 ADD SWAP1 POP PUSH2 0x9CC PUSH1 0x0 DUP4 ADD DUP6 PUSH2 0x81B JUMP JUMPDEST PUSH2 0x9D9 PUSH1 0x20 DUP4 ADD DUP5 PUSH2 0x81B JUMP JUMPDEST SWAP4 SWAP3 POP POP POP JUMP JUMPDEST PUSH32 0x4E487B7100000000000000000000000000000000000000000000000000000000 PUSH1 0x0 MSTORE PUSH1 0x22 PUSH1 0x4 MSTORE PUSH1 0x24 PUSH1 0x0 REVERT JUMPDEST PUSH1 0x0 PUSH1 0x2 DUP3 DIV SWAP1 POP PUSH1 0x1 DUP3 AND DUP1 PUSH2 0xA27 JUMPI PUSH1 0x7F DUP3 AND SWAP2 POP JUMPDEST PUSH1 0x20 DUP3 LT DUP2 SUB PUSH2 0xA3A JUMPI PUSH2 0xA39 PUSH2 0x9E0 JUMP JUMPDEST JUMPDEST POP SWAP2 SWAP1 POP JUMP JUMPDEST PUSH1 0x0 DUP2 SWAP1 POP DUP2 PUSH1 0x0 MSTORE PUSH1 0x20 PUSH1 0x0 KECCAK256 SWAP1 POP SWAP2 SWAP1 POP JUMP JUMPDEST PUSH1 0x0 PUSH1 0x20 PUSH1 0x1F DUP4 ADD DIV SWAP1 POP SWAP2 SWAP1 POP JUMP JUMPDEST PUSH1 0x0 DUP3 DUP3 SHL SWAP1 POP SWAP3 SWAP2 POP POP JUMP JUMPDEST PUSH1 0x0 PUSH1 0x8 DUP4 MUL PUSH2 0xAA2 PUSH32 0xFFFFFFFFFFFFFFFFFFFFFFFFFFFFFFFFFFFFFFFFFFFFFFFFFFFFFFFFFFFFFFFF DUP3 PUSH2 0xA65 JUMP JUMPDEST PUSH2 0xAAC DUP7 DUP4 PUSH2 0xA65 JUMP JUMPDEST SWAP6 POP DUP1 NOT DUP5 AND SWAP4 POP DUP1 DUP7 AND DUP5 OR SWAP3 POP POP POP SWAP4 SWAP3 POP POP POP JUMP JUMPDEST PUSH1 0x0 DUP2 SWAP1 POP SWAP2 SWAP1 POP JUMP JUMPDEST PUSH1 0x0 PUSH2 0xAE9 PUSH2 0xAE4 PUSH2 0xADF DUP5 PUSH2 0x597 JUMP JUMPDEST PUSH2 0xAC4 JUMP JUMPDEST PUSH2 0x597 JUMP JUMPDEST SWAP1 POP SWAP2 SWAP1 POP JUMP JUMPDEST PUSH1 0x0 DUP2 SWAP1 POP SWAP2 SWAP1 POP JUMP JUMPDEST PUSH2 0xB03 DUP4 PUSH2 0xACE JUMP JUMPDEST PUSH2 0xB17 PUSH2 0xB0F DUP3 PUSH2 0xAF0 JUMP JUMPDEST DUP5 DUP5 SLOAD PUSH2 0xA72 JUMP JUMPDEST DUP3 SSTORE POP POP POP POP JUMP JUMPDEST PUSH1 0x0 SWAP1 JUMP JUMPDEST PUSH2 0xB2C PUSH2 0xB1F JUMP JUMPDEST PUSH2 0xB37 DUP2 DUP5 DUP5 PUSH2 0xAFA JUMP JUMPDEST POP POP POP JUMP JUMPDEST JUMPDEST DUP2 DUP2 LT ISZERO PUSH2 0xB5B JUMPI PUSH2 0xB50 PUSH1 0x0 DUP3 PUSH2 0xB24 JUMP JUMPDEST PUSH1 0x1 DUP2 ADD SWAP1 POP PUSH2 0xB3D JUMP JUMPDEST POP POP JUMP JUMPDEST PUSH1 0x1F DUP3 GT ISZERO PUSH2 0xBA0 JUMPI PUSH2 0xB71 DUP2 PUSH2 0xA40 JUMP JUMPDEST PUSH2 0xB7A DUP5 PUSH2 0xA55 JUMP JUMPDEST DUP2 ADD PUSH1 0x20 DUP6 LT ISZERO PUSH2 0xB89 JUMPI DUP2 SWAP1 POP JUMPDEST PUSH2 0xB9D PUSH2 0xB95 DUP6 PUSH2 0xA55 JUMP JUMPDEST DUP4 ADD DUP3 PUSH2 0xB3C JUMP JUMPDEST POP POP JUMPDEST POP POP POP JUMP JUMPDEST PUSH1 0x0 DUP3 DUP3 SHR SWAP1 POP SWAP3 SWAP2 POP POP JUMP JUMPDEST PUSH1 0x0 PUSH2 0xBC3 PUSH1 0x0 NOT DUP5 PUSH1 0x8 MUL PUSH2 0xBA5 JUMP JUMPDEST NOT DUP1 DUP4 AND SWAP2 POP POP SWAP3 SWAP2 POP POP JUMP JUMPDEST PUSH1 0x0 PUSH2 0xBDC DUP4 DUP4 PUSH2 0xBB2 JUMP JUMPDEST SWAP2 POP DUP3 PUSH1 0x2 MUL DUP3 OR SWAP1 POP SWAP3 SWAP2 POP POP JUMP JUMPDEST PUSH2 0xBF5 DUP3 PUSH2 0x79C JUMP JUMPDEST PUSH8 0xFFFFFFFFFFFFFFFF DUP2 GT ISZERO PUSH2 0xC0E JUMPI PUSH2 0xC0D PUSH2 0x615 JUMP JUMPDEST JUMPDEST PUSH2 0xC18 DUP3 SLOAD PUSH2 0xA0F JUMP JUMPDEST PUSH2 0xC23 DUP3 DUP3 DUP6 PUSH2 0xB5F JUMP JUMPDEST PUSH1 0x0 PUSH1 0x20 SWAP1 POP PUSH1 0x1F DUP4 GT PUSH1 0x1 DUP2 EQ PUSH2 0xC56 JUMPI PUSH1 0x0 DUP5 ISZERO PUSH2 0xC44 JUMPI DUP3 DUP8 ADD MLOAD SWAP1 POP JUMPDEST PUSH2 0xC4E DUP6 DUP3 PUSH2 0xBD0 JUMP JUMPDEST DUP7 SSTORE POP PUSH2 0xCB6 JUMP JUMPDEST PUSH1 0x1F NOT DUP5 AND PUSH2 0xC64 DUP7 PUSH2 0xA40 JUMP JUMPDEST PUSH1 0x0 JUMPDEST DUP3 DUP2 LT ISZERO PUSH2 0xC8C JUMPI DUP5 DUP10 ADD MLOAD DUP3 SSTORE PUSH1 0x1 DUP3 ADD SWAP2 POP PUSH1 0x20 DUP6 ADD SWAP5 POP PUSH1 0x20 DUP2 ADD SWAP1 POP PUSH2 0xC67 JUMP JUMPDEST DUP7 DUP4 LT ISZERO PUSH2 0xCA9 JUMPI DUP5 DUP10 ADD MLOAD PUSH2 0xCA5 PUSH1 0x1F DUP10 AND DUP3 PUSH2 0xBB2 JUMP JUMPDEST DUP4 SSTORE POP JUMPDEST PUSH1 0x1 PUSH1 0x2 DUP9 MUL ADD DUP9 SSTORE POP POP POP JUMPDEST POP POP POP POP POP POP JUMP JUMPDEST PUSH32 0x4E487B7100000000000000000000000000000000000000000000000000000000 PUSH1 0x0 MSTORE PUSH1 0x11 PUSH1 0x4 MSTORE PUSH1 0x24 PUSH1 0x0 REVERT JUMPDEST PUSH1 0x0 PUSH2 0xCF8 DUP3 PUSH2 0x597 JUMP JUMPDEST SWAP2 POP PUSH32 0xFFFFFFFFFFFFFFFFFFFFFFFFFFFFFFFFFFFFFFFFFFFFFFFFFFFFFFFFFFFFFFFF DUP3 SUB PUSH2 0xD2A JUMPI PUSH2 0xD29 PUSH2 0xCBE JUMP JUMPDEST JUMPDEST PUSH1 0x1 DUP3 ADD SWAP1 POP SWAP2 SWAP1 POP JUMP INVALID LOG2 PUSH5 0x6970667358 0x22 SLT KECCAK256 SAR 0x2C MUL LOG4 0xE1 EQ 0xE3 DUP9 0x2C CALL BYTE 0xC8 0xD3 SWAP11 PUSH25 0xEC146392392B20AED3DB500C1AD415FE1A64736F6C63430008 GT STOP CALLER "
				},
				"gasEstimates": {
					"creation": {
						"codeDepositCost": "687000",
						"executionCost": "721",
						"totalCost": "687721"
					},
					"external": {
						"createItem(string,uint256)": "infinite",
						"items(uint256)": "infinite",
						"triggerDelivery(uint256)": "infinite",
						"triggerPayment(uint256)": "infinite"
					}
				},
				"methodIdentifiers": {
					"createItem(string,uint256)": "8c551742",
					"items(uint256)": "bfb231d2",
					"triggerDelivery(uint256)": "cd31831e",
					"triggerPayment(uint256)": "800fb83f"
				}
			},
			"storageLayout": {
				"storage": [
					{
						"astId": 18,
						"contract": "itemManager.sol:ItemManager",
						"label": "items",
						"offset": 0,
						"slot": "0",
						"type": "t_mapping(t_uint256,t_struct(S_Item)13_storage)"
					},
					{
						"astId": 20,
						"contract": "itemManager.sol:ItemManager",
						"label": "itemIndex",
						"offset": 0,
						"slot": "1",
						"type": "t_uint256"
					}
				],
				"types": {
					"t_enum(SupplyChainState)5": {
						"encoding": "inplace",
						"label": "enum ItemManager.SupplyChainState",
						"numberOfBytes": "1"
					},
					"t_mapping(t_uint256,t_struct(S_Item)13_storage)": {
						"encoding": "mapping",
						"key": "t_uint256",
						"label": "mapping(uint256 => struct ItemManager.S_Item)",
						"numberOfBytes": "32",
						"value": "t_struct(S_Item)13_storage"
					},
					"t_string_storage": {
						"encoding": "bytes",
						"label": "string",
						"numberOfBytes": "32"
					},
					"t_struct(S_Item)13_storage": {
						"encoding": "inplace",
						"label": "struct ItemManager.S_Item",
						"members": [
							{
								"astId": 7,
								"contract": "itemManager.sol:ItemManager",
								"label": "_identifier",
								"offset": 0,
								"slot": "0",
								"type": "t_string_storage"
							},
							{
								"astId": 9,
								"contract": "itemManager.sol:ItemManager",
								"label": "_itemPrice",
								"offset": 0,
								"slot": "1",
								"type": "t_uint256"
							},
							{
								"astId": 12,
								"contract": "itemManager.sol:ItemManager",
								"label": "_state",
								"offset": 0,
								"slot": "2",
								"type": "t_enum(SupplyChainState)5"
							}
						],
						"numberOfBytes": "96"
					},
					"t_uint256": {
						"encoding": "inplace",
						"label": "uint256",
						"numberOfBytes": "32"
					}
				}
			},
			"userdoc": {
				"kind": "user",
				"methods": {},
				"version": 1
			}
		}
	}
}